:10000000302400206D4A0000694A0000694A00005F
:1000100000000000000000000000000000000000E0
:10002000000000000000000000000000694A00001D
:100030000000000000000000694A0000694A00005A
:10004000694A0000694A0000694A0000694A0000E4
:10005000694A0000694A0000694A0000C53300008F
:10006000D5330000E5330000F5330000053400000F
:1000700015340000F5490000FF490000094A00005E
:10008000134A00001D4A0000274A0000314A0000C0
:100090003B4A0000694A0000694A0000694A0000C2
:1000A000694A000010B5064C2378002B07D1054B98
:1000B000002B02D0044800E000BF0123237010BDD4
:1000C000E00100200000000030AE0000044B10B53D
:1000D000002B03D00349044800E000BF10BDC04618
:1000E00000000000E401002030AE0000F0B583B055
:1000F00000921D006B46D97101221649164803F083
:100100001FFB6424144E01226B46D91D300003F0FE
:100110008FFB002805D0013CA4B2002CF3D164343D
:1001200000E06424ADB20C4E2A000099300003F0C8
:100130007FFB071E03D0013CA4B2002CF4D10022A7
:100140000449054803F0FCFA3800471EB841404214
:1001500003B0F0BD78020020CC020020F0B583B0DF
:1001600000921D0080235B4219436B46D971012226
:100170001649174803F0E4FA6424154E01226B4631
:10018000D91D300003F054FB002805D0013CA4B277
:10019000002CF3D1643400E06424ADB20C4E002393
:1001A0002A000099300003F02FFA071E03D0013C0B
:1001B000A4B2002CF3D100220449054803F0C0FA90
:1001C0003800471EB841404203B0F0BD780200201D
:1001D000CC02002010B501F0D5FB10BD10B51221E6
:1001E000064801F037FB0648064B8360064BC360A8
:1001F000064B436100F030F810BDC0467802002085
:10020000B4020020ED0000005D010000D5010000F7
:1002100070B50500064C2468002C06D02079A4682F
:1002200013000A002900A04770BD7F204042FBE771
:10023000FC01002070B50500064C2468002C06D097
:100240002079E46813000A002900A04770BD7F20D0
:100250004042FBE7FC010020F0B583B003006A4692
:10026000D61D0022327069468C1D8A710B4D2860A4
:100270000079DF68012332000021B8470700337896
:100280002A685370012221003E20FFF7D3FFC019D6
:100290002B6822785A7140B203B0F0BDFC010020F7
:1002A00030B583B0040006220021684608F03BF90F
:1002B0003E4B1B68002B00D174E03D4A1278012AA6
:1002C0002AD0002A04D0022A49D00120404221E04D
:1002D0001879DD6806236A460221A8476B46012289
:1002E0009A5612021B780F218B4313431B11238054
:1002F0006B4603229A5612029B788B4313431B11C1
:1003000063806B4605229A5612021B798B43134376
:100310001B11A38003B030BD1879DD6806236A463F
:100320000221A8476B4601229A5612021B783F21F0
:100330008B4313439B1123806B4603229A56120270
:100340009B788B4313439B1163806B4605229A561F
:1003500012021B798B4313439B11A380DAE71879B0
:10036000DD6806236A460221A8476B4601229A5699
:1003700012021B7803218B4313439B1023806B468F
:1003800003229A5612029B788B4313439B1063807F
:100390006B4605229A5612021B798B4313439B101E
:1003A000A380B7E77F204042B4E7C046FC010020AD
:1003B0000000002030B583B06B460022DA712F4B6D
:1003C0001B68002B36D003281BD16A46D51D18792F
:1003D000DC6801232A000F21A04704002B780F229C
:1003E0009343032213432B70244B1B6818799D6899
:1003F00001236A4607320F21A847001940B203B013
:1004000030BD052819D0082827D00C280FD16A46FE
:10041000D51D1879DC6801232A000F21A0470400AC
:100420002B780F2293430C2213432B70DCE702201E
:100430004042E4E77F204042E1E76A46D51D187953
:10044000DC6801232A000F21A04704002B780F222B
:100450009343052213432B70C6E76A46D51D1879CE
:10046000DC6801232A000F21A04704002B780F220B
:100470009343082213432B70B6E7C046FC010020CB
:1004800070B582B004006B460022DA712D4B1B68F8
:10049000002B4ED05A78FB2A27D00200083AD2B25D
:1004A000072A4CD801000839C9B200220720884227
:1004B0005241524214406A46D51D1879DE68012324
:1004C0002A001021B04706002B781F2293431C43BB
:1004D0002C701C4B1B6818799C6801232A00102182
:1004E000A047801940B202B070BD0200083A062A47
:1004F00022D8D1B2002206208842524152421440F2
:100500006A46D51D1879DE6801232A001021B047FC
:1005100006002B781F2293431C432C70094B1B6849
:1005200018799C6801232A001021A047801940B245
:10053000D9E77F204042D6E702204042D3E702209D
:100540004042D0E7FC010020194B1B68002B27D04C
:10055000052828D82AD88000164A12589746002223
:100560009A70DA700020704702229A700022DA70C6
:100570000020F8E702229A70013ADA700020F2E7D0
:1005800004229A700022DA700020ECE704229A70AC
:10059000033ADA700020E6E701229A700020E2E7D1
:1005A0007F204042DFE702204042DCE70020DAE71C
:1005B000FC0100208CA70000F0B5CE46474680B570
:1005C00085B00190002302AAD37102AA937102AAF6
:1005D0005371414B1B68002B00D17AE002AAD51D54
:1005E0001879DC6801232A001121A04704003A4F42
:1005F0003B6802AA961D1879DB68994601233200F0
:100600001221C8470419E4B20198FFF79DFF24188E
:10061000E4B23A6893789846D178890140230B4038
:100620003178402081430B433370107993689946A9
:10063000012332001221C8472418E4B23B685B69E9
:10064000012098472A781F26324080235B421343BB
:100650002B703B6818799B68994601232A00112169
:10066000C8472418E4B23B685B690120984702AB95
:10067000591D3B685B790B7001223E20FFF7C8FDD6
:100680002418E4B23B685B69012098473B681879FD
:10069000DB68994601232A001121C8472418E4B2D7
:1006A0002B7833404246520113432B703B68187934
:1006B0009E6801232A001121B047241864B23B68C8
:1006C0005B6901209847200005B00CBC9046994614
:1006D000F0BD7F246442F6E7FC010020F0B583B052
:1006E00000921D006B46D97101221649164803F08D
:1006F00027F86424144E01226B46D91D300003F004
:1007000097F8002805D0013CA4B2002CF3D1643442
:1007100000E06424ADB20C4E2A000099300003F0D2
:1007200087F8071E03D0013CA4B2002CF4D10022AC
:100730000449054803F004F83800471EB841404218
:1007400003B0F0BD04030020CC020020F0B583B05C
:1007500000921D0080235B4219436B46D971012230
:100760001649174802F0ECFF6424154E01226B462F
:10077000D91D300003F05CF8002805D0013CA4B27C
:10078000002CF3D1643400E06424ADB20C4E00239D
:100790002A000099300002F037FF071E03D0013C09
:1007A000A4B2002CF3D100220449054802F0C8FF8E
:1007B0003800471EB841404203B0F0BD040300209A
:1007C000CC02002010B501F0DDF810BD10B51B21E2
:1007D000064801F03FF80648064B8360064BC360AD
:1007E000064B036100F00CF810BDC0460403002066
:1007F00008030020DD0600004D070000C5070000CB
:1008000070B582B003006A46D41D00222270064DE6
:1008100028604078DE68012322000021B04722785A
:100820002B681A7002B070BD0002002030B583B092
:10083000040006220021684607F075FE114B1B6874
:10084000002B1CD05878DD6806236A460221A84791
:100850006B4601229A5612021B78134323806B4683
:1008600003229A5612029B78134363806B4605223B
:100870009A5612021B791343A38003B030BD7F2028
:100880004042FAE70002002070B582B006006B46D5
:100890000022DA71134B1B68002B1CD004281DD8D2
:1008A0006A46D41D5878DD68012322000F21A8472D
:1008B0000500207807239843334018432070094BE4
:1008C0001B6858789E68012322000F21B047401909
:1008D00040B202B070BD7F204042FAE702204042A1
:1008E000F7E7C0460002002070B582B005006B46F5
:1008F0000022DA710A4B1B68002B0DD06A46D41D0A
:100900005878DE68012322001021B047227807239F
:1009100013402B7002B070BD7F204042FAE7C04602
:1009200000020020F0B5C64600B582B08046002324
:100930006A46D3716A469371224B1B68002B3DD0E7
:100940006A46D61D5878DD68012332001121A84778
:1009500007001C4B1B686A46951D5878DC6801230C
:100960002A001221A047C01940B233785B09052242
:100970001A4029784C0608D4C909002A0CD100294C
:1009800006D100234246137002E00423424613704E
:1009900002B004BC9046F0BDDB0707D4042AF7D1AF
:1009A000002907D0032342461370F1E70123424692
:1009B0001370EDE7022342461370E9E77F204042BF
:1009C000E6E7C0460002002070B582B005006B4625
:1009D0000022DA710A4B1B68002B0DD06A46D41D29
:1009E0005878DE68012322001221B04722780723BD
:1009F00013402B7002B070BD7F204042FAE7C04622
:100A00000002002070B582B006000C006B46002288
:100A1000DA71314B1B68002B57D05878DD68012301
:100A20006A4607321221A8470500072E50D8072C26
:100A300045D8A400294B1B599F46311C002E00D1DC
:100A40000121C9B26B46DA1D1378072083430140A8
:100A50000B431370204B1B6858789C6801231221AC
:100A6000A047401940B202B070BD311C002E00D129
:100A70000121C9B2E6E7311C002E00D10121C9B223
:100A8000E0E7311C012E00D80221C9B2DAE7311C9F
:100A9000032E00D80421C9B2D4E7311C052E00D89A
:100AA0000621C9B2CEE7311C032E00D80421C9B2F9
:100AB000C8E7311C052E00D80621C9B2C2E7311C97
:100AC000002E00D10121C9B2BCE77F204042CAE715
:100AD00002204042C7E7C04600020020A4A7000051
:100AE000F0B583B0070000236A46D3716A4693715C
:100AF0006A4653711D4B1B68002B30D0072831D834
:100B00006B469C1D2000FFF70DFF2378042B1CD0A3
:100B1000164E33686A46D41D5878DD6801232200DA
:100B20001021A84705002078072398430721394062
:100B300008432070336858789E68012322001021F2
:100B4000B047401940B203B0F0BD6B465C1D2000B9
:100B5000FFF73AFF20783900FFF754FFD8E77F20EE
:100B60004042F0E702204042EDE7C046000200208C
:100B7000F0B5C64600B582B0060000236A46D371C0
:100B80006A4693716A46537101AA13706A46D3701C
:100B9000874B1B68002B00D104E1042800D904E135
:100BA0005878DC6801236A4607321121A047040007
:100BB0007F4B1B685878DD6801236A460632122194
:100BC000A8470419E4B2042E03D8B600794B9B5908
:100BD0009F4660B202B004BC9046F0BD6B46DA1D81
:100BE00011785F230B4013706B4698797F21014089
:100BF00099716B465F1D3F2303403B706C4E336819
:100C000058789D6801231121A847050033681B69A6
:100C100001209847336858789E6801233A001221D2
:100C2000B0472818201840B2D4E76B46DA1D117877
:100C30005F230B4020210B4313706B4698797F2173
:100C4000014099716B465E1D3F2303403370584D40
:100C50002B6858789F6801231121B84707002B683B
:100C60001B69012098472B6858789D680123320042
:100C70001221A8473818201840B2ABE76B46DA1D9E
:100C800011785F231940DF3B0B4313706B46987953
:100C90007F21014099716B465F1D3F2303403B70EC
:100CA000434D2B6858789E6801231121B0470600F8
:100CB0002B681B69012098472B6858789D68012391
:100CC0003A001221A8473018201840B282E76B463C
:100CD000DA1D13785F21194080235B42194311709C
:100CE0006946881D89791D000D4305706846461DBB
:100CF000402081430B4333702D4F3B6858789D68EB
:100D000001231121A84705003B681B690120984772
:100D10003B6858789F68012332001221B847281891
:100D2000201840B256E76B46DE1C3000FFF7DCFDB2
:100D300001AD2800FFF748FE31782878FFF762FE02
:100D40001B4E33686A46951D5878DF6801232A00D8
:100D50001221B84707006B46DA1D11785F230B405C
:100D6000137029787F230B402B7069464D1D40215D
:100D70000B432B70336858789B68984601231121E8
:100D8000C04738182418E4B233681B69012098471B
:100D9000336858789E6801232A001221B047201832
:100DA00040B217E77F20404214E70220404211E79B
:100DB00000020020C4A70000F0B583B000921D001F
:100DC0006B46D97101221649164802F0B9FC642419
:100DD000144E01226B46D91D300002F029FD002877
:100DE00005D0013CA4B2002CF3D1643400E06424AB
:100DF000ADB20C4E2A000099300002F019FD071E1A
:100E000003D0013CA4B2002CF4D1002204490548CF
:100E100002F096FC3800471EB841404203B0F0BDD6
:100E20003C030020CC020020F0B583B000921D00EE
:100E300080235B4219436B46D9710122164917483A
:100E400002F07EFC6424154E01226B46D91D300051
:100E500002F0EEFC002805D0013CA4B2002CF3D136
:100E6000643400E06424ADB20C4E00232A000099E3
:100E7000300002F0C9FB071E03D0013CA4B2002CD5
:100E8000F3D100220449054802F05AFC3800471EFD
:100E9000B841404203B0F0BD3C030020CC0200202A
:100EA00010B500F06FFD10BD10B51221074800F01D
:100EB000D1FC0748074B4360074B8360074BC36077
:100EC00000F036FA002000F011F910BD3C030020BC
:100ED0001C030020B90D0000290E0000A10E000027
:100EE00070B582B005006B460022DA71114B1B68A9
:100EF000002B1BD06A46D41D58789E68012322001F
:100F00004C21B0470600207838239843ED001D405F
:100F100028432070074B1B6858785D680123220026
:100F20004C21A847801940B202B070BD7F204042DA
:100F3000FAE7C04604020020F0B583B001AD0023FB
:100F40002B706B70444E33681A00103258789C68CE
:100F500001235D21A047040033681A00113258783C
:100F60009F6801235E21B8470419E4B233681A0070
:100F7000123258789F6801236421B8472418E4B2DC
:100F800033681A00133258789F6801236521B847E7
:100F90002418E4B233681A001C3258789F68012381
:100FA0007121B8472418E4B233681A001D3258780A
:100FB0009F6801237021B8472418E4B23368587839
:100FC0009F6802232A006A21B8472418E4B23368D4
:100FD000697809022A780A439A8258789F6802231E
:100FE0002A006821B8472418E4B233680121695601
:100FF00009022A780A43DA8258789F6802232A0075
:101000006E21B8472418E4B23368012169560902F9
:101010002A780A431A8358789F6802232A0062219B
:10102000B8472418E4B233680121695609022A78C6
:101030000A435A8358789F6802232A006C21B847D4
:1010400031686A787F2313401B022A781343CB83CD
:10105000201840B203B0F0BD0402002070B582B089
:1010600005006B460022DA710A4B1B68002B0DD07D
:101070006A46D41D58789E68012322004B21B04750
:101080002278012313402B7002B070BD7F204042B4
:10109000FAE7C0460402002070B582B006006B4635
:1010A0000022DA71104B1B68002B1AD06A46D41D3F
:1010B00058789D68012322004B21A847050020781D
:1010C00001239843334018432070074B1B6858781E
:1010D0005E68012322004B21B047401940B202B0A4
:1010E00070BD7F204042FAE704020020F0B583B0D3
:1010F0006B460022DA71524B1B68002B00D19BE03B
:1011000001283CD0002806D0022834D0032865D01E
:101110000220404222E06B46DD1D2800FFF79EFFC3
:10112000060004002B78002B1AD0454E33686A461F
:10113000D51D58789F6801232A004C21B84704190F
:10114000E4B22B78062293432B70336858785E689C
:1011500001232A004C21B047201840B203B0F0BD53
:101160000120FFF799FF861974B2354B1B68DB68C5
:1011700002209847D9E70020FFF78EFFEEE76B4685
:10118000DD1D2800FFF76AFF04002B78002B1BD021
:101190002B4E33686A46D51D58789F6801232A0074
:1011A0004C21B8470419E4B22B780622934302225B
:1011B00013432B70336858785E6801232A004C2152
:1011C000B047201840B2C9E70120FFF765FF0400CF
:1011D0001B4B1B68DB6802209847D9E76B46DC1D78
:1011E0002000FFF73BFF2378002B1BD00124644233
:1011F000134E33686A46D51D58789F6801232A002C
:101200004C21B8470419E4B22B78062213432B7003
:10121000336858785E6801232A004C21B0472018B3
:1012200040B29BE70120FFF737FF0400044B1B6827
:10123000DB6802209847DBE77F2040428EE7C0460C
:101240000402002010B582B0084B1B68002B09D0A7
:101250006A460732107058785C6801235121A04714
:1012600002B010BD7F204042FAE7C04604020020D1
:1012700010B582B0084B1B68002B09D06A460732B4
:10128000107058785C6801235221A04702B010BD4D
:101290007F204042FAE7C0460402002010B5022831
:1012A00024D012D9032830D004283DD10020FFF7E4
:1012B00017FE04000720FFF7C5FF0419E4B21A2047
:1012C000FFF7D6FF201840B20FE001282CD10020F4
:1012D000FFF706FE04000120FFF7B4FF0419E4B293
:1012E0000220FFF7C5FF201840B210BD0020FFF715
:1012F000F7FD04000420FFF7A5FF0419E4B20E2057
:10130000FFF7B6FF201840B2EFE70520FFF7E8FD32
:1013100004001720FFF796FF0419E4B25220FFF7EC
:10132000A7FF201840B2E0E702204042DDE70000BE
:10133000F0B583B001AD00232B706B70104E3060A0
:101340000120FFF7A9FE04003368DB6802209847FC
:10135000336858789F6801232A004021B847041950
:10136000E4B22A7833681A70FFF7E6FD2418E4B275
:101370000220FFF793FF201840B203B0F0BDC04633
:1013800004020020F8B506000C00374B984200D14B
:1013900068E00025002915D0344B1B68D88B05F078
:1013A0005FFA8D21C90504F01BFF051C200005F024
:1013B0000DFA011C281C04F03BFD8D21C90505F028
:1013C00041F8051C294B1C681D20205605F0FEF92C
:1013D000071C291C281C04F003FFC621890504F002
:1013E000FFFE011C381C04F0FBFE071C207F05F0EB
:1013F00037FA291C04F0F4FEE221890504F0F0FE1E
:10140000011C381C04F07AFB8721C90504F076FB27
:10141000051C1220205605F0D9F9154904F06EFB81
:10142000011C281C04F0DCFE051C300005F0CEF980
:10143000011C281C04F0D4FEE421890504F0D0FE30
:10144000051C1020205605F0C1F98221C90504F0C1
:10145000C7FE011C281C04F051FBF621890504F08D
:10146000BFFEF8BD0020FCE700F0FFFF04020020F3
:1014700000002043F8B506000C00374B984200D11D
:1014800068E00025002915D0344B1B68D88B05F087
:10149000E7F98D21C90504F0A3FE051C200005F025
:1014A00095F9011C281C04F0C3FC8D21C90504F02A
:1014B000C9FF051C294B1C681D20205605F086F924
:1014C000071C291C281C04F08BFEC621890504F08A
:1014D00087FE011C381C04F083FE071C207F05F0EA
:1014E000BFF9291C04F07CFEE221890504F078FE96
:1014F000011C381C04F002FB8721C90504F0FEFA28
:10150000051C1320205605F061F9154904F0F6FA80
:10151000011C281C04F064FE051C300005F056F97F
:10152000011C281C04F05CFEE421890504F058FE2F
:10153000051C1120205605F049F98221C90504F047
:101540004FFE011C281C04F0D9FAF621890504F08D
:1015500047FEF8BD0020FCE700F0FFFF040200207A
:1015600000002043F0B583B00500304B98425BD0BB
:101570002F4B1F68080005F073F9041C280005F0C4
:1015800025F9051C1A23F85E05F020F9011C281C1A
:1015900004F058FF9021C90504F022FE051CF88BC9
:1015A00005F05EF9011C201C04F04CFF061C1823FA
:1015B000F85E05F00BF9011C301C04F011FE011C53
:1015C000281C04F03FFF06F087FE00900191B88AC6
:1015D00005F046F9211C04F003FE06F07DFE002212
:1015E000FC239B0506F0A2F804000D001623F85E0C
:1015F00005F0ECF806F070FE02000B002000290058
:1016000005F06EF900220B4B06F090F802000B007B
:101610000098019905F080FC0022074B06F086F83F
:1016200006F0ACFE03B0F0BD0020FBE700C0FFFFFA
:1016300004020020000010400000B03FF0B585B06B
:1016400007000822002102A806F06DFF1E4B1B6850
:10165000002B35D058789C68082302AA4221A04765
:10166000019002AB1B78DB0802AA13700120105610
:10167000400118439378DB08937003269657760150
:101680001E4313795B08137105255557ED011D4362
:1016900093799B089371D479A4011C432100FFF72F
:1016A00071FE386021003000FFF7E4FE7860210011
:1016B0002800FFF757FFB860BC81019805B0F0BD66
:1016C0007F235B420193F8E70402002000B587B056
:1016D00001A8002303700022438083808271C271BD
:1016E0000133437007220272383242810373C3818F
:1016F0000533038202F03EFD072002F08FFD002833
:1017000000D0FEE707B000BD00B583B001A80023FC
:101710004370013383700133037002F00DFD03B099
:1017200000BD000000B585B00A4A53681E218B43F6
:101730001A390B43536001A900234B700B724B7293
:1017400007330B70053B4B60002002F001FE05B033
:1017500000BDC0460040004100B585B001A900238E
:101760004B7006220A700B724B7204334B600120DF
:1017700002F0EEFD012002F039FE05B000BD00B51B
:1017800085B001A901234B6000234B7006220A702B
:101790000B724B72022002F0DBFD022002F026FEEB
:1017A00005B000BD10B5FFF791FFFFF7ADFFFFF7E4
:1017B000B9FFFFF7D1FFFFF7E2FF10BD70B58EB0A4
:1017C00001AC01252570002302930393C0229203EC
:1017D000049223746374A5742022A354183A002140
:1017E00007A806F0A0FE124B6361124B6362124B16
:1017F000A36201235B42E362104B2363104E22007D
:101800001049300001F00EFE3468200001F0C4FDE4
:101810001F23184085400C4B1D603268138A1BB291
:10182000002BFBDB23680222134323600EB070BD44
:1018300080969800030010000300110003001300BD
:10184000CC0200200014004200E100E010B5FFF7D8
:10185000B5FF10BD10B582B0040008002170002350
:101860006370A37001A901224A708B700A7001F0A5
:1018700068FB2278D1090023002904D15309DB0138
:1018800004498C4663441F21114001228A409A6119
:1018900002B010BD00440041014B01221A70704794
:1018A0007402002010B50449044803F01BF8044BEF
:1018B00001221A7010BDC046AF3CFFFF7C02002021
:1018C0000003002010B58EB001AA00239370002100
:1018D00093809171138151709172D17211739173D0
:1018E00051731174536193611177136253621385BD
:1018F000938501331370F433FF3353850B4C0C493C
:10190000200002F0C5FE2268D37B5BB2002BFBDB1C
:10191000138802210B431380044B1A68D37B5BB2FC
:10192000002BFBDB802353710EB010BD980200200A
:101930000030004210B50E4C02220E49200003F088
:1019400012F80D4B00221A70206802F081FE0B4B3A
:101950001B5C1F221A4001239340094A1360637ED7
:10196000102213436376236810225A7310BDC046B9
:10197000980200209918000074020020D8A70000E7
:1019800000E100E010B54201121A92001218920014
:101990000F4C0021200002F0BEFF2268D37B5BB217
:1019A000002BFBDB00231371D37B5BB2002BFBDB33
:1019B0004023537107490B78002BFCD0D37B5BB2DB
:1019C000002BFBDB80235371024B00221A7010BDE9
:1019D000980200207402002010B58EB001AA0021E8
:1019E000002391809371118153709372D37213739A
:1019F0009373537313745161916113771162516240
:101A0000918508239370073B1370094B9362094C2F
:101A10000949200002F03CFE2268D37B5BB2002B18
:101A2000FBDB138802210B4313800EB010BDC046B0
:101A3000AF3CFFFF7C0200200038004210B50E4C86
:101A400000220E49200002F08EFF0D4B00221A707A
:101A5000206802F0FDFD0B4B1A5C1F23134001228E
:101A600011009940084B1960637E01210B43637696
:101A700023685A7310BDC0467C020020A5180000E0
:101A800000030020D8A7000000E100E010B5FFF738
:101A900019FFFFF74FFFFFF79FFFFFF7CFFF10BDC5
:101AA000044B1A68D37B5BB2002BFBDB80235371A2
:101AB0007047C0467C02002010B5094C094920003F
:101AC00002F010FF2268D37B5BB2002BFBDB00230C
:101AD0001371D37B5BB2002BFBDB4023537110BD32
:101AE0007C020020AF3CFFFF014B01221A707047BF
:101AF0004103002010B50D4B1B880D4A1288580079
:101B00000C4942520A2A07D00133084A1380084977
:101B1000094802F0B0F810BD01335B0000225A52B0
:101B2000064B01211970014B1A80F0E76A0300206F
:101B3000680300206C0300204403002040030020C1
:101B400030B58DB08023DB05009300230193FF2285
:101B500069460A818B72CB7201220A754A758B75B0
:101B6000CB7506930B77E1235B02049302234B773B
:101B700080235B030393134B0893134B09930123B7
:101B80005B420A930B93114D114C6A4629002000C9
:101B900002F00EF90028F8D10D4D2C68200001F05C
:101BA000FBFB1F2318401E3B83400A4A13602A6830
:101BB000138A1BB2002BFBDB236802221343236032
:101BC0000DB030BD0200300002003100001C0042A8
:101BD0004403002000E100E070B50D4C01220D49E6
:101BE000200002F03DF80C4B00221A702125635DA5
:101BF00002221343635500220849200002F030F806
:101C0000074B01221A70635D1343635570BDC046D4
:101C100044030020F51A000040030020E91A0000E8
:101C20004103002010B5074C00232380064A13808F
:101C3000FFF786FFFFF7D0FF2100044802F01BF8F2
:101C400010BDC046680300206A0300204403002042
:101C500010B5FEF7C3FA0820FEF7ACFB0E20FEF726
:101C60000FFC0020FEF7A8FCFEF7B0FD0020FEF7F9
:101C70000BFE0220FEF734FF0020FEF779FFFFF78E
:101C800013F90020FFF72CF90220FFF707FB0020D3
:101C9000FFF72CFA10BD000070B50400B94D0D21FE
:101CA000280002F097F90A21280002F093F9B64BB8
:101CB0001A780A2A5CD89300B44AD3589F46002C5D
:101CC00056D1FFF7EDFE0D22B149AE4802F09AF968
:101CD000AD4B01221A704BE0012C0ED0AA2C17D06C
:101CE000BB2C1ED0CC2C25D00E22AA49A54802F030
:101CF00089F9A54B01221A703AE00E22A649A148A3
:101D000002F080F9FFF7D8FE9F4B00221A702FE0F7
:101D10000C22A2499B4802F075F99B4B02221A70D3
:101D200026E00C229E49974802F06CF9964B05225A
:101D30001A701DE00D229B49924802F063F9924B04
:101D400008221A7014E0E31E974A134206D00423B7
:101D500022009A43082A01D0FF2C0AD1934B1C7011
:101D600009229349874802F04DF9874B03221A70E4
:101D700070BD0E228749834802F044F9824B01224C
:101D80001A70F5E72300083B9BB2072B01D9FF2C03
:101D90000AD1884B1C700B2287497A4802F032F92D
:101DA000794B04221A70E3E70E227A49754802F053
:101DB00029F9754B01221A70DAE7052C01D9FF2C9D
:101DC0001ED17E4B1C70794B1878FF2812D1794BAD
:101DD0001878FF2811D1794B1878FF2801D0FEF729
:101DE000EBFB0E227649674802F00CF9664B0122A4
:101DF0001A70BDE7FEF7DEFAE9E7FEF741FBEAE716
:101E00000E2264495F4802F0FDF85F4B01221A7010
:101E1000AEE7631E9BB2042B01D9FF2C0AD1694B9C
:101E20001C7009226849574802F0ECF8564B06220C
:101E30001A709DE70E225749524802F0E3F8524BC0
:101E400001221A7094E7072C01D9FF2C0AD15F4BAD
:101E50001C700B225E494B4802F0D4F84A4B072213
:101E60001A7085E70E224B49464802F0CBF8464BE4
:101E700001221A707CE7042C01D9FF2C1ED1554B8E
:101E80001C70504B1878FF2812D1504B1878FF283F
:101E900011D1504B1878FF2801D0FEF769FE0E22B1
:101EA0004D49384802F0AEF8374B01221A705FE70F
:101EB000FEF7EAFCE9E7FEF713FEEAE70E223549F2
:101EC000304802F09FF8304B01221A7050E7002C86
:101ED0000AD0424B1C70092241492A4802F092F86C
:101EE000294B09221A7043E70E222A49254802F09D
:101EF00089F8254B01221A703AE7072C01D9FF2CEB
:101F00000AD1384B1C700B2237491E4802F07AF870
:101F10001D4B0A221A702BE70E221E49194802F0A7
:101F200071F8194B01221A7022E7032C01D9FF2CFA
:101F30001ED12E4B1C702B4B1878FF2812D1274B2B
:101F40001878FF2811D1294B1878FF2801D0FFF706
:101F5000CDF80E2226490B4802F054F80A4B012214
:101F60001A7005E7FEF7BCFFE9E7FFF797F9EAE724
:101F70000E220849034802F045F8034B01221A706B
:101F8000F6E6C04644030020EC030020E0A7000072
:101F90000CA800005CA800001CA800002CA80000F1
:101FA0003CA800004CA80000FDFF00000A02002031
:101FB0006CA800000802002078A800000902002098
:101FC00084A800000D02002094A800000B0200204D
:101FD000A0A800000C020020ACA800001002002005
:101FE000BCA800000E020020C8A800000F020020BC
:101FF000D4A8000010B543100A4CE41AFC2189054E
:1020000004F0EEF8211C04F0EBF8211C04F0E8F8D1
:10201000011CFF20800504F015FA211C04F0E0F8F3
:1020200010BDC046DF59375FF0B5DE4657464E4615
:102030004546E0B589B00090019102921C1C002138
:10204000181C03F003FD00280CD00021129803F0A7
:10205000FDFC002806D00021139803F0F7FC0028AF
:1020600000D0E9E0211C201C04F0BAF8051C1299EC
:10207000081C04F0B5F8011C281C03F03FFD051CEA
:102080001399081C04F0ACF8011C281C03F036FD61
:10209000FFF7B0FF051C011C201C04F0A1F80590FF
:1020A000291C129804F09CF80390291C139804F042
:1020B00097F80490D44C2068D44D2968D44E3368E6
:1020C0009A46D44F3B68994604F08AF806904946F0
:1020D000504604F085F8011C069804F0B3F9069008
:1020E000306821683F682C6804F07AF80790211C5A
:1020F000381C04F075F8011C079803F0FFFC041C61
:10210000306831682E682F6804F06AF8FC21890570
:1021100004F098F9051C391C301C04F061F8011C0E
:10212000281C03F0EBFC051C011C039804F058F874
:10213000061C211C049F381C04F052F8011C301CA2
:1021400004F080F90490069E311C381C04F048F815
:10215000071C291C059D281C04F042F8011C381C92
:1021600004F070F90590211C281C04F039F8041CB7
:10217000311C039804F034F8011C201C04F062F9AF
:102180000390A54B1868002103F07AFC002800D1C9
:1021900031E1A14F3868A14D2C68049904F020F872
:1021A0009F4904F01DF8211C03F0A8FC2860386842
:1021B0009C4C2668059904F013F8994904F010F82E
:1021C000311C03F09BFC20603868974F3E680399F0
:1021D00004F006F8924904F003F8311C03F08EFC79
:1021E00038602968009803F089FC00902168019804
:1021F00003F084FC01903968029803F07FFC0290A0
:102200008A4F3868049903F0EBFF011C009803F033
:1022100075FC00903868059903F0E2FF011C0198F5
:1022200003F06CFC01903868039903F0D9FF011C9E
:10223000029803F063FC02907D49009803F0D0FF00
:1022400000907B49019803F0CBFF019078490298F8
:1022500003F0C6FF02906E4B9A461B6803936A4ACE
:102260009146126890466B4D2A680492674C276825
:1022700051460E688021090641440800009903F088
:10228000AFFF05900499019803F0AAFF011C05987F
:1022900004F0D8F805900299381C03F0A1FF011C46
:1022A000059804F0CFF8311C03F028FC5146086073
:1022B000276849460E680399009803F091FF05903E
:1022C0000499029803F08CFF011C059803F016FC9A
:1022D00005900199381C03F083FF011C059804F058
:1022E000B1F8311C03F00AFC4E46306027682E68B6
:1022F0000399019803F074FF05904146029803F09A
:102300006FFF011C059804F09DF805900099381C9A
:1023100003F066FF011C059803F0F0FB311C03F08D
:10232000EDFB286026680399029803F059FF071C0B
:102330004146019803F054FF011C381C03F0DEFBFA
:10234000071C0499009803F04BFF011C381C04F093
:1023500079F8311C03F0D2FB2060534618681968E5
:102360004B461B6800934A46126893462A6890467B
:102370002A6801922668276803F032FF02905946C6
:10238000009803F02DFF011C029803F0B7FB0090AA
:102390000199404603F024FF011C009803F0AEFBB6
:1023A0000090391C301C03F01BFF011C009803F047
:1023B000A5FBFFF71FFE061C53461868311C03F0EF
:1023C0000FFF534618604B461868311C03F008FF96
:1023D0004B4618602868311C03F002FF2860206813
:1023E000311C03F0FDFE206009B03CBC90469946CC
:1023F000A246AB46F0BD0023084A1360094A1360A9
:10240000094A1360FCE6C046200200202802002092
:1024100004000020240200202C02002014020020CE
:10242000CB3D0D3C180200201C02002008000020BB
:10243000CB3D8D3BF0B5DE4657464E464546E0B5B2
:1024400097B00490059106921C1C0021229803F07D
:10245000FDFA00280CD00021239803F0F7FA002899
:1024600006D00021249803F0F1FA002800D01AE3E6
:102470000021201C03F0EAFA00280CD0002120984B
:1024800003F0E4FA002806D00021219803F0DEFAD8
:10249000002800D011E2211C201C03F0A1FE051C25
:1024A0002099081C03F09CFE011C281C03F026FB4D
:1024B000051C2199081C03F093FE011C281C03F045
:1024C0001DFBFFF797FD051C011C201C03F088FE77
:1024D0000A90291C209803F083FE0B90291C219858
:1024E00003F07EFE0C902299081C03F079FE041C78
:1024F0002399081C03F074FE011C201C03F0FEFA53
:10250000041C2499081C03F06BFE011C201C03F022
:10251000F5FAFFF76FFD041C011C229803F060FE22
:102520000790211C239803F05BFE0290211C249845
:1025300003F056FE0390FD4C276823689B462068F5
:10254000FB4E316803F04CFE09902068F94D296874
:1025500003F046FE08902068F74C216803F040FE27
:102560000D9033689846336899463068296803F0BF
:1025700037FE0E903068216803F032FE061C286892
:10258000296803F02DFE0F902868216803F028FECB
:1025900010902068216803F023FE041C0F99FC2092
:1025A000800503F04FFF1194211C03F04BFF041C26
:1025B0000D990E9803F046FF12901396311C08985F
:1025C00003F09CFA051C079E311C1494201C03F098
:1025D00007FE041C0299129803F002FE011C201C45
:1025E00003F08CFA041C03991595281C03F0F8FDE0
:1025F000011C201C03F082FA011C03F07FFA051C69
:102600004946404603F0ECFD011CFC20800503F028
:1026100019FF041C0E990D9803F070FA0796311CEF
:1026200003F0DEFD061C1199201C03F00BFF02993C
:1026300003F0D6FD011C301C03F060FA061C09995A
:10264000109803F0FFFE039903F0CAFD011C301C33
:1026500003F054FA011C03F051FA061C291C281C33
:1026600003F0BEFD051C311C301C03F0B9FD011C3C
:10267000281C03F043FA05F02FFE02F09FFA05F044
:102680007DFE051C0899139803F0DCFE0890109954
:10269000099803F033FA09900F99201C03F0D2FE39
:1026A000061C0799089803F09BFD041C02990998E1
:1026B00003F096FD011C201C03F020FA041C039972
:1026C000301C03F08DFD011C201C03F017FA011CC7
:1026D00003F014FA041C5946381C03F081FDFC2158
:1026E000890503F0AFFE119903F008FA0D90291C3B
:1026F000149803F075FD071C211C089803F070FD69
:10270000011C381C03F0FAF90E90291C129803F0F2
:1027100067FD071C211C099803F062FD011C381C91
:1027200003F0ECF9071C291C159803F059FD051C52
:10273000211C301C03F054FD011C281C03F0DEF9A1
:10274000041C0D990B9803F04BFD051C0C9909987E
:1027500003F046FD011C281C03F074FE051C211C1F
:10276000029803F03DFD061C391C039803F038FD68
:10277000011C301C03F066FE011C281C03F0BEF98E
:102780000F900C99089803F02BFD061C0D990A98E0
:1027900003F026FD011C301C03F054FE061C0E99AC
:1027A000039803F01DFD051C211C079C201C03F051
:1027B00017FD011C281C03F045FE011C301C03F012
:1027C0009DF903900A99099803F00AFD061C0B99DC
:1027D000089803F005FD011C301C03F033FE061CB5
:1027E000391C201C03F0FCFC071C0E99029803F016
:1027F000F7FC011C381C03F025FE011C301C03F003
:102800007DF902904D4B1868002103F039F900283A
:1028100000D153E1494F3868494D2C680F9903F0B6
:10282000DFFC484903F0DCFC211C03F067F9286059
:102830003868454C2668039903F0D2FC414903F0FF
:10284000CFFC311C03F05AF9206038683F4F3E68D6
:10285000029903F0C5FC3B4903F0C2FC311C03F0B4
:102860004DF938602968049803F048F9049021680C
:10287000059803F043F905903968069803F03EF98E
:102880000690334F38680F9903F0AAFC011C049896
:1028900003F034F904903868039903F0A1FC011C9B
:1028A000059803F02BF905903868029903F098FC1D
:1028B000011C069803F022F906902649049803F0BB
:1028C0008FFC02902349059803F08AFC039021496C
:1028D000069803F085FC0490144B9A461B680593F8
:1028E000134A914612689046124D2A680692124C7D
:1028F000276851460E688021090641440800029964
:1029000003F06EFC07900699039803F069FC011C24
:10291000079803F097FD07900499381C03F060FCBA
:10292000011C079803F08EFD311C15E00400002007
:102930002002002024020020280200202C02002077
:1029400014020020CB3D0D3C180200201C02002088
:1029500008000020CB3D8D3B03F0D0F851460860C5
:10296000276849460E680599029803F039FC0790DC
:102970000699049803F034FC011C079803F0BEF894
:1029800007900399381C03F02BFC011C079803F0F7
:1029900059FD311C03F0B2F84E46306027682E68AE
:1029A0000599039803F01CFC07904146049803F036
:1029B00017FC011C079803F045FD07900299381C8D
:1029C00003F00EFC011C079803F098F8311C03F08B
:1029D00095F8286026680599049803F001FC071C07
:1029E0004146039803F0FCFB011C381C03F086F8F9
:1029F000071C0699029803F0F3FB011C381C03F036
:102A000021FD311C03F07AF82060534618681968DC
:102A10004B461B6802934A46126893462A689046C2
:102A20002A6803922668276803F0DAFB0490594667
:102A3000029803F0D5FB011C049803F05FF80290A4
:102A40000399404603F0CCFB011C029803F056F8B2
:102A50000290391C301C03F0C3FB011C029803F0E8
:102A60004DF8FFF7C7FA061C53461868311C03F0EF
:102A7000B7FB534618604B461868311C03F0B0FB97
:102A80004B4618602868311C03F0AAFB28602068B8
:102A9000311C03F0A5FB206017B03CBC9046994662
:102AA000A246AB46F0BD219B0193209B0093231CC3
:102AB000069A05990498FFF7B7FAEDE70023034A51
:102AC0001360034A1360034A1360DAE6140200201D
:102AD000180200201C020020F0B5DE4657464E4684
:102AE0004546E0B597B00400784A13680193784BE7
:102AF00019680291774908680390774F3D680695F9
:102B000008680E68B4463E68B2463E68B34616682A
:102B1000B0461668B1461E6804961D6807953E6863
:102B200008961D6809950E6815680A953D680B950D
:102B300015680C950D680D951D680E950D680F951F
:102B4000096810913D6811953F68129717681397AF
:102B5000126814921F681B681593614603F040FBCE
:102B6000051C5946504603F03BFB011C281C03F092
:102B700069FC051C4946404603F032FB011C281C39
:102B800003F060FC051C0799049803F029FB011C65
:102B9000281C02F0B3FF05F09FFB04900591019BF8
:102BA000191C181C02F0AAFF029903F019FB051C5E
:102BB000039B191C181C02F0A1FF069903F010FBDF
:102BC000011C281C02F09AFF05F086FB049A059B65
:102BD00001F0F0FF0022414B04F0A8FD404A414BB8
:102BE00004F09AF905F0CAFB2060C0210906089894
:102BF00003F0F6FA099903F0F3FA051C311C301CB6
:102C000002F07CFF0A9903F0EBFA011C281C02F089
:102C100075FF05F061FB01F06FFF00222F4B04F000
:102C200085FD2F4A2F4B04F077F905F0A7FB606074
:102C300010990F9803F0D4FA051C1299119803F01B
:102C4000CFFA011C281C02F059FF051C1499139897
:102C500003F0C6FA011C281C03F0F4FB051C1599AF
:102C6000381C03F0BDFA011C281C03F0EBFB05F037
:102C700033FB06000F000B98011C02F03FFF0C997C
:102C800003F0AEFA051C0D98011C02F037FF0E99F7
:102C900003F0A6FA011C281C02F030FF05F01CFB13
:102CA00032003B0001F086FF00220C4B04F03EFD99
:102CB0000B4A0C4B04F030F905F060FBA06017B034
:102CC0003CBC90469946A246AB46F0BD240200208B
:102CD000280200200400002020020020008066401E
:102CE000182D4454FB210940F0B5DE4657464E46A8
:102CF0004546E0B5BBB06D4B00221A7001F09BFC5D
:102D0000FEF750FDFEF7A2FDFEF7C0FEFEF78AFFBC
:102D1000674B01221A70BFF35F8F62B6FEF798FF10
:102D2000644D654B99460027BDE0644B1B78002B32
:102D300008D12B78002BF8D04B461888FEF7ACFF53
:102D40002770F2E738AE3000FDF7AAFA35AC200064
:102D5000FDF76CFD31A8FEF771FC0023F05E03F077
:102D600035FDEA21890503F03BFA10900223F05E5D
:102D700003F02CFDEA21890503F032FA12900422B7
:102D8000B05E03F023FDEA21890503F029FA061C51
:102D90000022A05E03F01AFD494903F049F81390A0
:102DA0000222A05E03F012FD454903F041F81490A1
:102DB0000422A05E03F00AFD414903F039F8021C29
:102DC0003299884631998A4633998B460023049379
:102DD000039302930196129B0093109B15901499F4
:102DE0001398FFF727FB19A90800FFF775FE51227A
:102DF00039001CAC200005F096FB1A9805F06CFA1F
:102E0000169017911B9805F067FA02900391199894
:102E100005F062FA00900191169A179B29491CACA3
:102E2000200005F0E7FF284C51221CA9200001F0EA
:102E3000E9F8109805F050FA10901191159805F0E6
:102E40004BFA0E900F91149805F046FA0C900D91E4
:102E5000139805F041FA0A900B91584605F03CFA98
:102E600008900991504605F037FA069007914046C0
:102E700005F032FA04900591301C05F02DFA02900D
:102E80000391129805F028FA00900191109A119B75
:102E90000E491CA805F0AEFF51221CA9200001F02C
:102EA000B1F8064B1F70034C43E7C046EC0300200B
:102EB0000C000020400300206C03002000030020D1
:102EC00068118341E4A8000044030020F8A8000032
:102ED0000C4B1B68002B06D1EFF31083002B07D09F
:102EE000094B00221A70074A1368013313607047B8
:102EF00072B6BFF35F8F054B00221A70024B01328E
:102F00001A70F0E730020020340200200C0000208C
:102F1000084B1A68013A1A601B68002B09D1064B4E
:102F20001B78002B05D0054B01221A70BFF35F8F71
:102F300062B6704730020020340200200C000020EE
:102F4000704700B583B001AB80221A700A785A70BE
:102F50004A789A708A78DA70190001F055FB03B04C
:102F600000BD10B5490881420CD3002400E01C00CC
:102F7000091A631C9BB28842F9D9FF2C04D814802B
:102F8000002010BD4020FCE74020FAE7F0B5DE4607
:102F900057464E464546E0B589B00C00059212AA48
:102FA000117802004A43A24200D9CCE0002B59D14B
:102FB00002000800002102F077FD8146260000276C
:102FC0000023002400930194002200233F212020AD
:102FD00082461F388446029603970C00C84612E0CA
:102FE0005146091B6546CD4013E002980399121A19
:102FF0008B414846009E019F304339002943009091
:103000000191013C1BD3202149426118E8D4654657
:103010008D406146A140894692185B41100019001D
:103020004646354203D06646064332000B000298FE
:1030300003999942E5D8D8D19042E2D8D5E700204B
:103040000121009B019CC01AA141030C0A041A43F0
:10305000059B1A80002009B03CBC90469946A246C8
:10306000AB46F0BD0022012BF2D1630F0493E300C5
:1030700098460A000023002102F016FD04000D000E
:1030800000239C46069320339B4601266346079304
:1030900046E05946C91B3000C840824610E00098FF
:1030A0000199121A8B410299484601430291013F4E
:1030B00025D3202149427918EBD43000884082463C
:1030C0003100B940894692185B411000190044460E
:1030D0004D462C40A4465446049D2C40A2466446CE
:1030E00055462C4303D03400044322000B000098C3
:1030F00001999942DBD8D2D19042D8D8CFE7009C31
:10310000019D029B079A9B1ADB0810498B4212D93A
:10311000069B0133DBB2069301320792082B08D0DD
:1031200000230293002200233F21009401950F0009
:10313000BFE740208FE74020069A082A00D18AE79F
:1031400052031A4384E7402085E7C046FF1F000072
:1031500010B582B004000F4B1B78002B0BD0002958
:1031600009D10C4B5878001B4342584140421C2364
:1031700098431D300CE001A90C700C2001F0D0F92F
:103180000C2001F08FF9034B5C7001221A700020B3
:1031900002B010BD38020020434B984233D00AD908
:1031A000424B984251D0424B98425FD0414B98429B
:1031B0003AD000207047404B98420FD03F4B984286
:1031C000F7D101291BD0002963D0022919D0033976
:1031D0004842484140423A490840EBE701290AD0B9
:1031E000002954D0022908D00339484248414042BE
:1031F00034490840DEE73448DCE73448DAE734484D
:10320000D8E73448D6E701290AD0002943D002295B
:1032100008D003394842484140422F490840C9E795
:103220002E48C7E72E48C5E701290AD0002934D027
:10323000022908D003394842484140422949084000
:10324000B8E72948B6E72948B4E701290AD0002998
:1032500025D0022908D00339484248414042244938
:103260000840A7E72348A5E72348A3E701290AD098
:10327000002916D0022908D003394842484140426B
:103280001E49084096E71E4894E71E4892E71E48EC
:1032900090E703208EE71D488CE71D488AE71D480C
:1032A00088E71D4886E7C04600100042001800422B
:1032B000001C00420014004200080042000C0042C2
:1032C00003001F00030007000300050003000600C1
:1032D0000300010003001E0003000B0003000900AF
:1032E00003000A0003001300030011000300120092
:1032F00003000F0003000D0003000E00030019007F
:103300000300170003001800030004000300080076
:103310000300100003000C000300160030B587B056
:1033200069460C4B0A0032CB32C232CB32C2009B10
:1033300083420BD001239A0069465258824206D03C
:103340000133062BF7D1002007B030BD0023D8B2DF
:10335000FAE7C04638A9000070470000F0B50A4BF4
:103360001B78002B0CD1094F094E0A4D0024DE5169
:103370005A1914600433182BF9D1034B01221A7027
:103380008000024BC150F0BD3A0200203C020020F8
:1033900059330000F003002000B583B007236A46CC
:1033A000137001335370013393700133D3700133C1
:1033B000137101335371FFF7B1FF6B46185603B019
:1033C00000BD000010B5024B1B680020984710BDDF
:1033D0003C02002010B5024B5B680120984710BDED
:1033E0003C02002010B5024B9B680220984710BD9C
:1033F0003C02002010B5024BDB680320984710BD4B
:103400003C02002010B5024B1B690420984710BDF8
:103410003C02002010B5024B5B690520984710BDA7
:103420003C020020F0B5C64600B58AB004000D008D
:10343000160021600B689B0700D5DAE00B680520B9
:10344000DB0700D5CFE00800FFF768FF6A4A116A82
:10345000871C0123BB400B43136209A92027F35D9E
:103460000B700D30C3B20193180001F059F80198A8
:1034700001F018F8F05D0021FFF76AFE3378012BA8
:103480003ED03378002B03D12B68082213432B60E6
:103490000023E36023616361A361E36163622362EC
:1034A0000025A38523852E33E5540133E5540133EC
:1034B000E5542D3B237225712068FFF72FFF07008D
:1034C0004E49FFF74BFFBF004D4BFC502368984619
:1034D00004AB80221A705D707F3A9A70DD70337889
:1034E000002B02D104AB00229A70736A0593B36A71
:1034F0000693F36A0793336B0893002705AD0BE03F
:103500002B680C2213432B60BBE74046FFF744FEB9
:1035100007E00137042F0ED0F9B2BB00585900283C
:10352000F3D0431CF5D002AB1872000CC0B204A952
:1035300001F06AF8EDE733786371337CA371B37CF3
:10354000E37102AB0022DA803378012B14D0337898
:10355000002B26D17069328B43465B69F17E0904EA
:10356000B47E2143194343465961337F1100002B38
:1035700019D04021114316E02068FFF7CFFE0D302F
:10358000C0B200F0D9FF010002AB9A1D7069FFF7CD
:10359000E8FC00282BD102AB06331B78424693721D
:1035A000D5E7002100207368B2681343F268134323
:1035B0000343327C0A43717C002903D11149897885
:1035C000890701D580210B43B17C002902D08021DD
:1035D00089020A43414609680B4341460B604B6828
:1035E0001A434A6000200AB004BC9046F0BD172080
:1035F000F9E71C20F7E7C04600040040493A000004
:10360000F003002000200041F0B5DE4657464E464C
:103610004546E0B583B088463021415C052979D024
:10362000002A79D0C179002978D04179002903D1C5
:1036300001688C7BA4070ED4013A94B200250422C1
:1036400002218A4601398C46DB05DB0D99460423AD
:103650009B4646463AE002248C73EDE701688B7B7B
:1036600067463B42FBD08B7B3B4235D04B460B83BE
:103670002FE00768BB7B134206D12F4BB97B114269
:1036800002D1013B002BF9D1BB7B51460B4204D147
:10369000BB7B134220D1122743E00223BB730427D4
:1036A0003FE08379012B2AD0098BFF230B4001993E
:1036B00000293ED1691C89B273558779012F22D028
:1036C0000D00013CA4B21D4B9C4221D04379012B3B
:1036D000C4D04379002BCCD001688B7B1342FCD043
:1036E0008B7B13421CD00B8A002701971342D8D042
:1036F0000B8A5F463B430B821E230193D1E70B8B62
:10370000DB05DB0DD3E70235ADB21B0A7354D8E7F6
:10371000019F06E0052704E0172702E01C2700E0D0
:103720001027380003B03CBC90469946A246AB46F1
:10373000F0BD019FF5E7C04610270000FFFF000025
:1037400010B544791523012C6BD1002A59D04B7840
:10375000002B45D003689B7BDB072DD50A78D40965
:103760000023002C04D15309DB01304CA4466344F0
:103770001F2414400122A2405A6103689A7BD20799
:1037800001D58A781A83C2790023002A49D10268B8
:103790000421937B0B42FCD0937B5B0743D5138AB8
:1037A0005B0703D5138A04210B4313828379012B12
:1037B00013D0138B002334E00A78D10900230029A9
:1037C00004D15309DB0119498C4663441F21114080
:1037D00001228A409A61052323E0138B002320E015
:1037E0000A78D1090023002904D15309DB010F49CC
:1037F0008C4663441F21114001228A405A610023F4
:103800000FE00A78D1090023002904D15309DB0114
:1038100006498C4663441F21114001228A409A6167
:103820000023180010BD0023FBE7C0460044004100
:10383000F0B5DE4657464E464546E0B583B03023E8
:10384000C35C052B00D1E7E0002A00D1E6E0437914
:10385000002B03D103689C7BA40709D49046002465
:1038600001230225AC460235AB46013A92B227E06D
:1038700002249C73F2E70668B57B1D4206D16F4DAA
:10388000B77B1F4202D1013D002DF9D1B57B6746C0
:103890003D4204D1B57B1D4218D11223BFE0022363
:1038A000B3730233BBE00234A4B2CF5D3F0255468E
:1038B0003D4319E0551EADB2C679002E1BD12A003A
:1038C0005F4DAA4270D04579002DD4D00668B57BF3
:1038D0001D42FCD0671CBFB20D5DAA468579012D43
:1038E000E1D05446A5B23C00B77B1F42E2D0ED05C3
:1038F000ED0D3583DEE74579002D17D00668B57BE1
:103900005F463D42FBD0B57B3D420AD0358A3D4201
:1039100003D0358A04273D4335828579012D41D076
:10392000358B4546013DADB2A8469EE7454E019117
:1039300012E00234A4B24946019F795C0902009F5B
:103940000F4319E0013A92B20768BD7B59460D4218
:1039500019D1013E002E16D00568AF7B1F42F3D06F
:10396000671CB9B289460199095D009181790129E5
:10397000DFD069460F884C46A97B1942E2D0FF058B
:10398000FF0D2F83DEE70199BD7B6646354205D1E9
:10399000BD7B5E463542B1D1122340E00223BB73AA
:1039A00002333CE0358BBCE74379012B0BD0002B75
:1039B0003DD1C279002A32D004240425434646462C
:1039C000002B1BD12BE0016802228B7B1342FCD021
:1039D000002324E08B7B23422BD08B7B234209D016
:1039E0000B8A234202D00B8A2B430B828379012B53
:1039F00010D00B8B013EB6B2002E1CD001688B7B21
:103A00002342E7D10D4B8A7B2242E3D1013B002BBD
:103A1000F9D1DFE70B8BEDE7052300E01723180052
:103A200003B03CBC90469946A246AB46F0BD00238D
:103A3000F5E71223F3E70023F1E7C0461027000063
:103A4000FFFF000011270000F8B58000754BC45837
:103A500026682F23E75C2E22A25C1740B37B757B80
:103A60001D40EB072DD56379012B24D0002B28D1E5
:103A7000237A002B25D02168626A1378DBB2501CB0
:103A80006062A079012861D09BB2DB05DB0D0B835E
:103A9000A38D013B9BB2A385A38D9BB2002B10D1BC
:103AA00001333373237A012B0BD1E379002B08D137
:103AB0000233737305E0237A002B36D0237A002B70
:103AC000D9D16B0716D5338A5B0745D5237A012BED
:103AD0000BD030231E22E2542D3B2372023333736A
:103AE0003B0702D52000A3699847338B338A042211
:103AF00013433382AB0717D56379002B10D10733FB
:103B00003373053BB373013323720023A3852385ED
:103B100000223033E254FB0602D52000E3699847C7
:103B20006379012B00D166E0F8BD3F4B1B883383DE
:103B3000638D013B9BB26385638D9BB2002B01D1EA
:103B4000013333736379012BB8D08FE750780002CB
:103B500003430232626298E7237A012B25D023685F
:103B60001B8BDB05DB0DDAB2216A0A70226A511C5D
:103B70002162A179012931D0238D013B9BB223859C
:103B8000238D9BB2002BB5D130330022E2542C3B65
:103B90003373237A022B27D0237A002BAAD1BB07B9
:103BA000A8D5200023699847A4E723681B8B638D61
:103BB000013B9BB26385638D9BB2002B00D099E7DC
:103BC000043333732C330022E2542D3B2372FB0762
:103BD00000D48FE72000E36898478BE71B0A5370F7
:103BE000236A01332362C7E77B0700D482E7200002
:103BF000636998477EE7237A012B00D094E7E37945
:103C0000002B00D090E702333373013323722D333E
:103C10000022E254FB0700D486E7E36820009847BF
:103C200082E7C046F003002008040020F8B5040035
:103C30000D0016000768FFF74BF9A38B9BB2002B12
:103C40000AD1A683FFF764F9656122230522E254B5
:103C50001E3B7B730020F8BDFFF75AF90520FAE7F9
:103C6000931C9B0019502021012393401A00435CB0
:103C700013434354704710B50122FFF7D7FF10BD1F
:103C8000F8B58000494BC5582C68238A1BB2002B1D
:103C9000FBDBA37B667B1E402023EB5C2122AF5C19
:103CA0001F40F30722D5EB8B9BB2002B1CD0AA69D7
:103CB0001378DBB2511CA961697901290ED09BB23E
:103CC000DB05DB0D2383EB8B013B9BB2EB83002BEE
:103CD0000CD1013323730133637307E05178090278
:103CE0000B430232AA61EBE701232373B30709D523
:103CF0000223237321330022EA54FB0702D5280054
:103D0000AB68984773074FD5AB8B9BB2002B49D05C
:103D1000238ADBB25A0722D09A070CD522231A2213
:103D2000EA54238A0222134323827B073CD52B6962
:103D30002800984738E05A0707D522231E22EA5464
:103D4000238A042213432382EFE7DB07EDD52223E6
:103D50001322EA54238A012213432382E5E7238BAB
:103D6000DB05DB0DDAB269690A706A69511C6961A9
:103D70006979012910D0AB8B013B9BB2AB83002B3F
:103D800012D1043323731E330022EA54BB070BD530
:103D9000EB682800984707E01B0A53706B690133F2
:103DA0006B61E8E704232373F8BDC046F0030020ED
:103DB000F0B5D6464F464646C0B58CB005000E005D
:103DC000140029600800FFF7A9FA03003268D2073F
:103DD00000D5EFE032681C20920700D5EBE079496E
:103DE000086A9F1C0122BA4002430A620BA9627F43
:103DF0000A700D33DFB2380000F092FB380000F09B
:103E000051FB607F0021FFF7A3F9E37A6B71237DFB
:103E1000AB71637DEB712F683800FFF77FFA0E23DB
:103E200002AA9446634400221A802368E26813437E
:103E30009846A37D5B0799466368002B62D0802279
:103E4000520593424CD02A68138A1BB2002BFBDB2D
:103E50000E2302AA944663441B887B814146636813
:103E600019434B461943E37D002B01D10433194319
:103E7000227D5204637D1B041A43A37AE07A034334
:103E80001A432389FF2B03D08020400401431A43A7
:103E9000237F002B03D14C4B9B789B0701D58023BC
:103EA00019432868038A1BB2002BFBDB7A602A685F
:103EB000138A1BB2002BFBDB39600AAB80221A701D
:103EC00000225A70DA709A70236A0693636A079325
:103ED000A36A0893E36A03930993002706AC3BE0C7
:103EE000E37D002BAFD123699A460D30C0B200F0BC
:103EF00023FB01000E2202AB9C4662445046FFF7B2
:103F000030F80DE0E37D002B0DD01023009300234B
:103F10000E2202A98C466244A1692069FFF736F897
:103F2000002890D047E023699A460D30C0B200F0D7
:103F300003FB01001023009300230E2202A88446F5
:103F400062445046FFF722F8EAE73000FFF724F911
:103F500007E00137042F10D0F9B2BB001859002830
:103F6000F3D0431CF5D002AB20229B181870000C34
:103F7000C0B20AA900F048FBEBE70023AB60EB609E
:103F80002B61AB616B610022EB83AB832033EA547E
:103F90000133EA540133EA540133EA542868FFF745
:103FA000BDF904000949FFF7D9F9A400084BE55011
:103FB000002000E005200CB01CBC90469946A246AB
:103FC000F0BDC0460004004000200041813C0000DC
:103FD000F0030020C379002B0FD0C38B9BB2002BC2
:103FE0000DD10268138A1BB2002BFBDB1183022167
:103FF000937B0B42FCD0002070471C20FCE705207F
:10400000FAE70000F0B5D6464F464646C0B58046B2
:104010008946002A42D0C379002B45D00468238A00
:104020001BB2002BFBDB013A96B200270125234B84
:104030009A4610E07B1C9BB24A46D15D42465279BB
:10404000012A15D089B21F004046FFF7C3FF013E89
:10405000B6B2564513D0A37B2B42EBD1174BA27BB4
:104060002A42E7D1012B21D0013B002BF7D1E1E718
:104070000237BFB24A46D35C1B021943E4E7A37B75
:104080009B0715D40D4B0221A27B0A4212D1012BB2
:1040900012D0013B002BF7D1002000E017201CBC00
:1040A00090469946A246F0BD1C20F8E71220F6E79C
:1040B0000020F4E70020F2E71220F0E7FFFF000005
:1040C00010B5072803D88000164B1B589F460020C8
:1040D00025E0154BD86822E0144B1B6A9B059B0F0B
:1040E0001348D8401BE0104B186918E00E4B1B68B2
:1040F00000209B0713D50D491022CB681A42FCD033
:10410000094B1B685B070BD5002000F015FA064B26
:104110009B681B041B0C584301E08020000210BD6B
:104120000448FCE750A900005402002000080040A9
:1041300000127A00006CDC0270B50C490B6A04783E
:10414000857840780122104080014026B343034324
:104150002A40D201802083431343032222401202CB
:104160000348034013430B6270BDC0460008004083
:10417000FFFCFFFF10B5264B9A691205120F022AA9
:1041800018D8037A1B02F82149010B40817A0B43AE
:1041900020494B608379C1790B434188848821434E
:1041A0000B434178C9010B431A490B600378042B78
:1041B0000AD010BD037A9B061B0C41898905890D25
:1041C0000B4314494B60E5E7022A14D8037B1B0616
:1041D000F82252051340C2891204FF2109040A4043
:1041E0001343028A13430B4A93600A4A136804215B
:1041F0000B431360DDE7037B9B06028A1343C289EE
:10420000120405490A401343024A9360EDE7C04691
:1042100000200041540200200000FF03072803D8BB
:1042200080001E4B1B589F46172036E01C4A136A1D
:1042300002210B43136200202FE0194A93690221E7
:104240000B439361002028E0154A138A02210B4397
:104250001382002021E0124A938A02210B439382A9
:1042600000201AE00F4B1A6802210A431A601B68EB
:104270000D4A13400A4A938411001022CB681A4257
:10428000FCD0084A9168064BD9625168996212685D
:1042900092B29A84002000E00020704770A90000CC
:1042A00000080040540200207FFF000030B585B0B8
:1042B0001B4BC222D2009A601A4A53681E218B43BC
:1042C000536001236A4613700024E0B2694600F08F
:1042D00027F901341C2CF8D103A8002444700125CF
:1042E00085700470FFF728FF0620FFF797FF00F0A6
:1042F0001DF80D4B1C725C729C72DC7201956B4652
:104300005C7006236A46137014725472694600206A
:1043100000F01EF8002000F069F805B030BDC0467E
:10432000000800400040004100040040064A936934
:1043300008210B439361054B01221A7019000B7879
:104340001342FCD17047C04600040040000C0040FE
:1043500070B505000C78240204434B78002B02D082
:104360008023DB021C434B7A002B02D080231B03EB
:104370001C434B68012B0FD95A1E13422CD1022B20
:1043800028D902220025013552009342FBD82D0284
:10439000054380235B031C430B7A002B02D0802350
:1043A0009B031C43104A53785BB2002BFBDBFEF7E8
:1043B0008FFD0D4B9D601A0053785BB2002BFBDB29
:1043C000094A5368802149020B401C435460FEF7A0
:1043D0009FFD70BD0025DAE71B021843050080230E
:1043E0009B021C43D8E7C046000C004010B50400F7
:1043F0000B4A53785BB2002BFBDBFEF769FD094BE0
:104400001C70074A53785BB2002BFBDB044A5168EF
:1044100080235B020B435360FEF77AFD10BDC0465C
:10442000000C0040040C004070B505001A4A537897
:104430005BB2002BFBDBFEF74BFD184B1D70164AE1
:1044400053785BB2002BFBDB134E7068C004C00EC8
:10445000FFF736FE0400114B1D707668F602F60F6A
:104460000F4B1D700C4A53785BB2002BFBDB0A4BE1
:104470009D682D022D0CFEF74BFD002E07D1012D5E
:1044800007D92900200001F021F9040001E00135DD
:10449000EC40200070BDC046000C0040040C004001
:1044A000080C004010B50400FEF712FD054B1C700F
:1044B000054A53888021C9010B435380FEF728FD2C
:1044C00010BDC046020C0040000C004010B50400B6
:1044D000FEF7FEFC0E4B1C700E494B881B051A0F95
:1044E0004B880D4803404B804B880C4803404B8061
:1044F00008008021C90143880B42FCD1054841884E
:104500001302054A0A4013434380FEF701FD10BD24
:10451000020C0040000C0040FFF0FFFFFFBFFFFF58
:1045200010B50C7824020443FFF7D0FFA4B2014B6E
:104530005C8010BD000C004010B50400FEF7C8FC04
:10454000054B1C70054B5C882405240FFEF7E0FC2E
:104550002000FFF769FF10BD020C0040000C004076
:1045600030B5D378002B35D11378802B29D01B069A
:1045700080246402234354780225AC4306D1947806
:10458000002C20D18024A402234341605478013CB4
:10459000012C1CD90D042D0CA024E4052C431C4334
:1045A00084620D0CD02424062C431C438462D478EE
:1045B000002C22D15B031CD59378012B1ED04161C6
:1045C00017E00023D7E7C024E4022343DDE70D4CC6
:1045D0002340DFE741600C04240CA023DB052343C8
:1045E00083620C0CD0231B0623438362D378002BF9
:1045F00003D15378013B012B02D930BD8161F8E72B
:104600008160FAE7FFFFFBFF10B50A00C109002334
:10461000002904D14309DB0105498C4663441F246A
:104620002040012181401800FFF79AFF10BDC046CD
:1046300000440041704710B5FFF738FEFEF780FCDC
:10464000FFF7F8FFFFF7F6FFFFF7F4FF10BD0000DC
:1046500030B589B069460D4B0A0032CB32C232CB3D
:1046600032C212CB12C2009B98420BD001239A0097
:1046700069465258824206D00133082BF7D10020F8
:1046800009B030BD0023D8B2FAE7C04690A90000B7
:10469000F0B5C64600B588B004000E00150008004D
:1046A000FFF7D6FF804606AB13221A705A7001320C
:1046B0009A70DA7001321A715A7101329A71DA7194
:1046C00002AA854B203383CB83C21B68136000236F
:1046D000A360E360236163612376637643469A00B7
:1046E0007E4BD4502660AB78082B00D18CE0237130
:1046F0003388DB0700D5E6E0F37BDB0600D5E7E097
:1047000033889B0700D5E5E02B7C002B00D081E0AF
:104710002B7F002B00D089E07149086A43465A007C
:1047200002ABD35A03430B62AB78082B00D18AE06B
:104730002B786A46137006AB42469F5C6946380088
:10474000FFF7EEFE3800FFF7ADFEA978AB7919430D
:104750002B89AA88134319436B78002B02D080233E
:104760001B0119432268D37B5BB2002BFBDB31803A
:10477000697B4B1E99418900AB7B002B01D0012343
:1047800019432268D37B5BB2002BFBDBFF23337121
:10479000002905D02268D37B5BB2002BFBDB717153
:1047A000A97AEB7A002B01D0102319432B7B002B25
:1047B00001D0202319432268D37B5BB2002BFBDBA3
:1047C000B1712268D37B5BB2002BFBDB2379042B16
:1047D00042D0082B61D01720002B75D1D37B5BB260
:1047E000002BFBDB2B8D33822268D37B5BB2002B4B
:1047F000FBDB6B8D33832268D37B5BB2002BFBDB4F
:10480000AB8D738300205FE04246D20700D46EE791
:10481000172059E001A901238B700022CA70AA69F0
:104820000A704B70287DFFF7EFFE71E701A90123A5
:104830008B700022CA706A6A0A704B702B6AD8B2F9
:10484000FFF7E2FE68E7086A43465A1C520002ABD3
:10485000D35A03430B626BE7D37B5BB2002BFBDBCA
:104860002823EB5C33742268D37B5BB2002BFBDB29
:104870002923EB5C33752268D37B5BB2002BFBDB17
:104880002A23EB5C33762268D37B5BB2002BFBDB05
:104890002B23EB5C7376002016E0D37B5BB2002BFE
:1048A000FBDBAB6A33612268D37B5BB2002BFBDBA3
:1048B000EB6AB3612268D37B5BB2002BFBDB2B6B13
:1048C000F361002000E0052008B004BC9046F0BD74
:1048D0001C20F9E71C20F7E790A900000C04002039
:1048E000000400400268D37B5BB2002BFBDB037942
:1048F000042B05D0082B0BD01720002B04D07047B9
:10490000C9B211740020FAE789B211820020F6E7DB
:1049100011610020F3E710B50468E37B5BB2002B64
:10492000FBDB0379042B05D0082B14D01720002BB8
:1049300008D010BD17200129FBD8D2B261180A7621
:104940000020F6E717200129F3D892B20C31490074
:104950000A530020EDE717200129EAD80631890023
:104960000A510020E5E7931C9B001950022A09D048
:10497000032A0CD0012393401A00037E13430376CD
:1049800000207047037E102213430376F8E7037E6E
:10499000202213430376F3E770B58000144BC4580C
:1049A00023689D7B227E637E13401D40EB0705D567
:1049B0002000A3689847012322689373AB0705D5AD
:1049C0002000E3689847022322689373EB0605D51D
:1049D000200023699847102322689373AB0605D5FE
:1049E000200063699847236820229A7370BDC046EF
:1049F0000C04002010B50020FFF7CEFF10BD10B54D
:104A00000120FFF7C9FF10BD10B50220FFF7C4FF5A
:104A100010BD10B50320FFF7BFFF10BD10B5042077
:104A2000FFF7BAFF10BD10B50520FFF7B5FF10BDA9
:104A300010B50620FFF7B0FF10BD10B50720FFF737
:104A4000ABFF10BD0300064A1268002A04D0044AD6
:104A50001068C31813607047014A02491160F6E7F5
:104A60006802002030240020FEE7000010B5194A3B
:104A7000194B9A4211D01A00184B9A420DD20333A7
:104A8000174A9B1A9B0801339B00002212481149C8
:104A90008C58845004329A42FAD1124A124B9A42EC
:104AA00009D2111D03335B1A032083435B180021D5
:104AB00002C29A42FCD10D4BFF2293430C4A9360F1
:104AC0000C4A536880210B43536003F0FFFCFEF750
:104AD0000BF9FEE730AE000000000020E0010020EE
:104AE00004000020E001002030040020000000004D
:104AF00000ED00E000400041F0B54746CE4680B5ED
:104B00008DB004000D0000F0B9F8264B0600984661
:104B10001B780F005BB2013331D022002B00200044
:104B2000290003F0BDFB8146002828D12000290080
:104B300000F0C0FD00221C4B00F068FF00281ED0D2
:104B400001230293194B1A4803934B460694079589
:104B50000A930494059500F0B3FD43461B78089032
:104B600009915BB2022B11D002A800F0A7FD00282A
:104B70000CD00A9B0193002B0DD1089E099F300099
:104B800039000DB00CBC90469946F0BD03F098FC7E
:104B900021230360EDE703F093FC0A9B019303607C
:104BA000EBE7C0460D0000200000F03FC0A9000068
:104BB00034A9000010B500F055FA10BDF0B5474615
:104BC000CE4680B58DB004000D0000F007FB294BE8
:104BD00006001B780F005BB29846013310D022000C
:104BE0002B002000290003F05BFB8146002807D141
:104BF000002200232000290000F0F4FE002806D146
:104C0000300039000DB00CBC90469946F0BD012330
:104C10000293194B0694079503934B460A93434618
:104C200004940595002B15D00023002219001000D4
:104C300002F072F9434608900991022B0ED103F05D
:104C40003FFC212303600A9B0193002B0CD1089E9B
:104C5000099FD5E7002300240893099402A800F0D7
:104C60002DFD0028EFD1EAE703F02AFC0A9B01930F
:104C70000360ECE70D000020C8A90000F0B54F4626
:104C8000D64680B5D54B4E0089B007008A46894686
:104C900076089E4217DDD24B9C466644064328D0D8
:104CA00002000B003800514602F0B2FF02000B0078
:104CB00002F032F903000A001800110009B00CBC20
:104CC00091469A46F0BDC74B9E4229DCC64B9E4298
:104CD00000DDF8E0C54AC64B3800514601F000FE41
:104CE0000022C44B00F092FE002819D03B0052462F
:104CF000E2E7C14AC14B3800514602F017FDC04AF5
:104D000004000D00BF4B3800514602F00FFD0200B9
:104D10000B002000290001F0E3FD03000A00CBE7AF
:104D20003800514600F0C6FC02000B000020B149DB
:104D300002F06EFF0022B44B02F0F8FC04000D00FC
:104D4000B24AB34B02F0F2FCB24AB34B01F0C8FDD9
:104D500022002B0002F0EAFCB04AB14B02F058FFEF
:104D600022002B0002F0E2FCAE4AAF4B01F0B8FD8E
:104D700022002B0002F0DAFCAC4AAD4B02F048FFF7
:104D800022002B0002F0D2FCAA4AAB4B01F0A8FD96
:104D900022002B0002F0CAFCA84A02900391A84B03
:104DA0002000290002F0C2FCA64AA74B02F030FF07
:104DB00022002B0002F0BAFCA44AA54B01F090FDA2
:104DC00022002B0002F0B2FCA24AA34B02F020FF0B
:104DD00022002B0002F0AAFC864B002201F080FD8D
:104DE000049005912000290000F0F8F99B4B0090F9
:104DF00001919E4200DDCFE00098019902000B0076
:104E00000F0001F06DFD049A059B06900791029832
:104E1000039902F081F802000B000698079902F04E
:104E200085FC00260290039132003B0030003900DF
:104E300002F07CFC02000B002000290002F0E8FEDA
:104E4000320004000D00009801993B0001F048FD7C
:104E500002000B002000290002F05EF802000B00A7
:104E600001F03EFD02000B006548664902F0D0FEED
:104E700002000B000298039902F0CAFE32000400FF
:104E80000D003B003000390001F02AFD02000B004C
:104E90005948734902F0BCFE02000B0020002900B3
:104EA00002F0B6FE02000B0053486D4902F0B0FE5E
:104EB00003000A004946002900DDFDE680210906BD
:104EC0008C466244F8E602000B003800514602F0BE
:104ED0002DFC04000D004D4A4D4B02F027FC4D4ABD
:104EE0004D4B01F0FDFC22002B0002F01FFC4B4A51
:104EF0004B4B02F08DFE22002B0002F017FC494ABA
:104F0000494B01F0EDFC22002B0002F00FFC474A58
:104F1000474B02F07DFE22002B0002F007FC454AC1
:104F2000454B01F0DDFC22002B0002F0FFFB434A61
:104F300000900191424B2000290002F0F7FB414A0A
:104F4000414B02F065FE22002B0002F0EFFB3F4ACE
:104F50003F4B01F0C5FC22002B0002F0E7FB3D4A6D
:104F60003D4B02F055FE22002B0002F0DFFB002239
:104F7000204B01F0B5FC02000B000098019901F0F4
:104F8000CBFF3A00534602F0D1FB3A00534601F002
:104F9000A7FC03000A008FE6049A059B0298039978
:104FA00001F0BAFF009C019D22002B0002F0BEFB25
:104FB00022002B0001F094FC02000B0001F090FC99
:104FC0000F4A104B02F024FE02000B000A480B4966
:104FD00002F01EFE03000A006CE7C046FFFFEF3F31
:104FE000000010C0FFFFDF3FFFFF3F3E9C750088C1
:104FF0003CE4377E0000F03F182D4454FB21F93F7C
:10500000075C143326A6913C0000E03F09F7FD0D34
:10501000E13D023F88B20175E0EF493F3B8F68B543
:105020002882A43F5544880E55C1C93F7D6FEB03CC
:1050300012D6D43F555555555555C53F82922EB180
:10504000C5B8B33F59018D1B6C06E63FC88A599C11
:10505000E52A00404B2D8A1C273A03403233EF3FAC
:10506000FB21E93FF8B515004746CE465A001C0023
:105070006B4280B52B434B4F5208DB0F1343BB42AF
:105080001DD84B005B089846464643420343DB0F5E
:1050900089463343BB4212D8434BE3182B4339D0E4
:1050A0000226A3171E40CB0F1E434346034310D1D5
:1050B000022E47D0032E08D13C483D4905E00200AE
:1050C0000B002800210001F00BFC0CBC9046994617
:1050D000F8BD13002B4320D0BA4224D0B8451CD0D1
:1050E00043469A1A12153C2A2FDC002C30DA3C3247
:1050F0002EDA00200021012E3ED0022E31D0002ECB
:10510000E3D02C4A2C4B02F083FD284A2B4B02F0B3
:105110007FFDDAE700F03AF9D7E74B462348002B4A
:105120000EDB2749D1E790452BD0022E0AD0032E63
:10513000C2D000200021012EC7D180210906C4E77A
:105140002049C2E719481D49BFE718481C49D2E762
:105150002A00230001F0E0FE00F0ACFA00F016F99E
:10516000C9E7144A144B02F053FD02000B000F482C
:10517000124902F04DFDA8E7802424060B191900FE
:10518000A3E7022E06D0032E09D00848012E04D032
:105190000D499AE70D480E4997E70E4995E70B48E8
:1051A0000D4992E70000F07F000010C0182D445414
:1051B000FB2109C0075C143326A6A13CFB21094052
:1051C000FB21F93FFB21F9BFFB21E93FD221337FCE
:1051D0007CD90240FB21E9BF7CD902C0F8B5474623
:1051E000CE46674B80B50A000F0019000500394014
:1051F000994200D19BE004000100002F69DD3F15BA
:1052000000D1B4E05F4B12039C468023120B5B037A
:1052100013435B00CA0F67449B184A00F80703D585
:10522000D20F5B009B188A0079108C4600218020E9
:105230001624894680030D189D4202DC29185B1B49
:105240008144D50F5B00013C5B1952004008002CE3
:10525000F1D100208046802020250027000609E0AB
:105260008B425CD0D40F5B00013DE3185200400834
:10527000002D16D0C4198B42F2DD27180E00002C29
:1052800049DB5B1AA242894149425B1A121BD40FC7
:105290005B00013D80443100E31852004008002DBE
:1052A000E8D113434ED143465B0837494A46884606
:1052B000494652104244C90702D5802109060B43D2
:1052C00061460F05BD18180029000CBC9046994690
:1052D000F8BD7B005B0803433900002BF5D0002F9D
:1052E0003CD1E30A153A6405002BFAD08020400334
:1052F00003423FD1002700E00F005B00791C03420E
:10530000FAD0250020208D40401A2900D71B22000A
:10531000C2401A4376E7FE43F60F8E19B1E7944276
:10532000A0D82718002CF6DB1E000023AEE70200F1
:105330003B002800390002F0F9F92A003B0001F097
:10534000CFFAC2E74346013303D0434601335B083B
:10535000ABE7012398460023C144A6E73B000200C7
:1053600002F056FC02000B0001F0D6FDADE7130081
:105370000022BBE70127210020207F42C6E7C0466C
:105380000000F07F01FCFFFF0000E03FF8B54E4653
:1053900057464546DE46A04BE0B54E0080468A465D
:1053A000894676089E420CDD9C4B9E4200DDA2E0C1
:1053B00000D19DE04B46002B00DCE0E0984B994A81
:1053C000A1E0994B9E4200DDB3E0984B9E4200DC89
:1053D000A1E001235B429B4642465346404651466C
:1053E00002F0A4F902000B0006000F0002F09EF983
:1053F00004000D008E4A8F4B02F098F98E4A8F4BB5
:1054000001F06EFA22002B0002F090F98C4A8D4BCD
:1054100001F066FA22002B0002F088F98A4A8B4BD1
:1054200001F05EFA22002B0002F080F9884A894BD5
:1054300001F056FA22002B0002F078F9864A874BD9
:1054400001F04EFA32003B0002F070F9844A060087
:105450000F00844B2000290002F068F9824A834B38
:1054600002F0D6FB22002B0002F060F9804A814B4B
:1054700002F0CEFB22002B0002F058F97E4A7F4B4F
:1054800002F0C6FB22002B0002F050F97C4A7D4B53
:1054900002F0BEFB22002B0002F048F902000B00D4
:1054A0003000390001F01CFA5346424602F03EF942
:1054B0005B46013366D05B46734A744CDB00E418EC
:1054C000D3181A685B6802F0A3FB4246534602F009
:1054D0009FFB02000B002068616802F099FB03004B
:1054E00048460A0000280EDA802212068A180AE0CE
:1054F000002800D15EE7424653464046514601F03F
:10550000EFF903000A00180011003CBC90469946D0
:10551000A246AB46F8BD5E4A5E4B01F0E1F90022BF
:105520005D4B00F073FA002800D152E74346524623
:10553000E9E700F0BFF8594B04000D009E422ADC59
:10554000574B9E4250DC02000B0001F0C9F90022CB
:10555000514B02F05DFB802306000F000022DB05AB
:105560002000290001F0BCF90B00020039003000D6
:1055700001F0D2FC002380468A469B462CE7284B4C
:10558000484AC0E702000B004046514602F040FB8B
:1055900003000A00B7E7444B9E421ADC0022434B4B
:1055A00002F036FB002206000F00404B20002900CD
:1055B00002F0BCF80022384B01F092F90B00020017
:1055C0003900300001F0A8FC022380468A469B4641
:1055D00002E70B0002003649002001F09DFC032386
:1055E00080468A469B46F7E600222B4B02F010FBD2
:1055F000002206000F00284B2000290001F070F95E
:105600000B0002003900300001F086FC01238046C7
:105610008A469B46E0E6C046FFFF0F440000F07F4D
:10562000182D4454FB21F93FFFFFDB3FFFFF1F3ED6
:1056300011DA22E33AAD903FEB0D76244B7BA93F84
:10564000513DD0A0660DB13F6E204CC5CD45B73F52
:10565000FF8300922449C23F0D5555555555D53FFE
:105660002F6C6A2C44B4A2BF9AFDDE522DDEAD3FF2
:105670006D9A74AFF2B0B33F711623FEC671BC3F92
:10568000C4EB98999999C93FF0A90000D0A90000EE
:105690009C7500883CE4377E0000F03FFFFFF23F3E
:1056A000FFFFE53FFB21F9BFFF7F03400000F83F0C
:1056B0000000F0BF49004B081900704700207047F8
:1056C000002001497047C0460000F87F00224308CF
:1056D0008B4274D303098B425FD3030A8B4244D3BA
:1056E000030B8B4228D3030C8B420DD3FF220902FC
:1056F00012BA030C8B4202D31212090265D0030BBB
:105700008B4219D300E0090AC30B8B4201D3CB03B0
:10571000C01A5241830B8B4201D38B03C01A5241F2
:10572000430B8B4201D34B03C01A5241030B8B42F4
:1057300001D30B03C01A5241C30A8B4201D3CB02DF
:10574000C01A5241830A8B4201D38B02C01A5241C4
:10575000430A8B4201D34B02C01A5241030A8B42C7
:1057600001D30B02C01A5241CDD2C3098B4201D3DF
:10577000CB01C01A524183098B4201D38B01C01A5D
:10578000524143098B4201D34B01C01A52410309D4
:105790008B4201D30B01C01A5241C3088B4201D383
:1057A000CB00C01A524183088B4201D38B00C01A30
:1057B000524143088B4201D34B00C01A5241411A57
:1057C00000D20146524110467047FFE701B5002064
:1057D00000F0F0F802BDC0460029F7D076E7704728
:1057E00003460B437FD4002243088B4274D3030942
:1057F0008B425FD3030A8B4244D3030B8B4228D3E3
:10580000030C8B420DD3FF22090212BA030C8B4208
:1058100002D31212090265D0030B8B4219D300E0A8
:10582000090AC30B8B4201D3CB03C01A5241830B2D
:105830008B4201D38B03C01A5241430B8B4201D3DD
:105840004B03C01A5241030B8B4201D30B03C01A06
:105850005241C30A8B4201D3CB02C01A5241830A80
:105860008B4201D38B02C01A5241430A8B4201D3AF
:105870004B02C01A5241030A8B4201D30B02C01AD9
:105880005241CDD2C3098B4201D3CB01C01A524140
:1058900083098B4201D38B01C01A524143098B42C9
:1058A00001D34B01C01A524103098B4201D30B01B2
:1058B000C01A5241C3088B4201D3CB00C01A5241D7
:1058C00083088B4201D38B00C01A524143088B429C
:1058D00001D34B00C01A5241411A00D20146524135
:1058E000104670475DE0CA0F00D04942031000D354
:1058F0004042534000229C4603098B422DD3030AA9
:105900008B4212D3FC22890112BA030A8B420CD3B8
:10591000890192118B4208D3890192118B4204D3E1
:1059200089013AD0921100E08909C3098B4201D361
:10593000CB01C01A524183098B4201D38B01C01A9B
:10594000524143098B4201D34B01C01A5241030912
:105950008B4201D30B01C01A5241C3088B4201D3C1
:10596000CB00C01A524183088B4201D38B00C01A6E
:105970005241D9D243088B4201D34B00C01A524145
:10598000411A00D20146634652415B10104601D3D2
:105990004042002B00D54942704763465B1000D35C
:1059A000404201B5002000F005F802BD0029F8D002
:1059B00016E770477047C0468446101C62468C4606
:1059C000191C634600E0C0461FB501F047FE0028E1
:1059D00001D40021C8421FBD10B501F09FFD404217
:1059E000013010BD10B501F039FE002801DB0020A8
:1059F00010BD012010BDC04610B501F02FFE0028DB
:105A000001DD002010BD012010BDC04610B501F021
:105A1000C1FD002801DC002010BD012010BDC046E2
:105A200010B501F0B7FD002801DA002010BD0120FB
:105A300010BDC0468446081C6146FFE71FB500F054
:105A40007FFB002801D40021C8421FBD10B500F023
:105A500001FB4042013010BD10B500F071FB002881
:105A600001DB002010BD012010BDC04610B500F0C4
:105A700067FB002801DD002010BD012010BDC046DD
:105A800010B500F00FFB002801DC002010BD012044
:105A900010BDC04610B500F005FB002801DA00205B
:105AA00010BD012010BDC046F0B5CE4647461504D6
:105AB0002D0C2E0080B50704140C3F0C9946030CE6
:105AC0007E435D43674363437F19340CE4199C466E
:105AD000A54203D980235B029846C4444B46434306
