:10000000B8220020713900006D3900006D39000000
:1000100000000000000000000000000000000000E0
:100020000000000000000000000000006D3900002A
:1000300000000000000000006D3900006D39000074
:100040006D3900006D3900006D3900006D39000018
:100050006D3900006D3900006D390000C9220000C3
:10006000D9220000E9220000F92200000923000043
:1000700019230000F9380000033900000D39000091
:1000800017390000213900002B39000035390000F4
:100090003F3900006D3900006D3900006D390000F6
:1000A0006D39000010B5064C2378002B07D1054BA5
:1000B000002B02D0044800E000BF0123237010BDD4
:1000C00068000020000000009C460000044B10B5B2
:1000D000002B03D00349044800E000BF10BDC04618
:1000E000000000006C0000209C460000F0B583B0CA
:1000F00000921D006B46D97101221649164802F084
:10010000A1FA6424144E01226B46D91D300002F07E
:1001100011FB002805D0013CA4B2002CF3D16434BB
:1001200000E06424ADB20C4E2A000099300002F0C9
:1001300001FB071E03D0013CA4B2002CF4D1002225
:100140000449054802F07EFA3800471EB841404293
:1001500003B0F0BD0001002054010020F0B583B0D1
:1001600000921D0080235B4219436B46D971012226
:100170001649174802F066FA6424154E01226B46B0
:10018000D91D300002F0D6FA002805D0013CA4B2F7
:10019000002CF3D1643400E06424ADB20C4E002393
:1001A0002A000099300002F0B1F9071E03D0013C8B
:1001B000A4B2002CF3D100220449054802F042FA0F
:1001C0003800471EB841404203B0F0BD0001002096
:1001D0005401002010B501F069FA10BD10B51221CC
:1001E000064801F0CBF90648064B8360064BC36016
:1001F000064B436100F030F810BDC04600010020FE
:100200003C010020ED0000005D010000D501000070
:1002100070B50500064C2468002C06D02079A4682F
:1002200013000A002900A04770BD7F204042FBE771
:100230008400002070B50500064C2468002C06D010
:100240002079E46813000A002900A04770BD7F20D0
:100250004042FBE784000020F0B583B003006A460B
:10026000D61D0022327069468C1D8A710B4D2860A4
:100270000079DF68012332000021B8470700337896
:100280002A685370012221003E20FFF7D3FFC019D6
:100290002B6822785A7140B203B0F0BD8400002070
:1002A00030B583B0040006220021684603F089FCC3
:1002B0003E4B1B68002B00D174E03D4A1278012AA6
:1002C0002AD0002A04D0022A49D00120404221E04D
:1002D0001879DD6806236A460221A8476B46012289
:1002E0009A5612021B780F218B4313431B11238054
:1002F0006B4603229A5612029B788B4313431B11C1
:1003000063806B4605229A5612021B798B43134376
:100310001B11A38003B030BD1879DD6806236A463F
:100320000221A8476B4601229A5612021B783F21F0
:100330008B4313439B1123806B4603229A56120270
:100340009B788B4313439B1163806B4605229A561F
:1003500012021B798B4313439B11A380DAE71879B0
:10036000DD6806236A460221A8476B4601229A5699
:1003700012021B7803218B4313439B1023806B468F
:1003800003229A5612029B788B4313439B1063807F
:100390006B4605229A5612021B798B4313439B101E
:1003A000A380B7E77F204042B4E7C0468400002026
:1003B0000000002030B583B06B460022DA712F4B6D
:1003C0001B68002B36D003281BD16A46D51D18792F
:1003D000DC6801232A000F21A04704002B780F229C
:1003E0009343032213432B70244B1B6818799D6899
:1003F00001236A4607320F21A847001940B203B013
:1004000030BD052819D0082827D00C280FD16A46FE
:10041000D51D1879DC6801232A000F21A0470400AC
:100420002B780F2293430C2213432B70DCE702201E
:100430004042E4E77F204042E1E76A46D51D187953
:10044000DC6801232A000F21A04704002B780F222B
:100450009343052213432B70C6E76A46D51D1879CE
:10046000DC6801232A000F21A04704002B780F220B
:100470009343082213432B70B6E7C0468400002044
:1004800070B582B004006B460022DA712D4B1B68F8
:10049000002B4ED05A78FB2A27D00200083AD2B25D
:1004A000072A4CD801000839C9B200220720884227
:1004B0005241524214406A46D51D1879DE68012324
:1004C0002A001021B04706002B781F2293431C43BB
:1004D0002C701C4B1B6818799C6801232A00102182
:1004E000A047801940B202B070BD0200083A062A47
:1004F00022D8D1B2002206208842524152421440F2
:100500006A46D51D1879DE6801232A001021B047FC
:1005100006002B781F2293431C432C70094B1B6849
:1005200018799C6801232A001021A047801940B245
:10053000D9E77F204042D6E702204042D3E702209D
:100540004042D0E784000020194B1B68002B27D0C5
:10055000052828D82AD88000164A12589746002223
:100560009A70DA700020704702229A700022DA70C6
:100570000020F8E702229A70013ADA700020F2E7D0
:1005800004229A700022DA700020ECE704229A70AC
:10059000033ADA700020E6E701229A700020E2E7D1
:1005A0007F204042DFE702204042DCE70020DAE71C
:1005B00084000020D0430000F0B5CE46474680B509
:1005C00085B00190002302AAD37102AA937102AAF6
:1005D0005371414B1B68002B00D17AE002AAD51D54
:1005E0001879DC6801232A001121A04704003A4F42
:1005F0003B6802AA961D1879DB68994601233200F0
:100600001221C8470419E4B20198FFF79DFF24188E
:10061000E4B23A6893789846D178890140230B4038
:100620003178402081430B433370107993689946A9
:10063000012332001221C8472418E4B23B685B69E9
:10064000012098472A781F26324080235B421343BB
:100650002B703B6818799B68994601232A00112169
:10066000C8472418E4B23B685B690120984702AB95
:10067000591D3B685B790B7001223E20FFF7C8FDD6
:100680002418E4B23B685B69012098473B681879FD
:10069000DB68994601232A001121C8472418E4B2D7
:1006A0002B7833404246520113432B703B68187934
:1006B0009E6801232A001121B047241864B23B68C8
:1006C0005B6901209847200005B00CBC9046994614
:1006D000F0BD7F246442F6E784000020F0B583B0CB
:1006E00000921D006B46D97101221649164801F08F
:1006F000A9FF6424144E01226B46D91D300002F07C
:1007000019F8002805D0013CA4B2002CF3D16434C0
:1007100000E06424ADB20C4E2A000099300002F0D3
:1007200009F8071E03D0013CA4B2002CF4D100222A
:100730000449054801F086FF3800471EB841404291
:1007400003B0F0BD8C01002054010020F0B583B04F
:1007500000921D0080235B4219436B46D971012230
:100760001649174801F06EFF6424154E01226B46AE
:10077000D91D300001F0DEFF002805D0013CA4B2F5
:10078000002CF3D1643400E06424ADB20C4E00239D
:100790002A000099300001F0B9FE071E03D0013C89
:1007A000A4B2002CF3D100220449054801F04AFF0D
:1007B0003800471EB841404203B0F0BD8C01002014
:1007C0005401002010B500F071FF10BD10B51B21C1
:1007D000064800F0D3FE0648064B8360064BC36014
:1007E000064B036100F00CF810BDC0468C010020E0
:1007F00090010020DD0600004D070000C507000045
:1008000070B582B003006A46D41D00222270064DE6
:1008100028604078DE68012322000021B04722785A
:100820002B681A7002B070BD8800002030B583B00C
:10083000040006220021684603F0C3F9114B1B682F
:10084000002B1CD05878DD6806236A460221A84791
:100850006B4601229A5612021B78134323806B4683
:1008600003229A5612029B78134363806B4605223B
:100870009A5612021B791343A38003B030BD7F2028
:100880004042FAE78800002070B582B006006B464F
:100890000022DA71134B1B68002B1CD004281DD8D2
:1008A0006A46D41D5878DD68012322000F21A8472D
:1008B0000500207807239843334018432070094BE4
:1008C0001B6858789E68012322000F21B047401909
:1008D00040B202B070BD7F204042FAE702204042A1
:1008E000F7E7C0468800002070B582B005006B466F
:1008F0000022DA710A4B1B68002B0DD06A46D41D0A
:100900005878DE68012322001021B047227807239F
:1009100013402B7002B070BD7F204042FAE7C04602
:1009200088000020F0B5C64600B582B0804600239E
:100930006A46D3716A469371224B1B68002B3DD0E7
:100940006A46D61D5878DD68012332001121A84778
:1009500007001C4B1B686A46951D5878DC6801230C
:100960002A001221A047C01940B233785B09052242
:100970001A4029784C0608D4C909002A0CD100294C
:1009800006D100234246137002E00423424613704E
:1009900002B004BC9046F0BDDB0707D4042AF7D1AF
:1009A000002907D0032342461370F1E70123424692
:1009B0001370EDE7022342461370E9E77F204042BF
:1009C000E6E7C0468800002070B582B005006B469F
:1009D0000022DA710A4B1B68002B0DD06A46D41D29
:1009E0005878DE68012322001221B04722780723BD
:1009F00013402B7002B070BD7F204042FAE7C04622
:100A00008800002070B582B006000C006B46002202
:100A1000DA71314B1B68002B57D05878DD68012301
:100A20006A4607321221A8470500072E50D8072C26
:100A300045D8A400294B1B599F46311C002E00D1DC
:100A40000121C9B26B46DA1D1378072083430140A8
:100A50000B431370204B1B6858789C6801231221AC
:100A6000A047401940B202B070BD311C002E00D129
:100A70000121C9B2E6E7311C002E00D10121C9B223
:100A8000E0E7311C012E00D80221C9B2DAE7311C9F
:100A9000032E00D80421C9B2D4E7311C052E00D89A
:100AA0000621C9B2CEE7311C032E00D80421C9B2F9
:100AB000C8E7311C052E00D80621C9B2C2E7311C97
:100AC000002E00D10121C9B2BCE77F204042CAE715
:100AD00002204042C7E7C04688000020E8430000EB
:100AE000F0B583B0070000236A46D3716A4693715C
:100AF0006A4653711D4B1B68002B30D0072831D834
:100B00006B469C1D2000FFF70DFF2378042B1CD0A3
:100B1000164E33686A46D41D5878DD6801232200DA
:100B20001021A84705002078072398430721394062
:100B300008432070336858789E68012322001021F2
:100B4000B047401940B203B0F0BD6B465C1D2000B9
:100B5000FFF73AFF20783900FFF754FFD8E77F20EE
:100B60004042F0E702204042EDE7C0468800002006
:100B7000F0B5C64600B582B0060000236A46D371C0
:100B80006A4693716A46537101AA13706A46D3701C
:100B9000874B1B68002B00D104E1042800D904E135
:100BA0005878DC6801236A4607321121A047040007
:100BB0007F4B1B685878DD6801236A460632122194
:100BC000A8470419E4B2042E03D8B600794B9B5908
:100BD0009F4660B202B004BC9046F0BD6B46DA1D81
:100BE00011785F230B4013706B4698797F21014089
:100BF00099716B465F1D3F2303403B706C4E336819
:100C000058789D6801231121A847050033681B69A6
:100C100001209847336858789E6801233A001221D2
:100C2000B0472818201840B2D4E76B46DA1D117877
:100C30005F230B4020210B4313706B4698797F2173
:100C4000014099716B465E1D3F2303403370584D40
:100C50002B6858789F6801231121B84707002B683B
:100C60001B69012098472B6858789D680123320042
:100C70001221A8473818201840B2ABE76B46DA1D9E
:100C800011785F231940DF3B0B4313706B46987953
:100C90007F21014099716B465F1D3F2303403B70EC
:100CA000434D2B6858789E6801231121B0470600F8
:100CB0002B681B69012098472B6858789D68012391
:100CC0003A001221A8473018201840B282E76B463C
:100CD000DA1D13785F21194080235B42194311709C
:100CE0006946881D89791D000D4305706846461DBB
:100CF000402081430B4333702D4F3B6858789D68EB
:100D000001231121A84705003B681B690120984772
:100D10003B6858789F68012332001221B847281891
:100D2000201840B256E76B46DE1C3000FFF7DCFDB2
:100D300001AD2800FFF748FE31782878FFF762FE02
:100D40001B4E33686A46951D5878DF6801232A00D8
:100D50001221B84707006B46DA1D11785F230B405C
:100D6000137029787F230B402B7069464D1D40215D
:100D70000B432B70336858789B68984601231121E8
:100D8000C04738182418E4B233681B69012098471B
:100D9000336858789E6801232A001221B047201832
:100DA00040B217E77F20404214E70220404211E79B
:100DB0008800002008440000F0B583B000921D00B8
:100DC0006B46D97101221649164801F03BFC642498
:100DD000144E01226B46D91D300001F0ABFC0028F7
:100DE00005D0013CA4B2002CF3D1643400E06424AB
:100DF000ADB20C4E2A000099300001F09BFC071E9A
:100E000003D0013CA4B2002CF4D1002204490548CF
:100E100001F018FC3800471EB841404203B0F0BD55
:100E2000C401002054010020F0B583B000921D00E1
:100E300080235B4219436B46D9710122164917483A
:100E400001F000FC6424154E01226B46D91D3000D0
:100E500001F070FC002805D0013CA4B2002CF3D1B5
:100E6000643400E06424ADB20C4E00232A000099E3
:100E7000300001F04BFB071E03D0013CA4B2002C54
:100E8000F3D100220449054801F0DCFB3800471E7D
:100E9000B841404203B0F0BDC4010020540100201D
:100EA00010B500F003FC10BD10B51221074800F08A
:100EB00065FB0748074B4360074B8360074BC360E4
:100EC00000F036FA002000F011F910BDC401002036
:100ED000A4010020B90D0000290E0000A10E0000A1
:100EE00070B582B005006B460022DA71114B1B68A9
:100EF000002B1BD06A46D41D58789E68012322001F
:100F00004C21B0470600207838239843ED001D405F
:100F100028432070074B1B6858785D680123220026
:100F20004C21A847801940B202B070BD7F204042DA
:100F3000FAE7C0468C000020F0B583B001AD002375
:100F40002B706B70444E33681A00103258789C68CE
:100F500001235D21A047040033681A00113258783C
:100F60009F6801235E21B8470419E4B233681A0070
:100F7000123258789F6801236421B8472418E4B2DC
:100F800033681A00133258789F6801236521B847E7
:100F90002418E4B233681A001C3258789F68012381
:100FA0007121B8472418E4B233681A001D3258780A
:100FB0009F6801237021B8472418E4B23368587839
:100FC0009F6802232A006A21B8472418E4B23368D4
:100FD000697809022A780A439A8258789F6802231E
:100FE0002A006821B8472418E4B233680121695601
:100FF00009022A780A43DA8258789F6802232A0075
:101000006E21B8472418E4B23368012169560902F9
:101010002A780A431A8358789F6802232A0062219B
:10102000B8472418E4B233680121695609022A78C6
:101030000A435A8358789F6802232A006C21B847D4
:1010400031686A787F2313401B022A781343CB83CD
:10105000201840B203B0F0BD8C00002070B582B003
:1010600005006B460022DA710A4B1B68002B0DD07D
:101070006A46D41D58789E68012322004B21B04750
:101080002278012313402B7002B070BD7F204042B4
:10109000FAE7C0468C00002070B582B006006B46AF
:1010A0000022DA71104B1B68002B1AD06A46D41D3F
:1010B00058789D68012322004B21A847050020781D
:1010C00001239843334018432070074B1B6858781E
:1010D0005E68012322004B21B047401940B202B0A4
:1010E00070BD7F204042FAE78C000020F0B583B04D
:1010F0006B460022DA71524B1B68002B00D19BE03B
:1011000001283CD0002806D0022834D0032865D01E
:101110000220404222E06B46DD1D2800FFF79EFFC3
:10112000060004002B78002B1AD0454E33686A461F
:10113000D51D58789F6801232A004C21B84704190F
:10114000E4B22B78062293432B70336858785E689C
:1011500001232A004C21B047201840B203B0F0BD53
:101160000120FFF799FF861974B2354B1B68DB68C5
:1011700002209847D9E70020FFF78EFFEEE76B4685
:10118000DD1D2800FFF76AFF04002B78002B1BD021
:101190002B4E33686A46D51D58789F6801232A0074
:1011A0004C21B8470419E4B22B780622934302225B
:1011B00013432B70336858785E6801232A004C2152
:1011C000B047201840B2C9E70120FFF765FF0400CF
:1011D0001B4B1B68DB6802209847D9E76B46DC1D78
:1011E0002000FFF73BFF2378002B1BD00124644233
:1011F000134E33686A46D51D58789F6801232A002C
:101200004C21B8470419E4B22B78062213432B7003
:10121000336858785E6801232A004C21B0472018B3
:1012200040B29BE70120FFF737FF0400044B1B6827
:10123000DB6802209847DBE77F2040428EE7C0460C
:101240008C00002010B582B0084B1B68002B09D021
:101250006A460732107058785C6801235121A04714
:1012600002B010BD7F204042FAE7C0468C0000204B
:1012700010B582B0084B1B68002B09D06A460732B4
:10128000107058785C6801235221A04702B010BD4D
:101290007F204042FAE7C0468C00002010B50228AB
:1012A00024D012D9032830D004283DD10020FFF7E4
:1012B00017FE04000720FFF7C5FF0419E4B21A2047
:1012C000FFF7D6FF201840B20FE001282CD10020F4
:1012D000FFF706FE04000120FFF7B4FF0419E4B293
:1012E0000220FFF7C5FF201840B210BD0020FFF715
:1012F000F7FD04000420FFF7A5FF0419E4B20E2057
:10130000FFF7B6FF201840B2EFE70520FFF7E8FD32
:1013100004001720FFF796FF0419E4B25220FFF7EC
:10132000A7FF201840B2E0E702204042DDE70000BE
:10133000F0B583B001AD00232B706B70104E3060A0
:101340000120FFF7A9FE04003368DB6802209847FC
:10135000336858789F6801232A004021B847041950
:10136000E4B22A7833681A70FFF7E6FD2418E4B275
:101370000220FFF793FF201840B203B0F0BDC04633
:101380008C00002030B583B004000822002168469C
:1013900002F017FC164B1B68002B26D058789D686E
:1013A00008236A464221A8476B4601229A565201F9
:1013B0001B78DB08134323806B4603229A565201A5
:1013C0009B78DB08134363806B4605229A56D20153
:1013D0001B795B081343A3806B46DA7992019B79F2
:1013E0009B081343E38003B030BD7F204042FAE7FF
:1013F0008C00002000B587B001A8002303700022F4
:10140000438083808271C27101334370072202726C
:10141000383242810373C3810533038201F02CFE0D
:10142000072001F07DFE002800D0FEE707B000BDD8
:1014300000B583B001A800234370013383700133EA
:10144000037001F0FBFD03B000BD000000B585B0E6
:101450000A4A53681E218B431A390B43536001A972
:1014600000234B700B724B7207330B70053B4B60C4
:10147000002001F0EFFE05B000BDC0460040004175
:1014800000B585B001A900234B7006220A700B72CB
:101490004B7204334B60012001F0DCFE012001F0AF
:1014A00027FF05B000BD00B585B001A901234B6041
:1014B00000234B7006220A700B724B72022001F05F
:1014C000C9FE022001F014FF05B000BD10B5FFF702
:1014D00091FFFFF7ADFFFFF7B9FFFFF7D1FFFFF770
:1014E000E2FF10BD70B58EB001AC01252570002360
:1014F00002930393C0229203049223746374A5742D
:101500002022A354183A002107A802F05AFB124BDC
:101510006361124B6362124BA36201235B42E3627D
:10152000104B2363104E22001049300000F0FCFEE7
:101530003468200000F0B2FE1F23184085400C4B99
:101540001D603268138A1BB2002BFBDB236802226A
:10155000134323600EB070BD809698000300100006
:101560000300110003001300540100200014004286
:1015700000E100E010B5FFF7B5FF10BD10B582B077
:1015800004000800217000236370A37001A90122E8
:101590004A708B700A7000F056FC2278D109002343
:1015A000002904D15309DB0104498C4663441F21FF
:1015B000114001228A409A6102B010BD00440041EE
:1015C000014B01221A707047FC00002010B504493D
:1015D000044802F009F9044B01221A7010BDC046FC
:1015E000AF3CFFFF040100208801002010B58EB041
:1015F00001AA00239370002193809171138151708F
:101600009172D1721173917351731174536193611B
:101610001177136253621385938501331370F4338A
:10162000FF3353850B4C0C49200001F0B3FF2268B7
:10163000D37B5BB2002BFBDB138802210B431380AF
:10164000044B1A68D37B5BB2002BFBDB8023537106
:101650000EB010BD200100200030004210B50E4C2D
:1016600002220E49200002F000F90D4B00221A70F0
:10167000206801F06FFF0B4B1B5C1F221A400123F7
:101680009340094A1360637E1022134363762368F4
:1016900010225A7310BDC04620010020C115000061
:1016A000FC0000201C44000000E100E010B54201F5
:1016B000121A9200121892000F4C0021200002F022
:1016C000ACF82268D37B5BB2002BFBDB00231371E9
:1016D000D37B5BB2002BFBDB4023537107490B78B4
:1016E000002BFCD0D37B5BB2002BFBDB8023537140
:1016F000024B00221A7010BD20010020FC000020C7
:1017000010B58EB001AA0021002391809371118140
:1017100053709372D3721373937353731374516131
:101720009161137711625162918508239370073B91
:101730001370094B9362094C0949200001F02AFFFC
:101740002268D37B5BB2002BFBDB138802210B43A7
:1017500013800EB010BDC046AF3CFFFF0401002057
:101760000038004210B50E4C00220E49200002F055
:101770007CF80D4B00221A70206801F0EBFE0B4B39
:101780001A5C1F231340012211009940084B196075
:10179000637E01210B43637623685A7310BDC046F4
:1017A00004010020CD150000880100201C44000029
:1017B00000E100E010B5FFF719FFFFF74FFFFFF75B
:1017C0009FFFFFF7CFFF10BD044B1A68D37B5BB2BE
:1017D000002BFBDB802353717047C04604010020BF
:1017E00010B5094C0949200001F0FEFF2268D37BA7
:1017F0005BB2002BFBDB00231371D37B5BB2002BAE
:10180000FBDB4023537110BD04010020AF3CFFFF00
:10181000014B01221A707047C901002010B50D4B11
:101820001B880D4A128858000C4942520A2A07D0D8
:101830000133084A13800849094801F09EF910BD98
:1018400001335B0000225A52064B01211970014BF3
:101850001A80F0E7F2010020F0010020F4010020DE
:10186000CC010020C801002030B58DB08023DB05FD
:10187000009300230193FF2269460A818B72CB7289
:1018800001220A754A758B75CB7506930B77E12398
:101890005B02049302234B7780235B030393134B78
:1018A0000893134B099301235B420A930B93114D49
:1018B000114C6A462900200001F0FCF90028F8D1FB
:1018C0000D4D2C68200000F0E9FC1F2318401E3B42
:1018D00083400A4A13602A68138A1BB2002BFBDB81
:1018E00023680222134323600DB030BD0200300094
:1018F00002003100001C0042CC01002000E100E0A9
:1019000070B50D4C01220D49200001F02BF90C4B54
:1019100000221A702125635D0222134363550022C1
:101920000849200001F01EF9074B01221A70635D7F
:101930001343635570BDC046CC0100201D18000044
:10194000C801002011180000C901002010B5074C83
:1019500000232380064A1380FFF786FFFFF7D0FF9E
:101960002100044801F009F910BDC046F001002033
:10197000F2010020CC01002010B5FEF72FFCFEF78D
:1019800025FFFFF791FA10BD70B59EB01A4C2000EC
:10199000FEF786FC194D2800FEF748FF184E300070
:1019A000FFF7F0FC5122002109A802F00AF90222F7
:1019B000A35E0021625E0420315E06910220315E4A
:1019C00005910020315E04910420295E03910220DC
:1019D000295E02910020295E01910420215E009180
:1019E000084909A802F0F6F8512209A9064801F0B1
:1019F0008BFA1EB070BDC046940000209C000020F1
:101A0000A800002050440000CC01002070B5040064
:101A1000B94D0D21280001F05FFA0A21280001F0DC
:101A20005BFAB64B1A780A2A5CD89300B44AD358AA
:101A30009F46002C56D1FFF7C7FE0D22B149AE4894
:101A400001F062FAAD4B01221A704BE0012C0ED06E
:101A5000AA2C17D0BB2C1ED0CC2C25D00E22AA49E4
:101A6000A54801F051FAA54B01221A703AE00E2266
:101A7000A649A14801F048FAFFF7B2FE9F4B0022A9
:101A80001A702FE00C22A2499B4801F03DFA9B4BB3
:101A900002221A7026E00C229E49974801F034FA7F
:101AA000964B05221A701DE00D229B49924801F0C9
:101AB0002BFA924B08221A7014E0E31E974A134245
:101AC00006D0042322009A43082A01D0FF2C0AD111
:101AD000934B1C7009229349874801F015FA874BF4
:101AE00003221A7070BD0E228749834801F00CFA58
:101AF000824B01221A70F5E72300083B9BB2072BAB
:101B000001D9FF2C0AD1884B1C700B2287497A48D7
:101B100001F0FAF9794B04221A70E3E70E227A49B0
:101B2000754801F0F1F9754B01221A70DAE7052CBE
:101B300001D9FF2C1ED17E4B1C70794B1878FF28E1
:101B400012D1794B1878FF2811D1794B1878FF28DA
:101B500001D0FEF731FD0E227649674801F0D4F935
:101B6000664B01221A70BDE7FEF724FCE9E7FEF799
:101B700087FCEAE70E2264495F4801F0C5F95F4B34
:101B800001221A70AEE7631E9BB2042B01D9FF2C11
:101B90000AD1694B1C7009226849574801F0B4F911
:101BA000564B06221A709DE70E225749524801F003
:101BB000ABF9524B01221A7094E7072C01D9FF2C84
:101BC0000AD15F4B1C700B225E494B4801F09CF917
:101BD0004A4B07221A7085E70E224B49464801F00E
:101BE00093F9464B01221A707CE7042C01D9FF2C93
:101BF0001ED1554B1C70504B1878FF2812D1504BFA
:101C00001878FF2811D1504B1878FF2801D0FEF723
:101C1000AFFF0E224D49384801F076F9374B0122CB
:101C20001A705FE7FEF730FEE9E7FEF759FFEAE7D3
:101C30000E223549304801F067F9304B01221A7005
:101C400050E7002C0AD0424B1C70092241492A4817
:101C500001F05AF9294B09221A7043E70E222A494A
:101C6000254801F051F9254B01221A703AE7072C5B
:101C700001D9FF2C0AD1384B1C700B2237491E4862
:101C800001F042F91D4B0A221A702BE70E221E4961
:101C9000194801F039F9194B01221A7022E7032C77
:101CA00001D9FF2C1ED12E4B1C702B4B1878FF280E
:101CB00012D1274B1878FF2811D1294B1878FF280B
:101CC00001D0FFF713FA0E2226490B4801F01CF948
:101CD0000A4B01221A7005E7FFF702F9E9E7FFF75F
:101CE000DDFAEAE70E220849034801F00DF9034B3B
:101CF00001221A70F6E6C046CC01002074020020D2
:101D00002444000088440000D844000098440000A7
:101D1000A8440000B8440000C8440000FDFF0000D3
:101D200092000020E844000090000020F4440000ED
:101D30009100002000450000B20000201045000086
:101D4000B00000201C450000B10000202845000024
:101D5000B500002038450000B300002044450000D5
:101D6000B400002050450000F8B5154B00221A7051
:101D700001F0E3FBFFF7AAFBFFF7FCFBFFF71AFDFF
:101D8000FFF7E4FD0F4B01221A70BFF35F8F62B6BD
:101D9000FFF7F2FD0C4C0D4F2600002503E00C4B25
:101DA0001B78002B07D12378002BF8D03888FFF759
:101DB0002DFE3570F3E7FFF7E7FD054B1D70F2E7E9
:101DC0007402002001000020C8010020F40100205E
:101DD000880100200C4B1B68002B06D1EFF3108309
:101DE000002B07D0094B00221A70074A13680133F1
:101DF0001360704772B6BFF35F8F054B00221A70F5
:101E0000024B01321A70F0E7B8000020BC0000203D
:101E100001000020084B1A68013A1A601B68002B69
:101E200009D1064B1B78002B05D0054B01221A70F7
:101E3000BFF35F8F62B67047B8000020BC0000207F
:101E400001000020704700B583B001AB80221A70FA
:101E50000A785A704A789A708A78DA70190001F014
:101E600055FB03B000BD10B5490881420CD30024D6
:101E700000E01C00091A631C9BB28842F9D9FF2CB0
:101E800004D81480002010BD4020FCE74020FAE771
:101E9000F0B5DE4657464E464546E0B589B00C00E3
:101EA000059212AA117802004A43A24200D9CCE05E
:101EB000002B59D102000800002101F02BFE8146C1
:101EC0002600002700230024009301940022002311
:101ED0003F21202082461F388446029603970C003B
:101EE000C84612E05146091B6546CD4013E00298F2
:101EF0000399121A8B414846009E019F30433900D6
:101F0000294300900191013C1BD3202149426118D3
:101F1000E8D465468D406146A140894692185B41F0
:101F2000100019004646354203D06646064332008B
:101F30000B00029803999942E5D8D8D19042E2D893
:101F4000D5E700200121009B019CC01AA141030C90
:101F50000A041A43059B1A80002009B03CBC904635
:101F60009946A246AB46F0BD0022012BF2D1630F89
:101F70000493E30098460A000023002101F0CAFD03
:101F800004000D0000239C46069320339B46012647
:101F90006346079346E05946C91B3000C840824655
:101FA00010E000980199121A8B41029948460143AA
:101FB0000291013F25D3202149427918EBD430000A
:101FC000884082463100B940894692185B41100032
:101FD000190044464D462C40A4465446049D2C40CE
:101FE000A246644655462C4303D0340004432200E5
:101FF0000B00009801999942DBD8D2D19042D8D8F1
:10200000CFE7009C019D029B079A9B1ADB081049B1
:102010008B4212D9069B0133DBB206930132079241
:10202000082B08D000230293002200233F210094B4
:1020300001950F00BFE740208FE74020069A082A4D
:1020400000D18AE752031A4384E7402085E7C0465F
:10205000FF1F000010B582B004000F4B1B78002B4F
:102060000BD0002909D10C4B5878001B4342584132
:1020700040421C2398431D300CE001A90C700C2039
:1020800001F0D0F90C2001F08FF9034B5C700122B4
:102090001A70002002B010BDC0000020434B9842CF
:1020A00033D00AD9424B984251D0424B98425FD02C
:1020B000414B98423AD000207047404B98420FD095
:1020C0003F4B9842F7D101291BD0002963D0022948
:1020D00019D003394842484140423A490840EBE7A9
:1020E00001290AD0002954D0022908D003394842D6
:1020F0004841404234490840DEE73448DCE7344890
:10210000DAE73448D8E73448D6E701290AD000296D
:1021100043D0022908D003394842484140422F4960
:102120000840C9E72E48C7E72E48C5E701290AD06D
:10213000002934D0022908D003394842484140429E
:1021400029490840B8E72948B6E72948B4E70129F2
:102150000AD0002925D0022908D003394842484135
:10216000404224490840A7E72348A5E72348A3E7BE
:1021700001290AD0002916D0022908D00339484283
:10218000484140421E49084096E71E4894E71E48D1
:1021900092E71E4890E703208EE71D488CE71D4814
:1021A0008AE71D4888E71D4886E7C04600100042C0
:1021B00000180042001C00420014004200080042C7
:1021C000000C004203001F0003000700030005008D
:1021D000030006000300010003001E0003000B00C3
:1021E0000300090003000A000300130003001100AC
:1021F0000300120003000F0003000D0003000E0097
:102200000300190003001700030018000300040076
:10221000030008000300100003000C000300160078
:1022200030B587B069460C4B0A0032CB32C232CB94
:1022300032C2009B83420BD001239A006946525858
:10224000824206D00133062BF7D1002007B030BD03
:102250000023D8B2FAE7C04660450000704700008E
:10226000F0B50A4B1B78002B0CD1094F094E0A4DD3
:102270000024DE515A1914600433182BF9D1034B92
:1022800001221A708000024BC150F0BDC200002034
:10229000C40000205D2200007802002000B583B059
:1022A00007236A461370013353700133937001336F
:1022B000D3700133137101335371FFF7B1FF6B46D4
:1022C000185603B000BD000010B5024B1B6800207B
:1022D000984710BDC400002010B5024B5B68012078
:1022E000984710BDC400002010B5024B9B68022027
:1022F000984710BDC400002010B5024BDB680320D6
:10230000984710BDC400002010B5024B1B69042083
:10231000984710BDC400002010B5024B5B69052032
:10232000984710BDC4000020F0B5C64600B58AB07D
:1023300004000D00160021600B689B0700D5DAE051
:102340000B680520DB0700D5CFE00800FFF768FF2A
:102350006A4A116A871C0123BB400B43136209A917
:102360002027F35D0B700D30C3B20193180001F00C
:1023700059F8019801F018F8F05D0021FFF76AFEA6
:102380003378012B3ED03378002B03D12B68082201
:1023900013432B600023E36023616361A361E36166
:1023A000636223620025A38523852E33E554013320
:1023B000E5540133E5542D3B237225712068FFF766
:1023C0002FFF07004E49FFF74BFFBF004D4BFC505E
:1023D0002368984604AB80221A705D707F3A9A7029
:1023E000DD703378002B02D104AB00229A70736A3F
:1023F0000593B36A0693F36A0793336B0893002738
:1024000005AD0BE02B680C2213432B60BBE7404665
:10241000FFF744FE07E00137042F0ED0F9B2BB00EE
:1024200058590028F3D0431CF5D002AB1872000CA9
:10243000C0B204A901F06AF8EDE733786371337C28
:10244000A371B37CE37102AB0022DA803378012BF5
:1024500014D03378002B26D17069328B43465B69E8
:10246000F17E0904B47E2143194343465961337F09
:102470001100002B19D04021114316E02068FFF70E
:10248000CFFE0D30C0B200F0D9FF010002AB9A1DA3
:102490007069FFF7E8FC00282BD102AB06331B78EC
:1024A00042469372D5E7002100207368B268134357
:1024B000F26813430343327C0A43717C002903D141
:1024C00011498978890701D580210B43B17C002906
:1024D00002D0802189020A43414609680B434146E4
:1024E0000B604B681A434A6000200AB004BC904657
:1024F000F0BD1720F9E71C20F7E7C04600040040B4
:102500004D2900007802002000200041F0B5DE4691
:1025100057464E464546E0B583B088463021415C7B
:10252000052979D0002A79D0C179002978D041795C
:10253000002903D101688C7BA4070ED4013A94B220
:102540000025042202218A4601398C46DB05DB0D79
:10255000994604239B4646463AE002248C73EDE7F5
:1025600001688B7B67463B42FBD08B7B3B4235D07F
:102570004B460B832FE00768BB7B134206D12F4BE2
:10258000B97B114202D1013B002BF9D1BB7B5146F3
:102590000B4204D1BB7B134220D1122743E002231C
:1025A000BB7304273FE08379012B2AD0098BFF23DB
:1025B0000B40019900293ED1691C89B27355877976
:1025C000012F22D00D00013CA4B21D4B9C4221D012
:1025D0004379012BC4D04379002BCCD001688B7B8D
:1025E0001342FCD08B7B13421CD00B8A002701972F
:1025F0001342D8D00B8A5F463B430B821E230193C4
:10260000D1E70B8BDB05DB0DD3E70235ADB21B0A3F
:102610007354D8E7019F06E0052704E0172702E07E
:102620001C2700E01027380003B03CBC90469946B8
:10263000A246AB46F0BD019FF5E7C046102700005B
:10264000FFFF000010B544791523012C6BD1002A3F
:1026500059D04B78002B45D003689B7BDB072DD5E9
:102660000A78D4090023002C04D15309DB01304C33
:10267000A44663441F2414400122A2405A61036807
:102680009A7BD20701D58A781A83C2790023002A5F
:1026900049D102680421937B0B42FCD0937B5B07FA
:1026A00043D5138A5B0703D5138A04210B43138296
:1026B0008379012B13D0138B002334E00A78D109DE
:1026C0000023002904D15309DB0119498C466344D6
:1026D0001F21114001228A409A61052323E0138BB8
:1026E000002320E00A78D1090023002904D15309EE
:1026F000DB010F498C4663441F21114001228A40AF
:102700005A6100230FE00A78D1090023002904D17F
:102710005309DB0106498C4663441F211140012205
:102720008A409A610023180010BD0023FBE7C046D1
:1027300000440041F0B5DE4657464E464546E0B5FA
:1027400083B03023C35C052B00D1E7E0002A00D121
:10275000E6E04379002B03D103689C7BA40709D4EE
:102760009046002401230225AC460235AB46013ACF
:1027700092B227E002249C73F2E70668B57B1D4203
:1027800006D16F4DB77B1F4202D1013D002DF9D11B
:10279000B57B67463D4204D1B57B1D4218D112235B
:1027A000BFE00223B3730233BBE00234A4B2CF5DB7
:1027B0003F0255463D4319E0551EADB2C679002E85
:1027C0001BD12A005F4DAA4270D04579002DD4D08C
:1027D0000668B57B1D42FCD0671CBFB20D5DAA46E2
:1027E0008579012DE1D05446A5B23C00B77B1F424C
:1027F000E2D0ED05ED0D3583DEE74579002D17D0EC
:102800000668B57B5F463D42FBD0B57B3D420AD0B2
:10281000358A3D4203D0358A04273D433582857988
:10282000012D41D0358B4546013DADB2A8469EE70E
:10283000454E019112E00234A4B24946019F795CF1
:102840000902009F0F4319E0013A92B20768BD7B6D
:1028500059460D4219D1013E002E16D00568AF7BB6
:102860001F42F3D0671CB9B289460199095D0091F6
:1028700081790129DFD069460F884C46A97B19422E
:10288000E2D0FF05FF0D2F83DEE70199BD7B664691
:10289000354205D1BD7B5E463542B1D1122340E0C1
:1028A0000223BB7302333CE0358BBCE74379012B39
:1028B0000BD0002B3DD1C279002A32D0042404254C
:1028C00043464646002B1BD12BE0016802228B7B3E
:1028D0001342FCD0002324E08B7B23422BD08B7B44
:1028E000234209D00B8A234202D00B8A2B430B824E
:1028F0008379012B10D00B8B013EB6B2002E1CD079
:1029000001688B7B2342E7D10D4B8A7B2242E3D1C6
:10291000013B002BF9D1DFE70B8BEDE7052300E04E
:102920001723180003B03CBC90469946A246AB461C
:10293000F0BD0023F5E71223F3E70023F1E7C046DB
:1029400010270000FFFF000011270000F8B58000ED
:10295000754BC45826682F23E75C2E22A25C1740D3
:10296000B37B757B1D40EB072DD56379012B24D0FC
:10297000002B28D1237A002B25D02168626A137896
:10298000DBB2501C6062A079012861D09BB2DB05EC
:10299000DB0D0B83A38D013B9BB2A385A38D9BB263
:1029A000002B10D101333373237A012B0BD1E37940
:1029B000002B08D10233737305E0237A002B36D045
:1029C000237A002BD9D16B0716D5338A5B0745D5FF
:1029D000237A012B0BD030231E22E2542D3B23728D
:1029E000023333733B0702D52000A3699847338B2A
:1029F000338A042213433382AB0717D56379002B44
:102A000010D107333373053BB373013323720023B3
:102A1000A385238500223033E254FB0602D5200033
:102A2000E36998476379012B00D166E0F8BD3F4B1D
:102A30001B883383638D013B9BB26385638D9BB29F
:102A4000002B01D1013333736379012BB8D08FE7A9
:102A50005078000203430232626298E7237A012B26
:102A600025D023681B8BDB05DB0DDAB2216A0A70E7
:102A7000226A511C2162A179012931D0238D013BA9
:102A80009BB22385238D9BB2002BB5D1303300221E
:102A9000E2542C3B3373237A022B27D0237A002B6A
:102AA000AAD1BB07A8D5200023699847A4E72368CB
:102AB0001B8B638D013B9BB26385638D9BB2002BA7
:102AC00000D099E7043333732C330022E2542D3BBA
:102AD0002372FB0700D48FE72000E36898478BE759
:102AE0001B0A5370236A01332362C7E77B0700D4B4
:102AF00082E72000636998477EE7237A012B00D0A4
:102B000094E7E379002B00D090E70233337301336D
:102B100023722D330022E254FB0700D486E7E368DA
:102B20002000984782E7C0467802002090020020EB
:102B3000F8B504000D0016000768FFF74BF9A38BEA
:102B40009BB2002B0AD1A683FFF764F965612223AB
:102B50000522E2541E3B7B730020F8BDFFF75AF9B3
:102B60000520FAE7931C9B00195020210123934074
:102B70001A00435C13434354704710B50122FFF71A
:102B8000D7FF10BDF8B58000494BC5582C68238A83
:102B90001BB2002BFBDBA37B667B1E402023EB5C80
:102BA0002122AF5C1F40F30722D5EB8B9BB2002B99
:102BB0001CD0AA691378DBB2511CA961697901297B
:102BC0000ED09BB2DB05DB0D2383EB8B013B9BB26D
:102BD000EB83002B0CD1013323730133637307E0C4
:102BE000517809020B430232AA61EBE701232373F8
:102BF000B30709D50223237321330022EA54FB07CC
:102C000002D52800AB68984773074FD5AB8B9BB2B2
:102C1000002B49D0238ADBB25A0722D09A070CD561
:102C200022231A22EA54238A0222134323827B0797
:102C30003CD52B692800984738E05A0707D522234E
:102C40001E22EA54238A042213432382EFE7DB0780
:102C5000EDD522231322EA54238A0122134323822F
:102C6000E5E7238BDB05DB0DDAB269690A706A6977
:102C7000511C69616979012910D0AB8B013B9BB272
:102C8000AB83002B12D1043323731E330022EA548A
:102C9000BB070BD5EB682800984707E01B0A537069
:102CA0006B6901336B61E8E704232373F8BDC04609
:102CB00078020020F0B5D6464F464646C0B58CB0E7
:102CC00005000E00140029600800FFF7A9FA0300B0
:102CD0003268D20700D5EFE032681C20920700D599
:102CE000EBE07949086A9F1C0122BA4002430A625C
:102CF0000BA9627F0A700D33DFB2380000F092FB3F
:102D0000380000F051FB607F0021FFF7A3F9E37A60
:102D10006B71237DAB71637DEB712F683800FFF71A
:102D20007FFA0E2302AA9446634400221A80236885
:102D3000E26813439846A37D5B0799466368002BBE
:102D400062D08022520593424CD02A68138A1BB26B
:102D5000002BFBDB0E2302AA944663441B887B8175
:102D60004146636819434B461943E37D002B01D16B
:102D700004331943227D5204637D1B041A43A37A52
:102D8000E07A03431A432389FF2B03D080204004B9
:102D900001431A43237F002B03D14C4B9B789B07A5
:102DA00001D5802319432868038A1BB2002BFBDB63
:102DB0007A602A68138A1BB2002BFBDB39600AABEE
:102DC00080221A7000225A70DA709A70236A069371
:102DD000636A0793A36A0893E36A0393099300273E
:102DE00006AC3BE0E37D002BAFD123699A460D3062
:102DF000C0B200F023FB01000E2202AB9C466244ED
:102E00005046FFF730F80DE0E37D002B0DD0102386
:102E1000009300230E2202A98C466244A169206916
:102E2000FFF736F8002890D047E023699A460D3026
:102E3000C0B200F003FB01001023009300230E2218
:102E400002A8844662445046FFF722F8EAE73000C1
:102E5000FFF724F907E00137042F10D0F9B2BB00C7
:102E600018590028F3D0431CF5D002AB20229B1840
:102E70001870000CC0B20AA900F048FBEBE7002371
:102E8000AB60EB602B61AB616B610022EB83AB83CA
:102E90002033EA540133EA540133EA540133EA544B
:102EA0002868FFF7BDF904000949FFF7D9F9A40024
:102EB000084BE550002000E005200CB01CBC9046FB
:102EC0009946A246F0BDC0460004004000200041E3
:102ED000852B000078020020C379002B0FD0C38B14
:102EE0009BB2002B0DD10268138A1BB2002BFBDBB7
:102EF00011830221937B0B42FCD0002070471C20E1
:102F0000FCE70520FAE70000F0B5D6464F464646F6
:102F1000C0B580468946002A42D0C379002B45D0EF
:102F20000468238A1BB2002BFBDB013A96B2002710
:102F30000125234B9A4610E07B1C9BB24A46D15D8B
:102F400042465279012A15D089B21F004046FFF748
:102F5000C3FF013EB6B2564513D0A37B2B42EBD143
:102F6000174BA27B2A42E7D1012B21D0013B002B3A
:102F7000F7D1E1E70237BFB24A46D35C1B021943DF
:102F8000E4E7A37B9B0715D40D4B0221A27B0A42E9
:102F900012D1012B12D0013B002BF7D1002000E011
:102FA00017201CBC90469946A246F0BD1C20F8E7AD
:102FB0001220F6E70020F4E70020F2E71220F0E705
:102FC000FFFF000010B5072803D88000164B1B58E0
:102FD0009F46002025E0154BD86822E0144B1B6A61
:102FE0009B059B0F1348D8401BE0104B186918E055
:102FF0000E4B1B6800209B0713D50D491022CB6890
:103000001A42FCD0094B1B685B070BD5002000F06F
:1030100015FA064B9B681B041B0C584301E08020EB
:10302000000210BD0448FCE778450000DC000020E9
:103030000008004000127A00006CDC0270B50C49F8
:103040000B6A047885784078012210408001402680
:10305000B34303432A40D201802083431343032216
:10306000224012020348034013430B6270BDC04666
:1030700000080040FFFCFFFF10B5264B9A691205BF
:10308000120F022A18D8037A1B02F82149010B40BB
:10309000817A0B4320494B608379C1790B43418886
:1030A000848821430B434178C9010B431A490B60C3
:1030B0000378042B0AD010BD037A9B061B0C4189B0
:1030C0008905890D0B4314494B60E5E7022A14D8A2
:1030D000037B1B06F82252051340C2891204FF210C
:1030E00009040A401343028A13430B4A93600A4AB5
:1030F000136804210B431360DDE7037B9B06028A00
:103100001343C289120405490A401343024A9360DB
:10311000EDE7C04600200041DC0000200000FF0376
:10312000072803D880001E4B1B589F46172036E007
:103130001C4A136A02210B43136200202FE0194A34
:10314000936902210B439361002028E0154A138AFA
:1031500002210B431382002021E0124A938A0221AC
:103160000B43938200201AE00F4B1A6802210A4396
:103170001A601B680D4A13400A4A938411001022FA
:10318000CB681A42FCD0084A9168064BD962516854
:103190009962126892B29A84002000E00020704781
:1031A0009845000000080040DC0000207FFF000080
:1031B00030B585B01B4BC222D2009A601A4A5368C0
:1031C0001E218B43536001236A4613700024E0B232
:1031D000694600F027F901341C2CF8D103A800241B
:1031E0004470012585700470FFF728FF0620FFF763
:1031F00097FF00F01DF80D4B1C725C729C72DC7224
:1032000001956B465C7006236A4613701472547203
:103210006946002000F01EF8002000F069F805B0B3
:1032200030BDC0460008004000400041000400409E
:10323000064A936908210B439361054B01221A70DA
:1032400019000B781342FCD17047C04600040040BF
:10325000000C004070B505000C78240204434B7844
:10326000002B02D08023DB021C434B7A002B02D0C0
:1032700080231B031C434B68012B0FD95A1E13429A
:103280002CD1022B28D9022200250135520093426D
:10329000FBD82D02054380235B031C430B7A002BD4
:1032A00002D080239B031C43104A53785BB2002B4F
:1032B000FBDBFEF78FFD0D4B9D601A0053785BB270
:1032C000002BFBDB094A5368802149020B401C4359
:1032D0005460FEF79FFD70BD0025DAE71B0218431E
:1032E000050080239B021C43D8E7C046000C004029
:1032F00010B504000B4A53785BB2002BFBDBFEF7E2
:1033000069FD094B1C70074A53785BB2002BFBDB4D
:10331000044A516880235B020B435360FEF77AFD39
:1033200010BDC046000C0040040C004070B5050004
:103330001A4A53785BB2002BFBDBFEF74BFD184BB0
:103340001D70164A53785BB2002BFBDB134E70687E
:10335000C004C00EFFF736FE0400114B1D707668E6
:10336000F602F60F0F4B1D700C4A53785BB2002B20
:10337000FBDB0A4B9D682D022D0CFEF74BFD002E4A
:1033800007D1012D07D92900200000F037FB0400E8
:1033900001E00135EC40200070BDC046000C00404B
:1033A000040C0040080C004010B50400FEF712FDAC
:1033B000054B1C70054A53888021C9010B4353807B
:1033C000FEF728FD10BDC046020C0040000C004076
:1033D00010B50400FEF7FEFC0E4B1C700E494B8826
:1033E0001B051A0F4B880D4803404B804B880C4837
:1033F00003404B8008008021C90143880B42FCD167
:10340000054841881302054A0A4013434380FEF7EA
:1034100001FD10BD020C0040000C0040FFF0FFFF5A
:10342000FFBFFFFF10B50C7824020443FFF7D0FF65
:10343000A4B2014B5C8010BD000C004010B504002C
:10344000FEF7C8FC054B1C70054B5C882405240F57
:10345000FEF7E0FC2000FFF769FF10BD020C004002
:10346000000C004030B5D378002B35D11378802B79
:1034700029D01B0680246402234354780225AC43E0
:1034800006D19478002C20D18024A40223434160EB
:103490005478013C012C1CD90D042D0CA024E4050A
:1034A0002C431C4384620D0CD02424062C431C4363
:1034B0008462D478002C22D15B031CD59378012B35
:1034C0001ED0416117E00023D7E7C024E402234364
:1034D000DDE70D4C2340DFE741600C04240CA02302
:1034E000DB05234383620C0CD0231B06234383623A
:1034F000D378002B03D15378013B012B02D930BD87
:103500008161F8E78160FAE7FFFFFBFF10B50A0071
:10351000C1090023002904D14309DB0105498C4678
:1035200063441F242040012181401800FFF79AFFC7
:1035300010BDC04600440041704710B5FFF738FE8B
:10354000FEF780FCFFF7F8FFFFF7F6FFFFF7F4FF49
:1035500010BD000030B589B069460D4B0A0032CB72
:1035600032C232CB32C212CB12C2009B98420BD075
:1035700001239A0069465258824206D00133082B33
:10358000F7D1002009B030BD0023D8B2FAE7C04619
:10359000B8450000F0B5C64600B588B004000E007E
:1035A00015000800FFF7D6FF804606AB13221A70FD
:1035B0005A7001329A70DA7001321A715A710132FE
:1035C0009A71DA7102AA854B203383CB83C21B68C0
:1035D00013600023A360E360236163612376637655
:1035E00043469A007E4BD4502660AB78082B00D11E
:1035F0008CE023713388DB0700D5E6E0F37BDB0644
:1036000000D5E7E033889B0700D5E5E02B7C002B55
:1036100000D081E02B7F002B00D089E07149086A3F
:1036200043465A0002ABD35A03430B62AB78082BD4
:1036300000D18AE02B786A46137006AB42469F5C45
:1036400069463800FFF7EEFE3800FFF7ADFEA978B7
:10365000AB7919432B89AA88134319436B78002B44
:1036600002D080231B0119432268D37B5BB2002B5D
:10367000FBDB3180697B4B1E99418900AB7B002BC2
:1036800001D0012319432268D37B5BB2002BFBDB03
:10369000FF233371002905D02268D37B5BB2002B56
:1036A000FBDB7171A97AEB7A002B01D0102319434F
:1036B0002B7B002B01D0202319432268D37B5BB2E4
:1036C000002BFBDBB1712268D37B5BB2002BFBDBF1
:1036D0002379042B42D0082B61D01720002B75D101
:1036E000D37B5BB2002BFBDB2B8D33822268D37B39
:1036F0005BB2002BFBDB6B8D33832268D37B5BB229
:10370000002BFBDBAB8D738300205FE04246D207CA
:1037100000D46EE7172059E001A901238B70002225
:10372000CA70AA690A704B70287DFFF7EFFE71E737
:1037300001A901238B700022CA706A6A0A704B705B
:103740002B6AD8B2FFF7E2FE68E7086A43465A1CC4
:10375000520002ABD35A03430B626BE7D37B5BB2DD
:10376000002BFBDB2823EB5C33742268D37B5BB23A
:10377000002BFBDB2923EB5C33752268D37B5BB228
:10378000002BFBDB2A23EB5C33762268D37B5BB216
:10379000002BFBDB2B23EB5C7376002016E0D37B46
:1037A0005BB2002BFBDBAB6A33612268D37B5BB27D
:1037B000002BFBDBEB6AB3612268D37B5BB2002B8F
:1037C000FBDB2B6BF361002000E0052008B004BC9C
:1037D0009046F0BD1C20F9E71C20F7E7B845000033
:1037E00094020020000400400268D37B5BB2002BEF
:1037F000FBDB0379042B05D0082B0BD01720002B03
:1038000004D07047C9B211740020FAE789B211825E
:103810000020F6E711610020F3E710B50468E37BB0
:103820005BB2002BFBDB0379042B05D0082B14D0F3
:103830001720002B08D010BD17200129FBD8D2B2C9
:1038400061180A760020F6E717200129F3D892B212
:103850000C3149000A530020EDE717200129EAD86E
:10386000063189000A510020E5E7931C9B0019509E
:10387000022A09D0032A0CD0012393401A00037EA8
:103880001343037600207047037E10221343037610
:10389000F8E7037E202213430376F3E770B5800038
:1038A000144BC45823689D7B227E637E13401D40C9
:1038B000EB0705D52000A36898470123226893737E
:1038C000AB0705D52000E36898470223226893736D
:1038D000EB0605D5200023699847102322689373CF
:1038E000AB0605D5200063699847236820229A73A8
:1038F00070BDC0469402002010B50020FFF7CEFF37
:1039000010BD10B50120FFF7C9FF10BD10B5022092
:10391000FFF7C4FF10BD10B50320FFF7BFFF10BDB8
:1039200010B50420FFF7BAFF10BD10B50520FFF752
:10393000B5FF10BD10B50620FFF7B0FF10BD10B5E4
:103940000720FFF7ABFF10BD0300064A1268002AEC
:1039500004D0044A1068C31813607047014A024932
:103960001160F6E7F0000020B8220020FEE700001A
:1039700010B5194A194B9A4211D01A00184B9A42A5
:103980000DD20333174A9B1A9B0801339B00002278
:10399000124811498C58845004329A42FAD1124A82
:1039A000124B9A4209D2111D03335B1A0320834341
:1039B0005B18002102C29A42FCD10D4BFF229343B7
:1039C0000C4A93600C4A536880210B43536000F00B
:1039D000CBF8FEF7C9F9FEE79C4600000000002086
:1039E000680000200400002068000020B8020020C9
:1039F0000000000000ED00E000400041002243080C
:103A00008B4274D303098B425FD3030A8B4244D3A6
:103A1000030B8B4228D3030C8B420DD3FF220902E8
:103A200012BA030C8B4202D31212090265D0030BA7
:103A30008B4219D300E0090AC30B8B4201D3CB039D
:103A4000C01A5241830B8B4201D38B03C01A5241DF
:103A5000430B8B4201D34B03C01A5241030B8B42E1
:103A600001D30B03C01A5241C30A8B4201D3CB02CC
:103A7000C01A5241830A8B4201D38B02C01A5241B1
:103A8000430A8B4201D34B02C01A5241030A8B42B4
:103A900001D30B02C01A5241CDD2C3098B4201D3CC
:103AA000CB01C01A524183098B4201D38B01C01A4A
:103AB000524143098B4201D34B01C01A52410309C1
:103AC0008B4201D30B01C01A5241C3088B4201D370
:103AD000CB00C01A524183088B4201D38B00C01A1D
:103AE000524143088B4201D34B00C01A5241411A44
:103AF00000D20146524110467047FFE701B5002051
:103B000000F006F802BDC0460029F7D076E77047FE
:103B10007047C046F0B5CE46474615042D0C2E0022
:103B200080B50704140C3F0C9946030C7E435D439B
:103B3000674363437F19340CE4199C46A54203D9BB
:103B400080235B029846C4444B4643435143250CB3
:103B500036046544360C2404A4195B195918200056
:103B60000CBC90469946F0BD70B500260C4D0D4C2E
:103B7000641BA410A64209D1002600F07FFD0A4D67
:103B80000A4C641BA410A64205D170BDB300EB58CB
:103B900098470136EEE7B300EB5898470136F2E755
:103BA0008846000088460000884600008C460000D9
:103BB000002310B59A4200D110BDCC5CC45401332F
:103BC000F8E703001218934200D1704719700133CF
:103BD000F9E700000EB400B50B499CB01DAB029094
:103BE0000690079104910948094904CB05910068A2
:103BF00002A9019300F0CEF80023029A13701CB0C2
:103C000008BC03B01847C046FFFFFF7F0400002038
:103C10000802FFFF032370B5CD1C9D430835060045
:103C20000C2D1ED20C25A9421DD8300000F056FBE9
:103C3000254A14682100002919D1244C2368002B3F
:103C400003D1300000F01AFB20602900300000F0A2
:103C500015FB431C2BD10C233000336000F03FFBDD
:103C600003E0002DDFDA0C233360002070BD0B6809
:103C70005B1B19D40B2B03D90B60CC18256003E018
:103C80004B688C420DD11360300000F028FB2000FF
:103C900007220B30231D9043C31AE7D05A42E2504B
:103CA000E4E763600C00EFE70C004968C3E7032317
:103CB000C41C9C43A042E1D0211A300000F0DEFA7F
:103CC000431CDBD1C7E7C046F4000020F800002009
:103CD000F0B58E6885B007000C00039201939E42F8
:103CE0003CD890238A89DB001A4234D00325096925
:103CF00023685B1A0293636902985D43EB0F5D19B9
:103D0000019B6D1001331B18AB4200D91D005305F8
:103D100032D529003800FFF77DFF061E09D10C239C
:103D20003B6040230120A28940421343A38105B098
:103D3000F0BD029A2169FFF73BFFA389144A1A409C
:103D400080231343A381029B2661F61826606561D8
:103D5000019EED1AA560019B9E4200D9019E320092
:103D60000399206800F0A7FAA36800209B1BA360BA
:103D700023689E192660DAE72A00380000F0FAFA74
:103D8000061EE0D12169380000F0AAFAC7E7C04654
:103D90007FFBFFFFF0B5A1B003901D008B890F00E2
:103DA00016001B0611D50B69002B0ED14021FFF721
:103DB00031FF38603861002805D10C23039A01389F
:103DC000136021B0F0BD40237B61002308AC636128
:103DD000203363761033A376079535002B78002BBC
:103DE00001D0252B46D1AB1B05930CD032003900F6
:103DF0000398FFF76DFF431C00D1AEE06269059B9D
:103E00009446634463612B78002B00D1A5E0012226
:103E100000235242626004A9543252186E1C23607F
:103E2000E360A3601370A36531780522534800F066
:103E300037FA751C00281FD12268D30604D55323F6
:103E400004A95B1820211970130704D5532304A972
:103E50005B182B21197033782A2B16D035000021DE
:103E60000A20E3682A786E1C303A092A4ED90029C4
:103E700018D010E00135B1E7404B2268C01A012389
:103E80008340134323602E00CEE7079B191D1B6858
:103E90000791002B01DB0B9304E05B42E3600223FC
:103EA000134323602B782E2B0AD16B782A2B35D124
:103EB000079B02351A1D1B680792002B2BDB099309
:103EC0002F4E29780322300000F0EAF9002806D0AE
:103ED0004023801B834022680135134323602978E7
:103EE000062228486E1C217600F0DAF900283CD022
:103EF000254B002B25D10722079B0733934308331B
:103F000007936369049A9B18636166E74343012141
:103F10009B183500A6E701235B42D0E700230A2067
:103F20001A000135636029786E1C3039092903D9DC
:103F3000002BC5D00992C3E7424301235218350034
:103F4000F1E707AB00933A00104B2100039800E023
:103F500000BF0490049B0133D3D1BB890D985B064D
:103F600000D42EE7012040422BE707AB00933A0034
:103F7000064B2100039800F079F8EAE74846000074
:103F80004E4600005246000000000000D13C0000F8
:103F9000F7B5150001938A680B6900900C009342F5
:103FA00000DA130022002B6043321278002A01D07D
:103FB00001332B6023689B0602D52B6802332B60EC
:103FC000062723681F4027D0230043331B785A1E3F
:103FD00093412268920630D422000199433200981E
:103FE000089EB047431C25D0062320682A68E16854
:103FF00003400025042B03D18D1AEB43DB171D4032
:10400000A3682269934201DD9B1AED180027BD4287
:1040100020D1002010E00137E3682A689B1ABB42D8
:10402000D2DD22000123193201990098089EB04781
:10403000431CF0D101204042FEBD3020E118433145
:10404000087021005A1C45310978A2184332023306
:104050001170C1E7220001231A3201990098089ECD
:10406000B047431CE6D00137D1E70000F0B589B076
:1040700004920A0043320593039002920A7E0C00D8
:104080000E9B6E2A00D186E01FD8632A33D008D851
:10409000002A00D18CE0582A4DD0250042352A70E4
:1040A00030E0642A01D0692AF7D1196825680A1D11
:1040B000280629D508681A60002803DA2D23029AF9
:1040C000404213706B4E0A274FE0732A74D008D811
:1040D0006F2A1FD0702AE0D1202209680A4322608B
:1040E00003E0752A16D0782AD7D1220078214532EC
:1040F0001170614E22E025001A684235111D1960C9
:1041000013682B70012365E008681A606906D3D52F
:1041100000B2D1E719682568081D186008682E06E6
:1041200005D5544E08276F2A1BD00A2719E06D06C3
:10413000F7D580B2F5E745314E4E0A70186822680F
:10414000011D00681960150621D5D30702D520236B
:104150001A4322601027002803D1202322689A43A3
:1041600022602300002243331A706368A360002B8F
:1041700058DB0422216891432160002854D1029D1C
:10418000002B5AD02500337842352B7055E0550668
:10419000DBD580B2D9E71A680D68101D496918602F
:1041A00013682E0601D5196002E06D06FBD5198053
:1041B0000023029D23614FE01A68111D19601568E4
:1041C00000216268280000F06BF8002801D0401B35
:1041D0006060636823610023029A13703CE02369E6
:1041E0002A0004990398059DA847431C3ED02368E4
:1041F0009B0715D4079BE068984239DA180037E02E
:1042000022000123193204990398059EB047431CEC
:104210002CD00135E368079A9B1AAB42F0DCE9E742
:104220000025F7E70028ADD0029D3900FFF76CFCB0
:10423000735C013D2B700028F7D1082F09D123684A
:10424000DB0706D563682269934202DC3023013D17
:104250002B70029B5B1B2361059B07AA0093210027
:10426000049B0398FFF794FE431CB8D10120404201
:1042700009B0F0BD594600006A460000002370B541
:10428000064C050008002360FFF75EFB431C03D1CA
:104290002368002B00D02B6070BDC046B402002004
:1042A000C9B28218904201D10020704703788B4236
:1042B000FBD00130F6E710B5884202D98B1898423E
:1042C00003D3002307E08B5C8354013AFBD210BD7B
:1042D000CC5CC45401339A42FAD1F8E77047704776
:1042E00070B50500002910D00C1F2368002B00DAE0
:1042F000E4182800FFF7F2FF1D4A1368002B05D1D0
:10430000636014602800FFF7EAFF70BDA34209D97B
:10431000216860188342F3D118685B6841182160F6
:10432000EEE713005A68002A01D0A242F9D91968B1
:104330005818A0420BD120680918581819608242F9
:10434000E0D110685268411819605A60DAE7A0425B
:1043500002D90C232B60D5E721686018824203D173
:10436000106852684118216062605C60CAE7C0460C
:10437000F4000020F8B507000D001600002905D153
:104380001100FFF747FC04002000F8BD002A03D10C
:10439000FFF7A6FF3400F7E700F012F82C00B04258
:1043A000F2D231003800FFF735FC041EECD02900B2
:1043B0003200FFF7FDFB29003800FFF791FFE3E72C
:1043C0000B1F1B68181F002B01DA0B58C018704711
:1043D0005E050000680500008005000098050000EB
:1043E000740500008C0500003A0A00006A0A00000B
:1043F000760A0000820A00008E0A00009A0A000075
:10440000A60A0000B20A0000DC0B00002A0C000023
:104410007C0C0000CE0C0000260D00000D0E0F10CD
:1044200011121314321A00004C1A0000BA1A0000BC
:10443000F81A00002E1B0000861B0000BA1B0000AB
:10444000EA1B0000421C00006E1C00009E1C0000C5
:104450000D0A4163633A25366420253664202536EB
:10446000640D0A4779723A25366420253664202582
:1044700036640D0A4D61673A25366420253664207E
:104480002536640D0A00000053746F702053747257
:1044900065616D0D0A0000005374617274205374DD
:1044A0007265616D0D0A00004163632052616E67A1
:1044B000653A0D0A000000004779722052616E676C
:1044C000653A0D0A000000004D6167205072657367
:1044D00065743A0D0A00000057726F6E6720496ECE
:1044E000707574210D0A00004163632042573A0D34
:1044F0000A000000416363204D6F64653A0D0A00B5
:104500004163632055706461746564210D0A000085
:104510004779722042573A0D0A000000477972200D
:104520004D6F64653A0D0A004779722055706461D9
:10453000746564210D0A00004D61672042573A0DF1
:104540000A0000004D6167204D6F64653A0D0A0056
:104550004D61672055706461746564210D0A000027
:1045600000080042000C004200100042001400420B
:1045700000180042001C0042D62F0000D22F00007D
:10458000D22F00001E3000001E300000EA2F000075
:10459000DC2F0000F02F00004C3100002C31000017
:1045A0002C3100009C3100003E3100005A310000E7
:1045B0003031000068310000002000420024004239
:1045C00000280042002C004200300042003400422B
:1045D00000380042003C00420001000200040008D4
:1045E00000100020004000800000000000000000DB
:1045F00000000000000000000000000000000000BB
:1046000000000000000000000000000000000000AA
:10461000000000000000000000000000000000009A
:10462000000000000000000000000000000000008A
:10463000000000000000000000000000000000007A
:104640000000000000000000232D302B2000686CCB
:104650004C006566674546470030313233343536A5
:1046600037383941424344454600303132333435DE
:10467000363738396162636465660000F8B5C04654
:10468000F8BC08BC9E467047CD000000F8B5C04697
:0C469000F8BC08BC9E467047A500000066
:10469C000201000008000020000000000846000095
:1046AC0028460000E8450000000000000000000063
:1046BC0000000000000000000000000000000000EE
:1046CC0000000000000000000000000000000000DE
:1046DC0000000000000000000000000000000000CE
:1046EC0000000000000000000000000000000000BE
:0846FC000000000000000000B6
:04000003000039714F
:00000001FF
