:1000000028240020353A0000313A0000313A00003F
:1000100000000000000000000000000000000000E0
:10002000000000000000000000000000313A000065
:100030000000000000000000313A0000313A0000EA
:10004000313A0000313A0000313A0000313A000004
:10005000313A0000313A0000313A00008D230000AF
:100060009D230000AD230000BD230000CD23000030
:10007000DD230000BD390000C7390000D139000080
:10008000DB390000E5390000EF390000F9390000E4
:10009000033A0000313A0000313A0000313A0000E2
:1000A000313A000010B5064C2378002B07D1054BE0
:1000B000002B02D0044800E000BF0123237010BDD4
:1000C000D40100200000000068870000044B10B538
:1000D000002B03D00349044800E000BF10BDC04618
:1000E00000000000D801002068870000F0B583B050
:1000F00000921D006B46D97101221649164802F084
:1001000003FB6424144E01226B46D91D300002F01B
:1001100073FB002805D0013CA4B2002CF3D1643459
:1001200000E06424ADB20C4E2A000099300002F0C9
:1001300063FB071E03D0013CA4B2002CF4D10022C3
:100140000449054802F0E0FA3800471EB841404231
:1001500003B0F0BD6C020020C0020020F0B583B0F7
:1001600000921D0080235B4219436B46D971012226
:100170001649174802F0C8FA6424154E01226B464E
:10018000D91D300002F038FB002805D0013CA4B294
:10019000002CF3D1643400E06424ADB20C4E002393
:1001A0002A000099300002F013FA071E03D0013C28
:1001B000A4B2002CF3D100220449054802F0A4FAAD
:1001C0003800471EB841404203B0F0BD6C02002029
:1001D000C002002010B501F069FA10BD10B512215F
:1001E000064801F0CBF90648064B8360064BC36016
:1001F000064B436100F030F810BDC0466C02002091
:10020000A8020020ED0000005D010000D501000003
:1002100070B50500064C2468002C06D02079A4682F
:1002200013000A002900A04770BD7F204042FBE771
:10023000F001002070B50500064C2468002C06D0A3
:100240002079E46813000A002900A04770BD7F20D0
:100250004042FBE7F0010020F0B583B003006A469E
:10026000D61D0022327069468C1D8A710B4D2860A4
:100270000079DF68012332000021B8470700337896
:100280002A685370012221003E20FFF7D3FFC019D6
:100290002B6822785A7140B203B0F0BDF001002003
:1002A00030B583B0040006220021684605F063F9EA
:1002B0003E4B1B68002B00D174E03D4A1278012AA6
:1002C0002AD0002A04D0022A49D00120404221E04D
:1002D0001879DD6806236A460221A8476B46012289
:1002E0009A5612021B780F218B4313431B11238054
:1002F0006B4603229A5612029B788B4313431B11C1
:1003000063806B4605229A5612021B798B43134376
:100310001B11A38003B030BD1879DD6806236A463F
:100320000221A8476B4601229A5612021B783F21F0
:100330008B4313439B1123806B4603229A56120270
:100340009B788B4313439B1163806B4605229A561F
:1003500012021B798B4313439B11A380DAE71879B0
:10036000DD6806236A460221A8476B4601229A5699
:1003700012021B7803218B4313439B1023806B468F
:1003800003229A5612029B788B4313439B1063807F
:100390006B4605229A5612021B798B4313439B101E
:1003A000A380B7E77F204042B4E7C046F0010020B9
:1003B0000000002030B583B06B460022DA712F4B6D
:1003C0001B68002B36D003281BD16A46D51D18792F
:1003D000DC6801232A000F21A04704002B780F229C
:1003E0009343032213432B70244B1B6818799D6899
:1003F00001236A4607320F21A847001940B203B013
:1004000030BD052819D0082827D00C280FD16A46FE
:10041000D51D1879DC6801232A000F21A0470400AC
:100420002B780F2293430C2213432B70DCE702201E
:100430004042E4E77F204042E1E76A46D51D187953
:10044000DC6801232A000F21A04704002B780F222B
:100450009343052213432B70C6E76A46D51D1879CE
:10046000DC6801232A000F21A04704002B780F220B
:100470009343082213432B70B6E7C046F0010020D7
:1004800070B582B004006B460022DA712D4B1B68F8
:10049000002B4ED05A78FB2A27D00200083AD2B25D
:1004A000072A4CD801000839C9B200220720884227
:1004B0005241524214406A46D51D1879DE68012324
:1004C0002A001021B04706002B781F2293431C43BB
:1004D0002C701C4B1B6818799C6801232A00102182
:1004E000A047801940B202B070BD0200083A062A47
:1004F00022D8D1B2002206208842524152421440F2
:100500006A46D51D1879DE6801232A001021B047FC
:1005100006002B781F2293431C432C70094B1B6849
:1005200018799C6801232A001021A047801940B245
:10053000D9E77F204042D6E702204042D3E702209D
:100540004042D0E7F0010020194B1B68002B27D058
:10055000052828D82AD88000164A12589746002223
:100560009A70DA700020704702229A700022DA70C6
:100570000020F8E702229A70013ADA700020F2E7D0
:1005800004229A700022DA700020ECE704229A70AC
:10059000033ADA700020E6E701229A700020E2E7D1
:1005A0007F204042DFE702204042DCE70020DAE71C
:1005B000F001002030810000F0B5CE46474680B5FE
:1005C00085B00190002302AAD37102AA937102AAF6
:1005D0005371414B1B68002B00D17AE002AAD51D54
:1005E0001879DC6801232A001121A04704003A4F42
:1005F0003B6802AA961D1879DB68994601233200F0
:100600001221C8470419E4B20198FFF79DFF24188E
:10061000E4B23A6893789846D178890140230B4038
:100620003178402081430B433370107993689946A9
:10063000012332001221C8472418E4B23B685B69E9
:10064000012098472A781F26324080235B421343BB
:100650002B703B6818799B68994601232A00112169
:10066000C8472418E4B23B685B690120984702AB95
:10067000591D3B685B790B7001223E20FFF7C8FDD6
:100680002418E4B23B685B69012098473B681879FD
:10069000DB68994601232A001121C8472418E4B2D7
:1006A0002B7833404246520113432B703B68187934
:1006B0009E6801232A001121B047241864B23B68C8
:1006C0005B6901209847200005B00CBC9046994614
:1006D000F0BD7F246442F6E7F0010020F0B583B05E
:1006E00000921D006B46D97101221649164802F08E
:1006F0000BF86424144E01226B46D91D300002F021
:100700007BF8002805D0013CA4B2002CF3D164345E
:1007100000E06424ADB20C4E2A000099300002F0D3
:100720006BF8071E03D0013CA4B2002CF4D10022C8
:100730000449054801F0E8FF3800471EB84140422F
:1007400003B0F0BDF8020020C0020020F0B583B075
:1007500000921D0080235B4219436B46D971012230
:100760001649174801F0D0FF6424154E01226B464C
:10077000D91D300002F040F8002805D0013CA4B299
:10078000002CF3D1643400E06424ADB20C4E00239D
:100790002A000099300001F01BFF071E03D0013C26
:1007A000A4B2002CF3D100220449054801F0ACFFAB
:1007B0003800471EB841404203B0F0BDF8020020A7
:1007C000C002002010B500F071FF10BD10B51B2154
:1007D000064800F0D3FE0648064B8360064BC36014
:1007E000064B036100F00CF810BDC046F802002073
:1007F000FC020020DD0600004D070000C5070000D8
:1008000070B582B003006A46D41D00222270064DE6
:1008100028604078DE68012322000021B04722785A
:100820002B681A7002B070BDF401002030B583B09F
:10083000040006220021684604F09DFE114B1B684F
:10084000002B1CD05878DD6806236A460221A84791
:100850006B4601229A5612021B78134323806B4683
:1008600003229A5612029B78134363806B4605223B
:100870009A5612021B791343A38003B030BD7F2028
:100880004042FAE7F401002070B582B006006B46E2
:100890000022DA71134B1B68002B1CD004281DD8D2
:1008A0006A46D41D5878DD68012322000F21A8472D
:1008B0000500207807239843334018432070094BE4
:1008C0001B6858789E68012322000F21B047401909
:1008D00040B202B070BD7F204042FAE702204042A1
:1008E000F7E7C046F401002070B582B005006B4602
:1008F0000022DA710A4B1B68002B0DD06A46D41D0A
:100900005878DE68012322001021B047227807239F
:1009100013402B7002B070BD7F204042FAE7C04602
:10092000F4010020F0B5C64600B582B08046002331
:100930006A46D3716A469371224B1B68002B3DD0E7
:100940006A46D61D5878DD68012332001121A84778
:1009500007001C4B1B686A46951D5878DC6801230C
:100960002A001221A047C01940B233785B09052242
:100970001A4029784C0608D4C909002A0CD100294C
:1009800006D100234246137002E00423424613704E
:1009900002B004BC9046F0BDDB0707D4042AF7D1AF
:1009A000002907D0032342461370F1E70123424692
:1009B0001370EDE7022342461370E9E77F204042BF
:1009C000E6E7C046F401002070B582B005006B4632
:1009D0000022DA710A4B1B68002B0DD06A46D41D29
:1009E0005878DE68012322001221B04722780723BD
:1009F00013402B7002B070BD7F204042FAE7C04622
:100A0000F401002070B582B006000C006B46002295
:100A1000DA71314B1B68002B57D05878DD68012301
:100A20006A4607321221A8470500072E50D8072C26
:100A300045D8A400294B1B599F46311C002E00D1DC
:100A40000121C9B26B46DA1D1378072083430140A8
:100A50000B431370204B1B6858789C6801231221AC
:100A6000A047401940B202B070BD311C002E00D129
:100A70000121C9B2E6E7311C002E00D10121C9B223
:100A8000E0E7311C012E00D80221C9B2DAE7311C9F
:100A9000032E00D80421C9B2D4E7311C052E00D89A
:100AA0000621C9B2CEE7311C032E00D80421C9B2F9
:100AB000C8E7311C052E00D80621C9B2C2E7311C97
:100AC000002E00D10121C9B2BCE77F204042CAE715
:100AD00002204042C7E7C046F401002048810000E0
:100AE000F0B583B0070000236A46D3716A4693715C
:100AF0006A4653711D4B1B68002B30D0072831D834
:100B00006B469C1D2000FFF70DFF2378042B1CD0A3
:100B1000164E33686A46D41D5878DD6801232200DA
:100B20001021A84705002078072398430721394062
:100B300008432070336858789E68012322001021F2
:100B4000B047401940B203B0F0BD6B465C1D2000B9
:100B5000FFF73AFF20783900FFF754FFD8E77F20EE
:100B60004042F0E702204042EDE7C046F401002099
:100B7000F0B5C64600B582B0060000236A46D371C0
:100B80006A4693716A46537101AA13706A46D3701C
:100B9000874B1B68002B00D104E1042800D904E135
:100BA0005878DC6801236A4607321121A047040007
:100BB0007F4B1B685878DD6801236A460632122194
:100BC000A8470419E4B2042E03D8B600794B9B5908
:100BD0009F4660B202B004BC9046F0BD6B46DA1D81
:100BE00011785F230B4013706B4698797F21014089
:100BF00099716B465F1D3F2303403B706C4E336819
:100C000058789D6801231121A847050033681B69A6
:100C100001209847336858789E6801233A001221D2
:100C2000B0472818201840B2D4E76B46DA1D117877
:100C30005F230B4020210B4313706B4698797F2173
:100C4000014099716B465E1D3F2303403370584D40
:100C50002B6858789F6801231121B84707002B683B
:100C60001B69012098472B6858789D680123320042
:100C70001221A8473818201840B2ABE76B46DA1D9E
:100C800011785F231940DF3B0B4313706B46987953
:100C90007F21014099716B465F1D3F2303403B70EC
:100CA000434D2B6858789E6801231121B0470600F8
:100CB0002B681B69012098472B6858789D68012391
:100CC0003A001221A8473018201840B282E76B463C
:100CD000DA1D13785F21194080235B42194311709C
:100CE0006946881D89791D000D4305706846461DBB
:100CF000402081430B4333702D4F3B6858789D68EB
:100D000001231121A84705003B681B690120984772
:100D10003B6858789F68012332001221B847281891
:100D2000201840B256E76B46DE1C3000FFF7DCFDB2
:100D300001AD2800FFF748FE31782878FFF762FE02
:100D40001B4E33686A46951D5878DF6801232A00D8
:100D50001221B84707006B46DA1D11785F230B405C
:100D6000137029787F230B402B7069464D1D40215D
:100D70000B432B70336858789B68984601231121E8
:100D8000C04738182418E4B233681B69012098471B
:100D9000336858789E6801232A001221B047201832
:100DA00040B217E77F20404214E70220404211E79B
:100DB000F401002068810000F0B583B000921D00AE
:100DC0006B46D97101221649164801F09DFC642436
:100DD000144E01226B46D91D300001F00DFD002894
:100DE00005D0013CA4B2002CF3D1643400E06424AB
:100DF000ADB20C4E2A000099300001F0FDFC071E38
:100E000003D0013CA4B2002CF4D1002204490548CF
:100E100001F07AFC3800471EB841404203B0F0BDF3
:100E200030030020C0020020F0B583B000921D0006
:100E300080235B4219436B46D9710122164917483A
:100E400001F062FC6424154E01226B46D91D30006E
:100E500001F0D2FC002805D0013CA4B2002CF3D153
:100E6000643400E06424ADB20C4E00232A000099E3
:100E7000300001F0ADFB071E03D0013CA4B2002CF2
:100E8000F3D100220449054801F03EFC3800471E1A
:100E9000B841404203B0F0BD30030020C002002042
:100EA00010B500F003FC10BD10B51221074800F08A
:100EB00065FB0748074B4360074B8360074BC360E4
:100EC00000F036FA002000F011F910BD30030020C8
:100ED00010030020B90D0000290E0000A10E000033
:100EE00070B582B005006B460022DA71114B1B68A9
:100EF000002B1BD06A46D41D58789E68012322001F
:100F00004C21B0470600207838239843ED001D405F
:100F100028432070074B1B6858785D680123220026
:100F20004C21A847801940B202B070BD7F204042DA
:100F3000FAE7C046F8010020F0B583B001AD002308
:100F40002B706B70444E33681A00103258789C68CE
:100F500001235D21A047040033681A00113258783C
:100F60009F6801235E21B8470419E4B233681A0070
:100F7000123258789F6801236421B8472418E4B2DC
:100F800033681A00133258789F6801236521B847E7
:100F90002418E4B233681A001C3258789F68012381
:100FA0007121B8472418E4B233681A001D3258780A
:100FB0009F6801237021B8472418E4B23368587839
:100FC0009F6802232A006A21B8472418E4B23368D4
:100FD000697809022A780A439A8258789F6802231E
:100FE0002A006821B8472418E4B233680121695601
:100FF00009022A780A43DA8258789F6802232A0075
:101000006E21B8472418E4B23368012169560902F9
:101010002A780A431A8358789F6802232A0062219B
:10102000B8472418E4B233680121695609022A78C6
:101030000A435A8358789F6802232A006C21B847D4
:1010400031686A787F2313401B022A781343CB83CD
:10105000201840B203B0F0BDF801002070B582B096
:1010600005006B460022DA710A4B1B68002B0DD07D
:101070006A46D41D58789E68012322004B21B04750
:101080002278012313402B7002B070BD7F204042B4
:10109000FAE7C046F801002070B582B006006B4642
:1010A0000022DA71104B1B68002B1AD06A46D41D3F
:1010B00058789D68012322004B21A847050020781D
:1010C00001239843334018432070074B1B6858781E
:1010D0005E68012322004B21B047401940B202B0A4
:1010E00070BD7F204042FAE7F8010020F0B583B0E0
:1010F0006B460022DA71524B1B68002B00D19BE03B
:1011000001283CD0002806D0022834D0032865D01E
:101110000220404222E06B46DD1D2800FFF79EFFC3
:10112000060004002B78002B1AD0454E33686A461F
:10113000D51D58789F6801232A004C21B84704190F
:10114000E4B22B78062293432B70336858785E689C
:1011500001232A004C21B047201840B203B0F0BD53
:101160000120FFF799FF861974B2354B1B68DB68C5
:1011700002209847D9E70020FFF78EFFEEE76B4685
:10118000DD1D2800FFF76AFF04002B78002B1BD021
:101190002B4E33686A46D51D58789F6801232A0074
:1011A0004C21B8470419E4B22B780622934302225B
:1011B00013432B70336858785E6801232A004C2152
:1011C000B047201840B2C9E70120FFF765FF0400CF
:1011D0001B4B1B68DB6802209847D9E76B46DC1D78
:1011E0002000FFF73BFF2378002B1BD00124644233
:1011F000134E33686A46D51D58789F6801232A002C
:101200004C21B8470419E4B22B78062213432B7003
:10121000336858785E6801232A004C21B0472018B3
:1012200040B29BE70120FFF737FF0400044B1B6827
:10123000DB6802209847DBE77F2040428EE7C0460C
:10124000F801002010B582B0084B1B68002B09D0B4
:101250006A460732107058785C6801235121A04714
:1012600002B010BD7F204042FAE7C046F8010020DE
:1012700010B582B0084B1B68002B09D06A460732B4
:10128000107058785C6801235221A04702B010BD4D
:101290007F204042FAE7C046F801002010B502283E
:1012A00024D012D9032830D004283DD10020FFF7E4
:1012B00017FE04000720FFF7C5FF0419E4B21A2047
:1012C000FFF7D6FF201840B20FE001282CD10020F4
:1012D000FFF706FE04000120FFF7B4FF0419E4B293
:1012E0000220FFF7C5FF201840B210BD0020FFF715
:1012F000F7FD04000420FFF7A5FF0419E4B20E2057
:10130000FFF7B6FF201840B2EFE70520FFF7E8FD32
:1013100004001720FFF796FF0419E4B25220FFF7EC
:10132000A7FF201840B2E0E702204042DDE70000BE
:10133000F0B583B001AD00232B706B70104E3060A0
:101340000120FFF7A9FE04003368DB6802209847FC
:10135000336858789F6801232A004021B847041950
:10136000E4B22A7833681A70FFF7E6FD2418E4B275
:101370000220FFF793FF201840B203B0F0BDC04633
:10138000F801002030B583B004000822002168462F
:1013900004F0F1F8164B1B68002B26D058789D6896
:1013A00008236A464221A8476B4601229A565201F9
:1013B0001B78DB08134323806B4603229A565201A5
:1013C0009B78DB08134363806B4605229A56D20153
:1013D0001B795B081343A3806B46DA7992019B79F2
:1013E0009B081343E38003B030BD7F204042FAE7FF
:1013F000F801002000B587B001A800230370002287
:10140000438083808271C27101334370072202726C
:10141000383242810373C3810533038201F08EFEAB
:10142000072001F0DFFE002800D0FEE707B000BD76
:1014300000B583B001A800234370013383700133EA
:10144000037001F05DFE03B000BD000000B585B083
:101450000A4A53681E218B431A390B43536001A972
:1014600000234B700B724B7207330B70053B4B60C4
:10147000002001F051FF05B000BDC0460040004112
:1014800000B585B001A900234B7006220A700B72CB
:101490004B7204334B60012001F03EFF012001F04C
:1014A00089FF05B000BD00B585B001A901234B60DF
:1014B00000234B7006220A700B724B72022001F05F
:1014C0002BFF022001F076FF05B000BD10B5FFF73D
:1014D00091FFFFF7ADFFFFF7B9FFFFF7D1FFFFF770
:1014E000E2FF10BD70B58EB001AC01252570002360
:1014F00002930393C0229203049223746374A5742D
:101500002022A354183A002107A804F034F8124B03
:101510006361124B6362124BA36201235B42E3627D
:10152000104B2363104E22001049300000F05EFF84
:101530003468200000F014FF1F23184085400C4B36
:101540001D603268138A1BB2002BFBDB236802226A
:10155000134323600EB070BD809698000300100006
:101560000300110003001300C00200200014004219
:1015700000E100E010B5FFF7B5FF10BD10B582B077
:1015800004000800217000236370A37001A90122E8
:101590004A708B700A7000F0B8FC2278D1090023E1
:1015A000002904D15309DB0104498C4663441F21FF
:1015B000114001228A409A6102B010BD00440041EE
:1015C000014B01221A7070476802002010B50449CF
:1015D000044802F06BF9044B01221A7010BDC0469A
:1015E000AF3CFFFF70020020F402002010B58EB067
:1015F00001AA00239370002193809171138151708F
:101600009172D1721173917351731174536193611B
:101610001177136253621385938501331370F4338A
:10162000FF3353850B4C0C49200002F015F822685B
:10163000D37B5BB2002BFBDB138802210B431380AF
:10164000044B1A68D37B5BB2002BFBDB8023537106
:101650000EB010BD8C0200200030004210B50E4CC0
:1016600002220E49200002F062F90D4B00221A708E
:10167000206801F0D1FF0B4B1B5C1F221A40012395
:101680009340094A1360637E1022134363762368F4
:1016900010225A7310BDC0468C020020C1150000F4
:1016A000680200207C81000000E100E010B54201EA
:1016B000121A9200121892000F4C0021200002F022
:1016C0000EF92268D37B5BB2002BFBDB0023137186
:1016D000D37B5BB2002BFBDB4023537107490B78B4
:1016E000002BFCD0D37B5BB2002BFBDB8023537140
:1016F000024B00221A7010BD8C02002068020020EC
:1017000010B58EB001AA0021002391809371118140
:1017100053709372D3721373937353731374516131
:101720009161137711625162918508239370073B91
:101730001370094B9362094C0949200001F08CFF9A
:101740002268D37B5BB2002BFBDB138802210B43A7
:1017500013800EB010BDC046AF3CFFFF70020020EA
:101760000038004210B50E4C00220E49200002F055
:10177000DEF80D4B00221A70206801F04DFF0B4B74
:101780001A5C1F231340012211009940084B196075
:10179000637E01210B43637623685A7310BDC046F4
:1017A00070020020CD150000F40200207C810000B2
:1017B00000E100E010B5FFF719FFFFF74FFFFFF75B
:1017C0009FFFFFF7CFFF10BD044B1A68D37B5BB2BE
:1017D000002BFBDB802353717047C0467002002052
:1017E00010B5094C0949200002F060F82268D37B4B
:1017F0005BB2002BFBDB00231371D37B5BB2002BAE
:10180000FBDB4023537110BD70020020AF3CFFFF93
:10181000014B01221A7070473503002010B50D4BA3
:101820001B880D4A128858000C4942520A2A07D0D8
:101830000133084A13800849094801F000FA10BD35
:1018400001335B0000225A52064B01211970014BF3
:101850001A80F0E75E0300205C0300206003002094
:10186000380300203403002030B58DB08023DB0521
:10187000009300230193FF2269460A818B72CB7289
:1018800001220A754A758B75CB7506930B77E12398
:101890005B02049302234B7780235B030393134B78
:1018A0000893134B099301235B420A930B93114D49
:1018B000114C6A462900200001F05EFA0028F8D198
:1018C0000D4D2C68200000F04BFD1F2318401E3BDF
:1018D00083400A4A13602A68138A1BB2002BFBDB81
:1018E00023680222134323600DB030BD0200300094
:1018F00002003100001C00423803002000E100E03B
:1019000070B50D4C01220D49200001F08DF90C4BF2
:1019100000221A702125635D0222134363550022C1
:101920000849200001F080F9074B01221A70635D1D
:101930001343635570BDC046380300201D180000D6
:1019400034030020111800003503002010B5074CA7
:1019500000232380064A1380FFF786FFFFF7D0FF9E
:101960002100044801F06BF910BDC0465C03002063
:101970005E0300203803002010B5FEF72FFC08207E
:10198000FEF718FD0E20FEF77BFD0020FEF714FE8B
:10199000FEF71CFF0020FEF777FF0220FFF7A0F8FC
:1019A0000020FFF7E5F8FFF77FFA0020FFF798FA2D
:1019B0000220FFF773FC0020FFF798FB10BD00002A
:1019C000F0B5ABB03C4C2000FEF76AFC3B4E30005B
:1019D000FEF72CFF3A4D2800FFF7D4FC0023E05E11
:1019E00002F052FCEA21890502F01CFB071C0223CD
:1019F000E05E02F049FCEA21890502F013FB0F903A
:101A00000423E05E02F040FCEA21890502F00AFBB3
:101A100010900023F05E02F037FC2A4902F0F0F942
:101A2000041C0223F05E02F02FFC264902F0E8F9C4
:101A300011900423F05E02F027FC224902F0E0F945
:101A4000061C5122002115AB180003F094FD381C30
:101A500003F0F4FC12901391301C03F0EFFC0C9097
:101A60000D91119803F0EAFC0A900B91201C03F0F1
:101A7000E5FC0890099104216B5E069302216B5EE0
:101A8000059300216B5E0493109803F0D7FC02903D
:101A900003910F9803F0D2FC00900191129A139BCE
:101AA000094915A804F0CEF9512215A9074801F0FB
:101AB0008DFA2BB0F0BDC0460002002008020020C5
:101AC0001402002068118341B08100003803002017
:101AD00070B50400B94D0D21280001F05FFA0A210C
:101AE000280001F05BFAB64B1A780A2A5CD89300FA
:101AF000B44AD3589F46002C56D1FFF765FE0D22FD
:101B0000B149AE4801F062FAAD4B01221A704BE0C8
:101B1000012C0ED0AA2C17D0BB2C1ED0CC2C25D03B
:101B20000E22AA49A54801F051FAA54B01221A70CC
:101B30003AE00E22A649A14801F048FAFFF750FE0C
:101B40009F4B00221A702FE00C22A2499B4801F003
:101B50003DFA9B4B02221A7026E00C229E499748C0
:101B600001F034FA964B05221A701DE00D229B49B4
:101B7000924801F02BFA924B08221A7014E0E31EEF
:101B8000974A134206D0042322009A43082A01D020
:101B9000FF2C0AD1934B1C7009229349874801F00E
:101BA00015FA874B03221A7070BD0E2287498348AD
:101BB00001F00CFA824B01221A70F5E72300083B72
:101BC0009BB2072B01D9FF2C0AD1884B1C700B222A
:101BD00087497A4801F0FAF9794B04221A70E3E751
:101BE0000E227A49754801F0F1F9754B01221A70FD
:101BF000DAE7052C01D9FF2C1ED17E4B1C70794BE6
:101C00001878FF2812D1794B1878FF2811D1794B19
:101C10001878FF2801D0FEF7CFFC0E2276496748DE
:101C200001F0D4F9664B01221A70BDE7FEF7C2FB42
:101C3000E9E7FEF725FCEAE70E2264495F4801F078
:101C4000C5F95F4B01221A70AEE7631E9BB2042BED
:101C500001D9FF2C0AD1694B1C70092268495748E9
:101C600001F0B4F9564B06221A709DE70E2257492F
:101C7000524801F0ABF9524B01221A7094E7072C3D
:101C800001D9FF2C0AD15F4B1C700B225E494B48D7
:101C900001F09CF94A4B07221A7085E70E224B4946
:101CA000464801F093F9464B01221A707CE7042C58
:101CB00001D9FF2C1ED1554B1C70504B1878FF28B2
:101CC00012D1504B1878FF2811D1504B1878FF28AB
:101CD00001D0FEF74DFF0E224D49384801F076F94C
:101CE000374B01221A705FE7FEF7CEFDE9E7FEF7FA
:101CF000F7FEEAE70E223549304801F067F9304B2C
:101D000001221A7050E7002C0AD0424B1C700922A5
:101D100041492A4801F05AF9294B09221A7043E730
:101D20000E222A49254801F051F9254B01221A704B
:101D30003AE7072C01D9FF2C0AD1384B1C700B2233
:101D400037491E4801F042F91D4B0A221A702BE751
:101D50000E221E49194801F039F9194B01221A7057
:101D600022E7032C01D9FF2C1ED12E4B1C702B4BCC
:101D70001878FF2812D1274B1878FF2811D1294B4A
:101D80001878FF2801D0FFF7B1F90E2226490B4839
:101D900001F01CF90A4B01221A7005E7FFF7A0F8C1
:101DA000E9E7FFF77BFAEAE70E220849034801F06A
:101DB0000DF9034B01221A70F6E6C04638030020E5
:101DC000E003002084810000EC8100003C820000E0
:101DD000FC8100000C8200001C8200002C820000AC
:101DE000FDFF0000FE0100204C820000FC010020ED
:101DF00058820000FD010020648200001E020020C5
:101E0000748200001C020020808200001D0200205D
:101E10008C820000210200209C8200001F02002012
:101E2000A882000020020020B4820000F8B5154B03
:101E300000221A7001F0E3FBFFF748FBFFF79AFB63
:101E4000FFF7B8FCFFF782FD0F4B01221A70BFF3BA
:101E50005F8F62B6FFF790FD0C4C0D4F26000025FA
:101E600003E00C4B1B78002B07D12378002BF8D014
:101E70003888FFF72DFE3570F3E7FFF7A1FD054B1E
:101E80001D70F2E7E0030020010000203403002071
:101E900060030020F40200200C4B1B68002B06D1CD
:101EA000EFF31083002B07D0094B00221A70074A6A
:101EB000136801331360704772B6BFF35F8F054B31
:101EC00000221A70024B01321A70F0E7240200203F
:101ED0002802002001000020084B1A68013A1A600D
:101EE0001B68002B09D1064B1B78002B05D0054B36
:101EF00001221A70BFF35F8F62B670472402002080
:101F00002802002001000020704700B583B001AB1B
:101F100080221A700A785A704A789A708A78DA7031
:101F2000190001F055FB03B000BD10B5490881420E
:101F30000CD3002400E01C00091A631C9BB28842E9
:101F4000F9D9FF2C04D81480002010BD4020FCE7F4
:101F50004020FAE7F0B5DE4657464E464546E0B526
:101F600089B00C00059212AA117802004A43A242DD
:101F700000D9CCE0002B59D102000800002101F06B
:101F800015FF8146260000270023002400930194BA
:101F9000002200233F21202082461F3884460296DB
:101FA00003970C00C84612E05146091B6546CD4018
:101FB00013E002980399121A8B414846009E019F34
:101FC00030433900294300900191013C1BD320216B
:101FD00049426118E8D465468D406146A140894672
:101FE00092185B41100019004646354203D0664600
:101FF000064332000B00029803999942E5D8D8D1E4
:102000009042E2D8D5E700200121009B019CC01A34
:10201000A141030C0A041A43059B1A80002009B051
:102020003CBC90469946A246AB46F0BD0022012B2F
:10203000F2D1630F0493E30098460A0000230021C5
:1020400001F0B4FE04000D0000239C4606932033EB
:102050009B4601266346079346E05946C91B30005C
:10206000C840824610E000980199121A8B410299EB
:10207000484601430291013F25D320214942791866
:10208000EBD43000884082463100B940894692182E
:102090005B411000190044464D462C40A44654466E
:1020A000049D2C40A246644655462C4303D0340080
:1020B000044322000B00009801999942DBD8D2D149
:1020C0009042D8D8CFE7009C019D029B079A9B1AAB
:1020D000DB0810498B4212D9069B0133DBB2069311
:1020E00001320792082B08D000230293002200231C
:1020F0003F21009401950F00BFE740208FE740206B
:10210000069A082A00D18AE752031A4384E740203E
:1021100085E7C046FF1F000010B582B004000F4BDA
:102120001B78002B0BD0002909D10C4B5878001BD1
:102130004342584140421C2398431D300CE001A902
:102140000C700C2001F0D0F90C2001F08FF9034B3A
:102150005C7001221A70002002B010BD2C02002019
:10216000434B984233D00AD9424B984251D0424B0C
:1021700098425FD0414B98423AD000207047404B84
:1021800098420FD03F4B9842F7D101291BD000292C
:1021900063D0022919D003394842484140423A49A4
:1021A0000840EBE701290AD0002954D0022908D0C1
:1021B000033948424841404234490840DEE7344848
:1021C000DCE73448DAE73448D8E73448D6E7012971
:1021D0000AD0002943D0022908D003394842484197
:1021E00040422F490840C9E72E48C7E72E48C5E7B7
:1021F00001290AD0002934D0022908D003394842E5
:102200004841404229490840B8E72948B6E72948EB
:10221000B4E701290AD0002925D0022908D00339C2
:1022200048424841404224490840A7E72348A5E7DF
:102230002348A3E701290AD0002916D0022908D093
:1022400003394842484140421E49084096E71E482B
:1022500094E71E4892E71E4890E703208EE71D484A
:102260008CE71D488AE71D4888E71D4886E7C04679
:102270000010004200180042001C004200140042FE
:1022800000080042000C004203001F00030007008A
:1022900003000500030006000300010003001E0008
:1022A00003000B000300090003000A0003001300F1
:1022B000030011000300120003000F0003000D00D3
:1022C00003000E00030019000300170003001800AC
:1022D00003000400030008000300100003000C00CA
:1022E0000300160030B587B069460C4B0A0032CBAC
:1022F00032C232CB32C2009B83420BD001239A0000
:1023000069465258824206D00133062BF7D100208D
:1023100007B030BD0023D8B2FAE7C046C48200003F
:1023200070470000F0B50A4B1B78002B0CD1094F09
:10233000094E0A4D0024DE515A1914600433182B3B
:10234000F9D1034B01221A708000024BC150F0BD3D
:102350002E0200203002002021230000E403002090
:1023600000B583B007236A461370013353700133FD
:1023700093700133D3700133137101335371FFF73D
:10238000B1FF6B46185603B000BD000010B5024BFC
:102390001B680020984710BD3002002010B5024B8A
:1023A0005B680120984710BD3002002010B5024B39
:1023B0009B680220984710BD3002002010B5024BE8
:1023C000DB680320984710BD3002002010B5024B97
:1023D0001B690420984710BD3002002010B5024B45
:1023E0005B690520984710BD30020020F0B5C64655
:1023F00000B58AB004000D00160021600B689B0731
:1024000000D5DAE00B680520DB0700D5CFE0080037
:10241000FFF768FF6A4A116A871C0123BB400B4320
:10242000136209A92027F35D0B700D30C3B201932D
:10243000180001F059F8019801F018F8F05D00213A
:10244000FFF76AFE3378012B3ED03378002B03D19F
:102450002B68082213432B600023E3602361636130
:10246000A361E361636223620025A38523852E3384
:10247000E5540133E5540133E5542D3B23722571B6
:102480002068FFF72FFF07004E49FFF74BFFBF0003
:102490004D4BFC502368984604AB80221A705D7047
:1024A0007F3A9A70DD703378002B02D104AB0022A2
:1024B0009A70736A0593B36A0693F36A0793336B52
:1024C0000893002705AD0BE02B680C2213432B600B
:1024D000BBE74046FFF744FE07E00137042F0ED06C
:1024E000F9B2BB0058590028F3D0431CF5D002AB19
:1024F0001872000CC0B204A901F06AF8EDE7337855
:102500006371337CA371B37CE37102AB0022DA8088
:102510003378012B14D03378002B26D17069328B9D
:1025200043465B69F17E0904B47E21431943434667
:102530005961337F1100002B19D04021114316E05F
:102540002068FFF7CFFE0D30C0B200F0D9FF0100C8
:1025500002AB9A1D7069FFF7E8FC00282BD102AB93
:1025600006331B7842469372D5E70021002073683A
:10257000B2681343F26813430343327C0A43717C0D
:10258000002903D111498978890701D580210B439E
:10259000B17C002902D0802189020A4341460968A2
:1025A0000B4341460B604B681A434A6000200AB057
:1025B00004BC9046F0BD1720F9E71C20F7E7C046A1
:1025C00000040040112A0000E40300200020004124
:1025D000F0B5DE4657464E464546E0B583B08846E0
:1025E0003021415C052979D0002A79D0C1790029B0
:1025F00078D04179002903D101688C7BA4070ED4DF
:10260000013A94B20025042202218A4601398C46FF
:10261000DB05DB0D994604239B4646463AE002243F
:102620008C73EDE701688B7B67463B42FBD08B7B6D
:102630003B4235D04B460B832FE00768BB7B1342F0
:1026400006D12F4BB97B114202D1013B002BF9D1AE
:10265000BB7B51460B4204D1BB7B134220D11227D6
:1026600043E00223BB7304273FE08379012B2AD088
:10267000098BFF230B40019900293ED1691C89B2C7
:1026800073558779012F22D00D00013CA4B21D4B58
:102690009C4221D04379012BC4D04379002BCCD06C
:1026A00001688B7B1342FCD08B7B13421CD00B8ABE
:1026B000002701971342D8D00B8A5F463B430B8219
:1026C0001E230193D1E70B8BDB05DB0DD3E702352E
:1026D000ADB21B0A7354D8E7019F06E0052704E05A
:1026E000172702E01C2700E01027380003B03CBC8D
:1026F00090469946A246AB46F0BD019FF5E7C0461D
:1027000010270000FFFF000010B544791523012CAD
:102710006BD1002A59D04B78002B45D003689B7BA6
:10272000DB072DD50A78D4090023002C04D15309E6
:10273000DB01304CA44663441F2414400122A24014
:102740005A6103689A7BD20701D58A781A83C279C5
:102750000023002A49D102680421937B0B42FCD05C
:10276000937B5B0743D5138A5B0703D5138A042148
:102770000B4313828379012B13D0138B002334E096
:102780000A78D1090023002904D15309DB01194932
:102790008C4663441F21114001228A409A6105231F
:1027A00023E0138B002320E00A78D10900230029BD
:1027B00004D15309DB010F498C4663441F211140AA
:1027C00001228A405A6100230FE00A78D1090023D0
:1027D000002904D15309DB0106498C4663441F21BB
:1027E000114001228A409A610023180010BD002385
:1027F000FBE7C04600440041F0B5DE4657464E4672
:102800004546E0B583B03023C35C052B00D1E7E03B
:10281000002A00D1E6E04379002B03D103689C7BBA
:10282000A40709D49046002401230225AC460235B2
:10283000AB46013A92B227E002249C73F2E70668A5
:10284000B57B1D4206D16F4DB77B1F4202D1013DC2
:10285000002DF9D1B57B67463D4204D1B57B1D42C1
:1028600018D11223BFE00223B3730233BBE002345A
:10287000A4B2CF5D3F0255463D4319E0551EADB2AF
:10288000C679002E1BD12A005F4DAA4270D045792F
:10289000002DD4D00668B57B1D42FCD0671CBFB2AA
:1028A0000D5DAA468579012DE1D05446A5B23C00C4
:1028B000B77B1F42E2D0ED05ED0D3583DEE74579AC
:1028C000002D17D00668B57B5F463D42FBD0B57B37
:1028D0003D420AD0358A3D4203D0358A04273D4324
:1028E00035828579012D41D0358B4546013DADB20C
:1028F000A8469EE7454E019112E00234A4B2494633
:10290000019F795C0902009F0F4319E0013A92B2DE
:102910000768BD7B59460D4219D1013E002E16D0E5
:102920000568AF7B1F42F3D0671CB9B28946019995
:10293000095D009181790129DFD069460F884C46F5
:10294000A97B1942E2D0FF05FF0D2F83DEE7019935
:10295000BD7B6646354205D1BD7B5E463542B1D171
:10296000122340E00223BB7302333CE0358BBCE70B
:102970004379012B0BD0002B3DD1C279002A32D0F4
:102980000424042543464646002B1BD12BE0016856
:1029900002228B7B1342FCD0002324E08B7B23425A
:1029A0002BD08B7B234209D00B8A234202D00B8A87
:1029B0002B430B828379012B10D00B8B013EB6B2D7
:1029C000002E1CD001688B7B2342E7D10D4B8A7B04
:1029D0002242E3D1013B002BF9D1DFE70B8BEDE77E
:1029E000052300E01723180003B03CBC904699462D
:1029F000A246AB46F0BD0023F5E71223F3E7002320
:102A0000F1E7C04610270000FFFF0000112700007B
:102A1000F8B58000754BC45826682F23E75C2E223A
:102A2000A25C1740B37B757B1D40EB072DD5637906
:102A3000012B24D0002B28D1237A002B25D021680C
:102A4000626A1378DBB2501C6062A079012861D001
:102A50009BB2DB05DB0D0B83A38D013B9BB2A385F2
:102A6000A38D9BB2002B10D101333373237A012B3A
:102A70000BD1E379002B08D10233737305E0237A7D
:102A8000002B36D0237A002BD9D16B0716D5338A89
:102A90005B0745D5237A012B0BD030231E22E2544D
:102AA0002D3B2372023333733B0702D52000A36909
:102AB0009847338B338A042213433382AB0717D5ED
:102AC0006379002B10D107333373053BB3730133A4
:102AD00023720023A385238500223033E254FB06B2
:102AE00002D52000E36998476379012B00D166E0A5
:102AF000F8BD3F4B1B883383638D013B9BB26385DD
:102B0000638D9BB2002B01D1013333736379012BA9
:102B1000B8D08FE75078000203430232626298E730
:102B2000237A012B25D023681B8BDB05DB0DDAB262
:102B3000216A0A70226A511C2162A179012931D0CF
:102B4000238D013B9BB22385238D9BB2002BB5D1F6
:102B500030330022E2542C3B3373237A022B27D0EC
:102B6000237A002BAAD1BB07A8D520002369984758
:102B7000A4E723681B8B638D013B9BB26385638D48
:102B80009BB2002B00D099E7043333732C3300221F
:102B9000E2542D3B2372FB0700D48FE72000E3684B
:102BA00098478BE71B0A5370236A01332362C7E7F8
:102BB0007B0700D482E72000636998477EE7237A89
:102BC000012B00D094E7E379002B00D090E702338B
:102BD0003373013323722D330022E254FB0700D4F8
:102BE00086E7E3682000984782E7C046E4030020B8
:102BF000FC030020F8B504000D0016000768FFF77D
:102C00004BF9A38B9BB2002B0AD1A683FFF764F983
:102C1000656122230522E2541E3B7B730020F8BD30
:102C2000FFF75AF90520FAE7931C9B001950202161
:102C3000012393401A00435C13434354704710B57B
:102C40000122FFF7D7FF10BDF8B58000494BC558EA
:102C50002C68238A1BB2002BFBDBA37B667B1E4008
:102C60002023EB5C2122AF5C1F40F30722D5EB8BC6
:102C70009BB2002B1CD0AA691378DBB2511CA9614E
:102C8000697901290ED09BB2DB05DB0D2383EB8B29
:102C9000013B9BB2EB83002B0CD101332373013337
:102CA000637307E0517809020B430232AA61EBE734
:102CB00001232373B30709D5022323732133002291
:102CC000EA54FB0702D52800AB68984773074FD535
:102CD000AB8B9BB2002B49D0238ADBB25A0722D0A0
:102CE0009A070CD522231A22EA54238A022213437C
:102CF00023827B073CD52B692800984738E05A0788
:102D000007D522231E22EA54238A04221343238256
:102D1000EFE7DB07EDD522231322EA54238A0122B1
:102D200013432382E5E7238BDB05DB0DDAB2696908
:102D30000A706A69511C69616979012910D0AB8BED
:102D4000013B9BB2AB83002B12D1043323731E33A0
:102D50000022EA54BB070BD5EB682800984707E030
:102D60001B0A53706B6901336B61E8E7042323731B
:102D7000F8BDC046E4030020F0B5D6464F464646AF
:102D8000C0B58CB005000E00140029600800FFF7E4
:102D9000A9FA03003268D20700D5EFE032681C20A0
:102DA000920700D5EBE07949086A9F1C0122BA40DE
:102DB00002430A620BA9627F0A700D33DFB238004A
:102DC00000F092FB380000F051FB607F0021FFF71C
:102DD000A3F9E37A6B71237DAB71637DEB712F688F
:102DE0003800FFF77FFA0E2302AA944663440022BC
:102DF0001A802368E26813439846A37D5B079946CF
:102E00006368002B62D08022520593424CD02A681E
:102E1000138A1BB2002BFBDB0E2302AA94466344E9
:102E20001B887B814146636819434B461943E37D08
:102E3000002B01D104331943227D5204637D1B040E
:102E40001A43A37AE07A03431A432389FF2B03D062
:102E50008020400401431A43237F002B03D14C4BB5
:102E60009B789B0701D5802319432868038A1BB2EE
:102E7000002BFBDB7A602A68138A1BB2002BFBDB7A
:102E800039600AAB80221A7000225A70DA709A7088
:102E9000236A0693636A0793A36A0893E36A03931A
:102EA0000993002706AC3BE0E37D002BAFD12369FB
:102EB0009A460D30C0B200F023FB01000E2202AB97
:102EC0009C4662445046FFF730F80DE0E37D002B4E
:102ED0000DD01023009300230E2202A98C466244D9
:102EE000A1692069FFF736F8002890D047E02369F0
:102EF0009A460D30C0B200F003FB0100102300938E
:102F000000230E2202A8844662445046FFF722F8AE
:102F1000EAE73000FFF724F907E00137042F10D06B
:102F2000F9B2BB0018590028F3D0431CF5D002AB0E
:102F300020229B181870000CC0B20AA900F048FBB0
:102F4000EBE70023AB60EB602B61AB616B610022B0
:102F5000EB83AB832033EA540133EA540133EA5460
:102F60000133EA542868FFF7BDF904000949FFF767
:102F7000D9F9A400084BE550002000E005200CB072
:102F80001CBC90469946A246F0BDC04600040040D5
:102F900000200041492C0000E4030020C379002BED
:102FA0000FD0C38B9BB2002B0DD10268138A1BB2CA
:102FB000002BFBDB11830221937B0B42FCD0002012
:102FC00070471C20FCE70520FAE70000F0B5D64664
:102FD0004F464646C0B580468946002A42D0C3794E
:102FE000002B45D00468238A1BB2002BFBDB013A7F
:102FF00096B200270125234B9A4610E07B1C9BB21A
:103000004A46D15D42465279012A15D089B21F0045
:103010004046FFF7C3FF013EB6B2564513D0A37B2F
:103020002B42EBD1174BA27B2A42E7D1012B21D0B7
:10303000013B002BF7D1E1E70237BFB24A46D35C30
:103040001B021943E4E7A37B9B0715D40D4B022118
:10305000A27B0A4212D1012B12D0013B002BF7D1E7
:10306000002000E017201CBC90469946A246F0BD07
:103070001C20F8E71220F6E70020F4E70020F2E732
:103080001220F0E7FFFF000010B5072803D88000EA
:10309000164B1B589F46002025E0154BD86822E0B0
:1030A000144B1B6A9B059B0F1348D8401BE0104B29
:1030B000186918E00E4B1B6800209B0713D50D49BB
:1030C0001022CB681A42FCD0094B1B685B070BD55A
:1030D000002000F015FA064B9B681B041B0C58439C
:1030E00001E08020000210BD0448FCE7DC82000003
:1030F000480200200008004000127A00006CDC0248
:1031000070B50C490B6A047885784078012210402C
:1031100080014026B34303432A40D20180208343E9
:1031200013430322224012020348034013430B625D
:1031300070BDC04600080040FFFCFFFF10B5264BE5
:103140009A691205120F022A18D8037A1B02F82175
:1031500049010B40817A0B4320494B608379C17947
:103160000B434188848821430B434178C9010B43B9
:103170001A490B600378042B0AD010BD037A9B0612
:103180001B0C41898905890D0B4314494B60E5E708
:10319000022A14D8037B1B06F82252051340C28969
:1031A0001204FF2109040A401343028A13430B4A05
:1031B00093600A4A136804210B431360DDE7037B25
:1031C0009B06028A1343C289120405490A4013432D
:1031D000024A9360EDE7C04600200041480200200B
:1031E0000000FF03072803D880001E4B1B589F4692
:1031F000172036E01C4A136A02210B431362002099
:103200002FE0194A936902210B439361002028E0C3
:10321000154A138A02210B431382002021E0124A2F
:10322000938A02210B43938200201AE00F4B1A6805
:1032300002210A431A601B680D4A13400A4A93840C
:1032400011001022CB681A42FCD0084A9168064B44
:10325000D96251689962126892B29A84002000E0A3
:1032600000207047FC820000000800404802002057
:103270007FFF000030B585B01B4BC222D2009A60A0
:103280001A4A53681E218B43536001236A46137008
:103290000024E0B2694600F027F901341C2CF8D173
:1032A00003A800244470012585700470FFF728FFEF
:1032B0000620FFF797FF00F01DF80D4B1C725C72A3
:1032C0009C72DC7201956B465C7006236A46137033
:1032D000147254726946002000F01EF8002000F0BD
:1032E00069F805B030BDC04600080040004000410C
:1032F00000040040064A936908210B439361054B83
:1033000001221A7019000B781342FCD17047C04695
:1033100000040040000C004070B505000C78240249
:1033200004434B78002B02D08023DB021C434B7AF2
:10333000002B02D080231B031C434B68012B0FD9A9
:103340005A1E13422CD1022B28D902220025013506
:1033500052009342FBD82D02054380235B031C439C
:103360000B7A002B02D080239B031C43104A537816
:103370005BB2002BFBDBFEF78FFD0D4B9D601A004F
:1033800053785BB2002BFBDB094A5368802149026A
:103390000B401C435460FEF79FFD70BD0025DAE72B
:1033A0001B021843050080239B021C43D8E7C0463C
:1033B000000C004010B504000B4A53785BB2002BA0
:1033C000FBDBFEF769FD094B1C70074A53785BB2C3
:1033D000002BFBDB044A516880235B020B435360E4
:1033E000FEF77AFD10BDC046000C0040040C004002
:1033F00070B505001A4A53785BB2002BFBDBFEF771
:103400004BFD184B1D70164A53785BB2002BFBDB4B
:10341000134E7068C004C00EFFF736FE0400114B57
:103420001D707668F602F60F0F4B1D700C4A53782C
:103430005BB2002BFBDB0A4B9D682D022D0CFEF7C7
:103440004BFD002E07D1012D07D92900200000F0E7
:1034500037FB040001E00135EC40200070BDC046A0
:10346000000C0040040C0040080C004010B50400A3
:10347000FEF712FD054B1C70054A53888021C901D7
:103480000B435380FEF728FD10BDC046020C0040E0
:10349000000C004010B50400FEF7FEFC0E4B1C7043
:1034A0000E494B881B051A0F4B880D4803404B8073
:1034B0004B880C4803404B8008008021C901438899
:1034C0000B42FCD1054841881302054A0A401343C8
:1034D0004380FEF701FD10BD020C0040000C0040CF
:1034E000FFF0FFFFFFBFFFFF10B50C78240204437D
:1034F000FFF7D0FFA4B2014B5C8010BD000C004070
:1035000010B50400FEF7C8FC054B1C70054B5C8829
:103510002405240FFEF7E0FC2000FFF769FF10BD33
:10352000020C0040000C004030B5D378002B35D1A0
:103530001378802B29D01B068024640223435478FF
:103540000225AC4306D19478002C20D18024A4021B
:10355000234341605478013C012C1CD90D042D0CEF
:10356000A024E4052C431C4384620D0CD0242406C3
:103570002C431C438462D478002C22D15B031CD5DD
:103580009378012B1ED0416117E00023D7E7C024B8
:10359000E4022343DDE70D4C2340DFE741600C04E8
:1035A000240CA023DB05234383620C0CD0231B06D1
:1035B00023438362D378002B03D15378013B012B43
:1035C00002D930BD8161F8E78160FAE7FFFFFBFFB8
:1035D00010B50A00C1090023002904D14309DB0109
:1035E00005498C4663441F24204001218140180076
:1035F000FFF79AFF10BDC04600440041704710B568
:10360000FFF738FEFEF780FCFFF7F8FFFFF7F6FF45
:10361000FFF7F4FF10BD000030B589B069460D4BCF
:103620000A0032CB32C232CB32C212CB12C2009B62
:1036300098420BD001239A0069465258824206D024
:103640000133082BF7D1002009B030BD0023D8B2D8
:10365000FAE7C0461C830000F0B5C64600B588B046
:1036600004000E0015000800FFF7D6FF804606ABE9
:1036700013221A705A7001329A70DA7001321A717C
:103680005A7101329A71DA7102AA854B203383CBC9
:1036900083C21B6813600023A360E360236163613E
:1036A0002376637643469A007E4BD4502660AB78EF
:1036B000082B00D18CE023713388DB0700D5E6E0CE
:1036C000F37BDB0600D5E7E033889B0700D5E5E018
:1036D0002B7C002B00D081E02B7F002B00D089E0D9
:1036E0007149086A43465A0002ABD35A03430B623E
:1036F000AB78082B00D18AE02B786A46137006ABB2
:1037000042469F5C69463800FFF7EEFE3800FFF73F
:10371000ADFEA978AB7919432B89AA8813431943C5
:103720006B78002B02D080231B0119432268D37BC6
:103730005BB2002BFBDB3180697B4B1E994189001A
:10374000AB7B002B01D0012319432268D37B5BB2F2
:10375000002BFBDBFF233371002905D02268D37BCC
:103760005BB2002BFBDB7171A97AEB7A002B01D0E5
:10377000102319432B7B002B01D0202319432268EF
:10378000D37B5BB2002BFBDBB1712268D37B5BB2D6
:10379000002BFBDB2379042B42D0082B61D01720B0
:1037A000002B75D1D37B5BB2002BFBDB2B8D3382DF
:1037B0002268D37B5BB2002BFBDB6B8D33832268EB
:1037C000D37B5BB2002BFBDBAB8D738300205FE010
:1037D0004246D20700D46EE7172059E001A9012321
:1037E0008B700022CA70AA690A704B70287DFFF79F
:1037F000EFFE71E701A901238B700022CA706A6A8B
:103800000A704B702B6AD8B2FFF7E2FE68E7086ACD
:1038100043465A1C520002ABD35A03430B626BE778
:10382000D37B5BB2002BFBDB2823EB5C3374226879
:10383000D37B5BB2002BFBDB2923EB5C3375226867
:10384000D37B5BB2002BFBDB2A23EB5C3376226855
:10385000D37B5BB2002BFBDB2B23EB5C737600206E
:1038600016E0D37B5BB2002BFBDBAB6A33612268D3
:10387000D37B5BB2002BFBDBEB6AB3612268D37BAB
:103880005BB2002BFBDB2B6BF361002000E005201B
:1038900008B004BC9046F0BD1C20F9E71C20F7E7F7
:1038A0001C83000000040020000400400268D37B59
:1038B0005BB2002BFBDB0379042B05D0082B0BD06C
:1038C0001720002B04D07047C9B211740020FAE70A
:1038D00089B211820020F6E711610020F3E710B5EC
:1038E0000468E37B5BB2002BFBDB0379042B05D080
:1038F000082B14D01720002B08D010BD1720012949
:10390000FBD8D2B261180A760020F6E71720012909
:10391000F3D892B20C3149000A530020EDE717208A
:103920000129EAD8063189000A510020E5E7931CF5
:103930009B001950022A09D0032A0CD0012393407E
:103940001A00037E1343037600207047037E102283
:1039500013430376F8E7037E202213430376F3E74D
:1039600070B58000144BC45823689D7B227E637E13
:1039700013401D40EB0705D52000A368984701239D
:1039800022689373AB0705D52000E36898470223AC
:1039900022689373EB0605D520002369984710230E
:1039A00022689373AB0605D52000636998472368A6
:1039B00020229A7370BDC0460004002010B500207C
:1039C000FFF7CEFF10BD10B50120FFF7C9FF10BDF6
:1039D00010B50220FFF7C4FF10BD10B50320FFF79C
:1039E000BFFF10BD10B50420FFF7BAFF10BD10B522
:1039F0000520FFF7B5FF10BD10B50620FFF7B0FF9B
:103A000010BD10B50720FFF7ABFF10BD0300064A3D
:103A10001268002A04D0044A1068C3181360704763
:103A2000014A02491160F6E75C02002028240020C8
:103A3000FEE7000010B5194A194B9A4211D01A003E
:103A4000184B9A420DD20333174A9B1A9B08013335
:103A50009B000022124811498C58845004329A422B
:103A6000FAD1124A124B9A4209D2111D03335B1A42
:103A7000032083435B18002102C29A42FCD10D4B04
:103A8000FF2293430C4A93600C4A536880210B43F6
:103A9000536001F043FDFEF7C9F9FEE768870000B7
:103AA00000000020D401002004000020D4010020E8
:103AB000240400200000000000ED00E00040004170
:103AC000002243088B4274D303098B425FD3030A5D
:103AD0008B4244D3030B8B4228D3030C8B420DD370
:103AE000FF22090212BA030C8B4202D312120902FE
:103AF00065D0030B8B4219D300E0090AC30B8B423C
:103B000001D3CB03C01A5241830B8B4201D38B03E9
:103B1000C01A5241430B8B4201D34B03C01A52418E
:103B2000030B8B4201D30B03C01A5241C30A8B42D1
:103B300001D3CB02C01A5241830A8B4201D38B02BC
:103B4000C01A5241430A8B4201D34B02C01A524160
:103B5000030A8B4201D30B02C01A5241CDD2C309D2
:103B60008B4201D3CB01C01A524183098B4201D34E
:103B70008B01C01A524143098B4201D34B01C01A39
:103B8000524103098B4201D30B01C01A5241C308B1
:103B90008B4201D3CB00C01A524183088B4201D320
:103BA0008B00C01A524143088B4201D34B00C01A0C
:103BB0005241411A00D20146524110467047FFE778
:103BC00001B5002000F0F0F802BDC0460029F7D092
:103BD00076E7704703460B437FD4002243088B42AD
:103BE00074D303098B425FD3030A8B4244D3030B84
:103BF0008B4228D3030C8B420DD3FF22090212BA49
:103C0000030C8B4202D31212090265D0030B8B42C4
:103C100019D300E0090AC30B8B4201D3CB03C01AAE
:103C20005241830B8B4201D38B03C01A5241430B89
:103C30008B4201D34B03C01A5241030B8B4201D379
:103C40000B03C01A5241C30A8B4201D3CB02C01AE4
:103C50005241830A8B4201D38B02C01A5241430A5C
:103C60008B4201D34B02C01A5241030A8B4201D34B
:103C70000B02C01A5241CDD2C3098B4201D3CB01F2
:103C8000C01A524183098B4201D38B01C01A5241A1
:103C900043098B4201D34B01C01A524103098B42A5
:103CA00001D30B01C01A5241C3088B4201D3CB0090
:103CB000C01A524183088B4201D38B00C01A524173
:103CC00043088B4201D34B00C01A5241411A00D223
:103CD00001465241104670475DE0CA0F00D049428C
:103CE000031000D34042534000229C4603098B42FC
:103CF0002DD3030A8B4212D3FC22890112BA030A84
:103D00008B420CD3890192118B4208D38901921105
:103D10008B4204D389013AD0921100E08909C3098A
:103D20008B4201D3CB01C01A524183098B4201D38C
:103D30008B01C01A524143098B4201D34B01C01A77
:103D4000524103098B4201D30B01C01A5241C308EF
:103D50008B4201D3CB00C01A524183088B4201D35E
:103D60008B00C01A5241D9D243088B4201D34B0079
:103D7000C01A5241411A00D20146634652415B10BB
:103D8000104601D34042002B00D54942704763469C
:103D90005B1000D3404201B5002000F005F802BDE1
:103DA0000029F8D016E770477047C046F0B5CE46F8
:103DB000474615042D0C2E0080B50704140C3F0C4B
:103DC0009946030C7E435D43674363437F19340C7C
:103DD000E4199C46A54203D980235B029846C4445B
:103DE0004B4643435143250C36046544360C2404AA
:103DF000A4195B19591820000CBC90469946F0BDD7
:103E0000F8B557464E464546DE464402E0B5460004
:103E10008846640A360EC70F002E63D0FF2E24D0CA
:103E20008023E400DB041C43002399469B467F3E2D
:103E3000434642465D02D20F5B006D0A1B0E904660
:103E4000924665D0FF2B55D080220021ED00D20490
:103E50007F3B1543F61A43464A467B400F2A00D95A
:103E60008DE06D48920082589746002C54D108236B
:103E70009946063BFF269B46DAE700255346022972
:103E80001BD0032900D1BFE0012928D030007F30AA
:103E9000002820DD6A0704D00F222A40042A00D01F
:103EA00004352A0103D530005C4A80301540FE28D5
:103EB00003DCAC01640AC2B201E0FF220024640208
:103EC000D205600ADB07104318433CBC9046994674
:103ED000A246AB46F8BD0122101A1B287CDD002249
:103EE0000024ECE7002C1DD104239946033B002657
:103EF0009B469DE7FF3E002D20D1022143464A46C6
:103F00007B400A430F2AD8D84548920082589746EA
:103F1000002D19D10121F1E70C239946093BFF2619
:103F20009B4685E7200001F0DBFA7626431F9C4084
:103F300000237642361A99469B4679E74A46032380
:103F40001A439146032186E7280001F0C9FA431F6E
:103F500036189D40763600217DE780240023E40357
:103F6000FF22ACE700258023DB031C4228D01D4242
:103F700026D12B435C02640A4346FF229FE762017D
:103F80006C01A24224D21B210025013E0127100012
:103F90006D005200002801DB944201D8121B3D4302
:103FA00001390029F3D11400621E944125436DE7C5
:103FB000BA46594625005346022900D061E77CE7FE
:103FC0008023DB031C436402640A3B00FF2276E784
:103FD000121B1A210125D9E79E362A00B5402C0074
:103FE000C240651EAC411443620704D00F22224038
:103FF000042A00D00434620103D4A401640A00221C
:104000005DE7012200245AE78024E4032C43640284
:10401000640AFF2253E7C0464C830000FFFFFFF70E
:104020008C830000F0B54E4657464546DE46E0B567
:1040300043025B0A450083B00F1C99462D0EC60F44
:10404000002D57D0FF2D24D08020DB00C004184362
:10405000002381469A469B467F3D7C027A00FB0FF7
:10406000640A120E984623D0FF2A4BD0E300802426
:104070000020E4047F3A1C43AD186B1C47460193B3
:10408000534677403A000F2B48D87D499B00CB58C8
:104090009F46002B00D085E008339A46063B9B469E
:1040A0007C027A00FB0FFF25640A120E9846DBD1D2
:1040B000002C00D090E0524601231A439246012082
:1040C000DBE74C4658461700022824D0032800D1CD
:1040D000CFE00022002301284DD15802D205400A2A
:1040E000FF071043384303B03CBC90469946A246B4
:1040F000AB46F0BD002B5BD104239A46033B002561
:104100009B46AAE7FF35002C60D1524602231A4392
:1041100092460220B1E7FF220023DEE74B461B0C4C
:104120009C464B462604360C180461463300220C8C
:104130006446000C43434E435043544380191A0CC9
:104140001218964203D9802149028C4664441B040C
:104150001B0C1004C01883015E1EB341800E18436F
:10416000130C1B199B0103431C00230179D5012368
:1041700062081C401443019A7F32002A4DDD630718
:1041800004D00F232340042B00D00434230103D593
:104190003C4B019A1C408032FE2ABCDCA3015B0A26
:1041A000D2B29AE70C239A46093BFF259B4654E777
:1041B000180001F095F94A46431F76259A400023DE
:1041C0006D4291462D1A9A469B4646E75246032376
:1041D0001A439246032050E7200001F081F9431F63
:1041E0002D1A9C40763D002047E780230027DB0303
:1041F000FF2272E7424666E74C463200584662E7C5
:1042000080234A46DB031A4222D01C4220D123439A
:104210005B025B0A4746FF225FE701239A1A1B2ACB
:1042200021DC23000199D3409E318C401A002300E9
:104230005C1EA34113435A0704D00F221A40042ADC
:1042400000D004335A0111D49B015B0A002244E7D9
:1042500080234A46DB0313435B025B0A3700FF22DD
:104260003BE7019587E70022002336E70122002380
:1042700033E78023DB0323435B025B0AFF222CE747
:10428000CC830000FFFFFFF770B500283DD0C317B7
:10429000C5185D40C40F280001F022F99E22121AB1
:1042A000962A07DCD2B2082833DD08388540680238
:1042B000400A23E0992A0BDD052329001B1AD94067
:1042C00003001B339D402B005D1EAB4119430D00C5
:1042D000052801DD431F9D402B000F490B406E0751
:1042E00009D00F263540042D05D004335D0102D5D9
:1042F0009F220B40121A9B01580AD2B24002D205EB
:10430000400AE4071043204370BD0024002200202F
:10431000F4E76802400AF1E7FFFFFFFBF0B54F4604
:104320004646D6460C000903C0B5490A470F5E0051
:1043300039431F03DB0F9C4665007B0A570F1F4361
:104340006D0DE40F760DA146C000B846D200AB1B40
:1043500064457BD0002B5FDD002E00D0A4E03E0042
:10436000164300D112E15E1E002E00D09EE1871A96
:104370004346B84280410125C91A4042091A0B023E
:1043800000D431E149024E0A002E00D16EE1300026
:1043900001F0A6F80300083B1F2B00DD61E120229D
:1043A0003900D21A9E40D1409F400E439D4200DD0D
:1043B00051E15D1B6B1C1F2B00DD7CE12021C91A24
:1043C0003D0030008F408840DD40791E8F41310034
:1043D00007222843D940002507433A40002A09D044
:1043E0000F233B40042B05D03B1DBB42BF417F4206
:1043F000C9191F000B0200D426E26A1CC64B5505E2
:104400006D0D9A4200D106E1C44AFF080A405307E5
:1044100052023B43120B8EE0002B00D0B8E06B1C25
:104420005B055B0D012B00DC30E1871A4346B84287
:10443000B641CB1A76429E1B330200D54CE13B00BD
:104440003343A1D100220024002570E0002B00DCC2
:10445000E5E0002E00D183E0AF4EB54260D080266B
:1044600036043743B846382B00DC3EE1434613435D
:104470001F007A1E97413F18874280414042091829
:104480000B0200D4B0E0A44B01359D4200D1C3E043
:10449000A24A7B080A4001210F401F435108D3075D
:1044A00007221F433A4099E79B4EB54238D08026F9
:1044B00036043743B846382B00DDDCE01F2B00DC28
:1044C00030E11E004746203EF740BC46202B04D07A
:1044D0004026F31A46469E403243170063467A1E32
:1044E00097411F43CCE0002B00D104E24346134325
:1044F00000D159E14B07C00818438023C9081B03AA
:10450000194208D04546ED081D4204D14346D00863
:10451000590708432900420FC9007F4D1143C000CD
:104520004B07CA087C49C00803438D4268D0120378
:104530006D05120B6D0D002112031800130B0A0DEF
:1045400012051A43764B2D0513402B435B00E407FD
:104550005B08234319001CBC90469946A246F0BD57
:104560003E00164312D05E1E002E00D000E18718D8
:104570008742804141444042091801250B0233D54E
:10458000022585E764463300414610001D00C7E759
:10459000002D00D0DAE00C000443F3D05C1C00D105
:1045A0009FE15D4CA64200D12FE1DB43382B00DDBB
:1045B00066E11F2B00DD83E120240500E41A0F00D3
:1045C000DD40D940A0404346A7405B1A441EA041AD
:1045D00098462F433843171ABA42924143465242F3
:1045E000991A64463500CAE607223A40002A00D0EC
:1045F000F6E64B07CA084849FF083B438D4296D16F
:104600001900114300D19EE1802109030A431203DE
:10461000120B414D8FE71500002200238BE7002B82
:1046200000D0C7E06B1C5F057F0D012F00DCF1E0BF
:10463000394DAB4200D1B9E085180A008542894165
:104640004244494251180722CF076D082F434908B9
:104650003A401D00C2E607223049ED1A31403A4087
:10466000BCE63E002838864000279FE6380000F070
:1046700037FF20308EE6434613431F007A1E9741D2
:10468000C71BB84280414042091A78E60E003B0041
:1046900006431343002D61D1002E00D0F4E0002B1F
:1046A00000D11BE164463900100039E71A4FBB42C4
:1046B0007AD03300FFE630001F3DE840202B03D0C6
:1046C0004021CB1A9E4037437B1E9F410722074360
:1046D0003A400021002589E7171A4346BA42B641FD
:1046E000591A76428E1B64464EE61F2B00DDADE064
:1046F00020264746F61AB740B9461700B246DF40B3
:104700004E463E4337005646B240561EB24117430E
:104710004246DA408918AEE6FF070000FFFF7FFF40
:10472000FFFF0F8020264746F61AB740B94617000C
:10473000B246DF404E463E4337005646B240561E14
:10474000B24117434246DA40891A99E77F4CA642A4
:104750005BD0802424045B42214327E7002E0CD148
:10476000002B00D1CBE0644639001000774DD7E62E
:10477000764FBB4218D0330075E6002B14D04B07A0
:10478000C00818438023C9081B03194207D0FC083E
:104790001C4204D17907D0080843E14621004C4669
:1047A000420FC9001143C000684DB9E61D00002248
:1047B0000023C0E6002D5BD10D00054300D1E2E6E9
:1047C0005D1C00D1B0E0614DAE421FD0DB43382B01
:1047D00071DC1F2B00DD96E020250F00ED1AAF40A5
:1047E000B9460700AA46DF404D463D432F005546D7
:1047F000A840D940451EA84188440743BF189742A6
:1048000092415142414435003AE664463500414602
:10481000100085E60B000343002D00D063E6002B5B
:10482000F5D04346134300D17AE68718874280418A
:1048300007224144404209183A400B0200D4D5E611
:10484000434B01351940C9E5380069E61E0047466B
:10485000203EF740BC46202B04D04026F31A4646A3
:104860009E403243170063467A1E97411F4302E67B
:10487000364DAE42CAD080252D045B422943A6E7BF
:104880000843411E8841A6E6002B00D148E6871A5E
:104890004346B842B641CB1A76429E1B33024BD5F3
:1048A000171A4346BA429241591A5242891A0722AC
:1048B00064463A4092E501430F00791E8F419DE71F
:1048C0001C000F00203CE740202B03D04024E31ABB
:1048D00099400843411E884138437CE60022002469
:1048E00025E6171A4346BA429241591A5242891A8A
:1048F0006446350043E541461000144D10E6802221
:104900000024120380E61D000F00203DEF40BC464E
:10491000202B03D04025EB1A99400843070063463B
:10492000781E87411F4369E7871897429B4141449E
:104930005B42C9183500A3E53B003343CED00722C4
:1049400031003A4052E600231A00F4E5FF07000068
:10495000FFFF7FFFF0B55746DE464E464546E0B5C1
:10496000834607000E03480085B092461C00360BB4
:10497000400DCD0F002800D19DE0954B984239D0D5
:104980008023F6001B041E43924A7B0F3343994653
:10499000944603006344009300230026FF00029323
:1049A00023031B0B98466300E40F52465B0D0194F2
:1049B00000D1B3E086498B4200D19EE04246D1004F
:1049C000802212040A435146490F11438B46814904
:1049D00052468C4600996344CB1A0021D2000093C2
:1049E0002B0063409A460F2E00D905E17A4BB600A2
:1049F0009B599F465B463343994600D0B8E002235B
:104A00000826002700900293CAE7CB463A00029995
:104A10000195019B9A46022927D0032900D180E203
:104A2000012944D06D49009B8C4663441C00002C36
:104A300038DD530700D013E2D2085B46DB0109D50D
:104A40005946674B19408B468021C9008C46009B14
:104A500063441C00634B9C4207DC5B4664055F07B4
:104A60005B0217431B0B620D02E000230027584A2C
:104A700000211B031C0B0B0D1B05234314055A4A75
:104A8000380013401C4353466400DB0764081C4392
:104A9000210005B03CBC90469946A246AB46F0BD0D
:104AA0000122524201231B1B382B00DCADE1002206
:104AB00000230027DCE75B46334399465ED0002E97
:104AC00000D18AE1300000F00BFD03000B3B1C2BF2
:104AD00000DD7BE11D22D31A5A460100DA40083975
:104AE0008E4013005F46334399468F403F4B00266C
:104AF0001B1A00930023029352E7414653460B438F
:104B00003B499B468C46009B634400935B46002BCD
:104B10003BD1022300221E43022161E74346134397
:104B20009B4637D04346002B00D162E1404600F05F
:104B3000D7FC03000B3B1C2B00DD53E10200414678
:104B4000083A914088461D21CB1A5146D9400B00A6
:104B500041460B439B46534693401A00009B254910
:104B60009C46604403008C4663440093002137E771
:104B70000323B14600900C26029311E70023009313
:104B800001330426002702930AE70323C3461E438A
:104B9000032125E701331E430022012120E70023E2
:104BA0009A46802300271B03094A61E78023494670
:104BB0001B03194200D1E2E05946194200D0DEE061
:104BC0000B431B0317001B0BA246014A50E7C046CC
:104BD000FF07000001FCFFFF0C840000FF03000042
:104BE000FFFFFFFEFE070000FFFF0F800DFCFFFF31
:104BF00001F8FFFFF3030000D94500D9CBE000D155
:104C0000C6E03C0048460027009B013B00935B4602
:104C1000160E1B021E431302984633041B0C9946C2
:104C2000310C0191FEF7D2FF4A4642430B04210C9E
:104C3000050019438A4207D98919013D8E4203D8DC
:104C40008A4201D9851E8919881A0199FEF7BEFF8B
:104C500009048C464A46210464464243090C030079
:104C600021438A4204D98919013B8E4200D8F1E0E0
:104C70002D041D43AB464346891A4246280C1204B4
:104C80001D0C5B46140C22001B041B0C5A4303949E
:104C90006B434443029568431B19150CEB189C4267
:104CA00003D980246402A44660441C0C15041B0430
:104CB0002D0C20185D19814277D373D00C1AA24AAB
:104CC0007D1BAF42BF419446009B7F426344E01B83
:104CD0001C00864200D1DBE00199FEF777FF4A46CF
:104CE00042430B04290C070019438A4207D989194A
:104CF000013F8E4203D88A4201D9871E8919881A3A
:104D00000199FEF763FF09044A46894629044D4686
:104D10004243090C030029438A4207D98919013B00
:104D20008E4203D88A4201D9831E89193F04891A09
:104D30003A00039F1A43380013041B0C5843814662
:104D40000298150C6F43434345434846000C844684
:104D5000DB1963449F4203D98020400284466544A6
:104D600048461F0C00041B04000C7D191818A942AA
:104D700000D284E000D17FE001231A4357E680236C
:104D80004A461B0313431B031B0BAA466F4A6FE6DD
:104D9000BA4200D935E74B46DC0758087B081C436C
:104DA000FF0734E70024AF4289D247444745A44176
:104DB0005B466442A4196418013BA6421ED2A0427D
:104DC0006DD800D1B6E0241A9B4678E703005A4616
:104DD000283B9A400027914688E6584600F080FB21
:104DE000203072E603005246283B9A409346002248
:104DF000B4E6504600F074FB20309AE6A642E2D1B9
:104E0000B845DCD9341A9B4659E71F2B65DC504C5A
:104E10000099A4465C46614408008C401100824021
:104E2000D940501E82410C4314435A46DA401300C5
:104E3000620709D00F222240042A05D02200141D47
:104E40009442894149425B181A0262D5012200232B
:104E500000270DE68A4200D80AE7831E891907E772
:104E60000F231340042B00D1E6E5171D9742924112
:104E700053429B44FA08E0E5002800D1D7E57118B9
:104E8000531EB14227D3A94215D358D01A0073E755
:104E9000002B00DC04E6012300229B44CDE5022325
:104EA0004744474589415B429C46494289190C1950
:104EB000E344241A03E743465F0047459B41B84655
:104EC0005B429E19023A8919A94200D054E7404535
:104ED00000D051E7ABE51A00F6E71F215F464942D3
:104EE0000C1BE740202B07D01A49009B8C466344DB
:104EF00018005B4683401A43501E82413A430727FD
:104F00000023174009D00F21002311401400042969
:104F100095D122005F075B021B0BD20817430022CA
:104F2000A6E5802359461B030B431B0317001B0BED
:104F3000064A9DE5BD42B2D89B460024BFE68045A7
:104F4000B9D31A00C3E7C046FF030000FF07000003
:104F50001E0400003E040000F0B55746DE464E46F3
:104F60004546E0B5834606000F03480087B09246E9
:104F70001D003F0B400DCC0F002800D16FE0DE4B31
:104F8000984238D08023FF001B041F43730F3B431C
:104F90000193DA4B0027994600239B46F600814493
:104FA0002B0369001B0B52469846490DED0F002953
:104FB00000D185E0D04B994200D173E04346DA003E
:104FC00080231B0413435246CC48520F844613439C
:104FD000524600206144D20089442100694000917A
:104FE0008C46012149448A460F2F00D990E0C449DC
:104FF000BF00CF59BF465B463B43019300D06AE1F7
:1050000002230827002681469B46C9E732005846FE
:10501000019B61460091022800D175E0032800D170
:10502000FEE1012800D02CE1002300270026002506
:105030003F032A0D3F0BB34812053A4302401B05BC
:105040001343009A5B00D1075B080B433000190043
:1050500007B03CBC90469946A246AB46F0BD5B46C5
:105060003B43019300D12FE1002F00D1A5E138008F
:1050700000F036FA03000B3B1C2B00DD96E11D22ED
:10508000D31A5A460100DA405E4608398F401300B1
:105090008E403B4301939C4B00271B1A99460023EB
:1050A0009B467DE7414653460B4393498C46E1447A
:1050B000002B00D01AE102220220174300228CE7C5
:1050C000134300D10DE14346002B00D181E140465E
:1050D00000F006FA02000B3A1C2A00DD72E1010022
:1050E000434608398B4098461D239A1A5346D340AD
:1050F0001A004346134352468A404946081A8249D9
:1051000089468144002068E77B4B002700268EE714
:10511000140C1204120C1100370C3604350C7943B0
:1051200028008C462E00604360448346564321008D
:10513000300C80465846794340440291844506D954
:105140008846802149028C46E0444146029136045B
:10515000010C360C00048B4681191E0C1B041B0C21
:105160000391190079438C46280075436544A8468D
:105170005843050C45447743A94203D9802149028D
:105180008C466744290C8C4639000004000C2D0421
:105190002D186144AB4405915946049101990F04BF
:1051A0003F0C080C390051434243904602008C46A4
:1051B000090C8B4662437C4344445C44A04503D9BC
:1051C0008021490288464244210C884661460904F0
:1051D000090C8C4639005943434370437E430F0CFE
:1051E000F6182404BE19644442448C46B34203D9E1
:1051F00080235B0298464044029B61469846049B8C
:10520000370443449B46AB45AD416B420D040599C1
:105210002D0C8C467F196744FD18A8465D462D1954
:10522000A542A44193466442A446C344DC448F4251
:10523000BF4198459B4193459241A445A4415B429F
:105240007F421F43360C52426442BF192243BF18AB
:10525000624638184302D20D039913436A020A4387
:10526000501E82416146ED0D2A434E023243D90160
:1052700000D4B3E00126500832400243DE07324337
:105280005B08224C5444002C62DD510709D00F20EA
:105290001040042805D0101D9042924152429B18A4
:1052A0000200D90104D580241948E4000340544485
:1052B0001848844200DD27E75E075B02D2081F0B17
:1052C000630516435B0DB2E60023994601330427BC
:1052D00000269B4664E60323019781460C279B46E4
:1052E0005EE6012201201743002276E60323032015
:1052F0001F43434671E6C046FF07000001FCFFFF65
:105300004C840000FFFF0F800DFCFFFFFF03000037
:10531000FFFFFFFEFE0700000023802700933F03EE
:105320000026434B83E6019B3200A446584670E6B4
:10533000AC466EE6802701993F0339422DD03B42AF
:105340002BD11F433F033F0B00951600384B6EE6F1
:1053500001252D1B382D00DD66E61F2D40DC35486C
:105360001C005044160082408440EE40501E824192
:1053700034431443EB40620709D00F222240042A31
:1053800005D02200141D9442804140421B181A028D
:105390003ED501230027002649E68027019B3F03D5
:1053A0001F433F033F0B0094214B40E603005A4646
:1053B000283B9A40002601926DE6584600F090F88E
:1053C000203057E603005246283B9A401300002243
:1053D00093E6504600F084F820307BE6CA4650E75A
:1053E0001F201E004042041BE640202D03D0124C1B
:1053F0005444A3401A43501E8241324307260027DB
:10540000164009D00F200023104014000428B9D101
:1054100022005E075B021F0BD2081643002306E63C
:1054200080273F031F433F033F0B1600004BFEE561
:10543000FF0700001E0400003E0400004100090EAA
:105440004B1C70B5DBB24602750AC40F012B14DD8C
:10545000E0239B006D07360BCB1800210A0D2800B6
:1054600012051C4D32435B052A405B0813435B0069
:10547000E4075B082343190070BD002914D1002DF7
:105480001ED0280000F02CF80A281CDC0B232A0070
:105490001B1ADA40030015339D400F4B12031B1AF1
:1054A0005B05160B5B0DD8E7002D06D0320B80266E
:1054B00036036D071643094BCFE7084B0026CCE7B0
:1054C00000230026C9E703002A000B3B9A40002571
:1054D000E3E7C046FFFF0F8089030000FF070000DD
:1054E0001C2101231B04984201D3000C10391B0A14
:1054F000984201D3000A08391B09984201D30009D8
:10550000043902A2105C40187047C046040302022E
:1055100001010101000000000000000070B500263C
:105520000C4D0D4C641BA410A64209D1002603F0BB
:105530000BF90A4D0A4C641BA410A64205D170BD9C
:10554000B300EB5898470136EEE7B300EB589847A5
:105550000136F2E7548700005487000054870000AA
:1055600058870000002310B59A4200D110BDCC5CD2
:10557000C4540133F8E703001218934200D1704776
:1055800019700133F9E7F0B58BB014001D1E1299A4
:1055900053DA802424061B191D0014002D230B70E0
:1055A0002023149E03229E43462E07D03300453B02
:1055B00059424B411099013ACB18109309AB04930F
:1055C00008AB0393139B00920293109B220001935C
:1055D0002B0000F0E5FC0700472E02D1119BDB07F2
:1055E00024D5109BFB180793462E14D13B78302B03
:1055F0000CD1002200232000290002F05DF80028D1
:1056000004D10123109A9B1A139A1360139B079AD3
:105610001B68D3180793002200232000290002F002
:105620004BF8302200280DD0079B09933800099BC6
:10563000159ADB1B13600BB0F0BD0023AFE7591CBC
:1056400009911A70099B07998B42F8D3EEE7F0B5E0
:10565000831C85B0019306000C0002702B230029E7
:1056600001DA2D234C427370092C22DD02ABDD1DC3
:1056700020000A21FEF794FB6F1E303139702000A4
:105680000A21FEF7A7FA040009280BDC023D30349A
:10569000019B2C7002AA07321800AA4204D8801B72
:1056A00005B0F0BD3D00E3E72A7801351A700133FB
:1056B000F0E73023E418B370301DF470EFE700001A
:1056C000F0B595B00C000A920B931A9D099001F069
:1056D00047FA036818000C9300F0D4FB00231293E0
:1056E00023680E900D930D99277E2B680722C9051C
:1056F00045D59B1893431A0008322A601A685B68E4
:10570000A264E3640122E56CA66C6B005B080F9356
:105710005242AC4B30000F9902F04CFC002830D1C3
:105720000122A84B524230000F9901F0D5FF00280A
:1057300027D1002200233000290001F0C3FF0028F8
:1057400003D023002D2243331A709F4D472F00D8DA
:105750009E4D032300260D9A236101339A43226054
:105760000B9B13AA009321000A9B099800F0F4F9FF
:10577000431C00D093E00120404215B0F0BD073338
:10578000B8E732002B003000290002F013FC00289B
:1057900004D08F4D472FDCD88E4DDAE780230D994A
:1057A0006268DB000B43511C43D10732626012AACE
:1057B0000021059211AA03922322236006910193EE
:1057C00008A9636852180292009332002B000497D4
:1057D0000998FFF7D8FE20233A0005009A43472A8C
:1057E00007D1119BDA1C02DB6268934245DD023F60
:1057F000FFB21199652F25D8200001393A005030A9
:105800001191FFF724FF129A060013182361012A51
:1058100002DC2268D20701D501332361232308AAC1
:105820009B181B78002B9BD023002D2243331A702A
:1058300096E7672F00D176E1472FB8D1002AB6D17D
:105840000122B3E7662F19D1636800290CDD2161BD
:10585000002B02D12268D20702D501335B182361E5
:10586000119B0026A365D9E7002B03D101222168F3
:10587000114200D09A1C2261F2E76727119B129A0D
:10588000934205DB22682361D207E9D50133E6E7BD
:105890000121002B01DC4918C91A5218EBE72268D4
:1058A000530508D423692A000A9909980B9DA84733
:1058B000431C29D15FE7652F00D8E0E0A06CE16CC4
:1058C0000022002301F0F8FE002834D00123424AD0
:1058D0000A9909980B9DA847431C00D14BE7119BDF
:1058E000129A934202DB2368DB070DD50B9D0E9BBA
:1058F0000C9A0A990998A8470025431C00D13AE759
:10590000129B013BAB420ADC23689B0700D508E1F0
:10591000139BE068984200DB2FE718002DE7220078
:1059200001231A320A9909980B9EB047431C00D1F3
:1059300021E70135E4E7119B002B2DDC0123264AEA
:105940000A9909980B9EB047431C00D113E7119B9D
:10595000002B05D1129B002B02D12368DB07D3D586
:105960000B9E0E9B0C9A0A990998B0470026431C7F
:1059700000D100E7119B5B42B34201DC129B92E72E
:10598000220001231A320A9909980B9FB847431C39
:1059900000D1F0E60136EDE7A36D129F9F4200DDD6
:1059A0001F00002F08DD3B002A000A9909980B9E72
:1059B000B047431C00D1DEE600230D93FB43DB1709
:1059C0000F9318E0FFFFEF7F908400008C840000AD
:1059D00098840000948400009C840000220001232D
:1059E0001A320A9909980B9EB047431C00D1C2E6AF
:1059F0000D9B01330D930F9BA66D0D9A3B40F31A3F
:105A00009342EBDC119B129AAD19934210DB236891
:105A1000DB070DD4129F119BBE1BFF1AB74200DD9E
:105A20003700002F0DDCFE43F31700250C931CE01C
:105A30000E9B0C9A0A9909980B9FB847431CE9D111
:105A400099E63B002A000A9909980B9DA847431C38
:105A5000E9D190E6220001231A320A9909980B9E97
:105A6000B047431C00D186E60135119A129B0C9970
:105A70009B1A3A000A409B1AAB42EBDC44E7129BAC
:105A8000012B02DC01231A4232D001232A000A9999
:105A900009980B9FB847431C00D16CE60E9B0C9AEB
:105AA0000A9909980B9F0135B847431C00D162E65B
:105AB000A06CE16C129B00225F1E002301F0FCFD34
:105AC0003B00002814D000250AE0220001231A32EE
:105AD0000A9909980B9FB847431C00D14BE6013542
